:020000040000FA
:1000000060040010D9270000DD270000DF27000072
:1000100000000000000000000000000000000000E0
:10002000000000000000000000000000E1270000C8
:100030000000000000000000E3270000E5270000AA
:1000400039110000E7270000812E0000D3110000C5
:100050002D260000E7270000E7270000B714000066
:10006000E7270000E7270000E7270000E727000058
:100070009B100000E7270000E7270000E7270000AB
:10008000E7270000E7270000000000000000000054
:100090000000000000000000000000000000000060
:1000A0000000000000000000000000000000000050
:1000B0000000000000000000000000000000000040
:1000C0000348854604F024FE00480047110900005B
:1000D0006004001000BF0146401E0029FBD170479C
:1000E000F0B587B00A2001F03CF800287ED001204E
:1000F000800302F052FC0026FB48066AF00FC0079E
:100100000121C907884272D1F8497143084604F0B9
:10011000E1FCF74AF74B0191009004F0DFFB00226D
:10012000F54B0391029004F041FC0022F34B059142
:10013000049004F03BFC04460D4622462B4600206A
:10014000EF4904F0F3FC02D20020014611E0002246
:10015000EB4B2046294604F0B3FB0022E94B039108
:10016000029004F023FC0022E74B0591049004F078
:10017000B5FB04460D462046294604F0B9FCC1B241
:10018000E248807CE14A203A11541046818E2030AA
:10019000807C105C081811468886DC48807C401CF6
:1001A000322801D1002002E0D848807C401CC1B236
:1001B000D64881742038818E2030807CD34A203A02
:1001C000105C081A11468886D1480078002819D09A
:1001D000938E2032927C0F46BA5C981ACB4A917C5F
:1001E00004F028FACB490870C84801E07BE017E02A
:1001F000807C401C322801D0012000E00020C4494E
:1002000008700DE0C14920398A8E2031897CBF4BAE
:10021000203B595C501A322104F00CFABD49087099
:1002200032210A2000F096FF0026AF484669F00F01
:10023000C0070121C90788421ED1AC497143084655
:1002400004F048FCAA4AAB4B0191009004F046FB35
:100250000022A94B0391029004F0A8FB0022A74BB7
:100260000591049004F0A2FB04460D462046294661
:1002700004F03EFCA849088000269B48866AF00FDF
:10028000C0070121C90788421ED198497143084619
:1002900004F020FC964A974B0191009004F01EFB5D
:1002A0000022954B0391029004F080FB0022934BB7
:1002B0000591049004F07AFB04460D462046294639
:1002C00004F016FC954908808748403000684008D3
:1002D0004000401C844940310860904801888E48A5
:1002E000008802F0F2F807B0F0BD8D4948608860E0
:1002F000C86008618861C861086248628862C86233
:1003000008634863886386494031086048608860B4
:10031000C860086148618861C861814980310860AE
:1003200048608860C860704710B57E480068400823
:1003300040007C49086001F056FB01F091FF00F09D
:1003400042FE0020FFF7D1FF0021212002F085FBB3
:10035000754802F02AFB2120714908607348FFF7B5
:10036000B9FE0021282002F09DFB00F0FFFD01F006
:10037000CDFE002801D0102000E008206C49088044
:1003800010BD10B502206B4908706B4908706748B2
:10039000FFF7A0FE6548FFF79DFE0821674802F0C1
:1003A0007DFC6248FFF796FE0121C9030520000786
:1003B00002F074FCFFF7B8FF10BD10B55548007887
:1003C0000A2807DA012109030520000702F06EFC64
:1003D00000280ED00121C9030520000702F05AFCB5
:1003E0001422FF21042001F08BFC002051490870E9
:1003F00015E008220321012001F082FC1F2407E000
:100400004F48FFF767FE0A22FF21012001F03BFC65
:100410002046611ECCB20028F2D1FFF7B2FF10BD1A
:1004200010B5052000F09DFE00284FD0042000F0FC
:10043000C3FE01210520000702F038FC002823D16B
:1004400040480088401C3F490880084600883C28F6
:1004500003D100203C49087011E03A4800884B2144
:10046000090188420BDD0220374908700020354918
:1004700008802F480088082188432D4908800121E1
:10048000052000F067FE21E02E480088002803D0F8
:100490002C4800883C2809DB00202A490880244891
:1004A000008808218843224908800FE025480088F9
:1004B0003C280BDA012024490870002021490880DB
:1004C0001B480088082188431949088010BD10B5D1
:1004D0001D480078002839D001285DD0022871D04D
:1004E000032870D170E000000000024040420F007D
:1004F0006666666666660A4000FEAF4000408F4052
:1005000000089B4000207740000059409E000010EA
:100510000A000010060000100C0000100E00001071
:100520000040044000400040F0FFFFDF50C30000E7
:100530001600001001000010000000100000025022
:10054000A08601000400001002000010FD480078A1
:10055000002809D0012818D002281AD1FFF72DFF52
:100560000620F949087015E00F22FF21012001F053
:10057000C7FB002000F0B6FE202000F0BEFE01F018
:100580006FFE0620F049087004E00120EE49087073
:1005900000E000BF00BF2AE0EA480078012810D13F
:1005A0000020EA490870012189030520000702F0B4
:1005B00071FBFF21F531062000F0CCFD0320E2495C
:1005C000087014E00FE011E0062000F0CAFD0028DA
:1005D00008D0012189030520000702F05FFB0620F7
:1005E000D949087003E002F0F4F900E000BF00BF51
:1005F00010BD10B5D6480078C007C00F002822D023
:10060000D448007800280CD00821D34802F046FBDB
:100610000020D049087000F065FE262000F06DFE35
:100620000BE00821CC4802F035FB0120C9490870D5
:1006300000F058FE262000F060FEC5480088400803
:100640004000C3490880C2480088102108400028A3
:1006500018D0BC480078002807D0012806D002280E
:1006600008D10020B849087005E004E00120B6492F
:10067000087000E000BF00BFB54800881021884323
:10068000B3490880B24800882021084000281AD0C9
:10069000AC480078002810D1C9010520000702F0FD
:1006A00005FB002809D0022000F01CFEAB480078B2
:1006B00000F018FE252000F020FEA548008820212B
:1006C0008843A3490880A2480088082108400028E0
:1006D00001D0FFF7A5FE10BD10B5044660780028D4
:1006E00006D001280DD0022808D0032815D110E02B
:1006F000002094490870954908700EE0FFF741FE0C
:100700000BE001208F4908709049087001F06BF9E7
:1007100003E0032001F0FEFF00BF00BF10BD10B5D5
:100720000C2000F01EFD002858D08D490C2000F050
:1007300011FD84480078002851D1884800780F289E
:1007400017DA8848007800280DD1012000F0CAFD92
:100750008248007800F0C6FD252000F0CEFD06207E
:10076000804908700BE07F480078401E7D49087082
:1007700005E006207B49087003207B490870774814
:100780000078052817DA012109030520000702F087
:100790008DFA00280FD174480078002805D16A49E5
:1007A00008700320704908700FE06F480078401E01
:1007B0006D49087009E0002000F094FD674800785A
:1007C00000F090FD252000F098FD06206749087094
:1007D00067480088062148436649088037E05B483F
:1007E0000078012820D163480088002808D160489B
:1007F0000088062148435F490880FFF7C2FD04E0F6
:100800005C480088401E5B490880544800780528F1
:100810001DDA012109030520000702F047FA00282C
:1008200015D1FFF7AEFD12E04848007800280ED041
:100830004E480078002805D106204C490870FFF783
:10084000A0FD04E049480078401E4849087010BDEA
:1008500010B5494800F0E3FD3C480078002803D07B
:100860004548007802284ED143480078062827D012
:1008700006DC030004F075FA06450D171C28204518
:10088000072825D00F2812D0252824D0272838D192
:100890002CE00C2000F026FD182000F023FD0120A4
:1008A00000F02BFD2EE03448FFF716FF2AE029E088
:1008B000314801F007FA25E02F4801F037FC21E02C
:1008C0002D4801F0C1FD1DE02B4801F05BFC19E053
:1008D00001F08BFC16E0002000F004FD1F480078BA
:1008E00000F000FD252000F008FD0BE022484078D4
:1008F0001F490880012000F0F5FC272000F0FDFCD6
:1009000000E000BF00BF0A211B4803F0AEFE10BD8F
:100910001F2400F0FCFA0EE0601EC4B21748FFF777
:10092000D9FB0A22FF21012001F0ADF9002C02D1F0
:10093000FFF727FDFF2401F07CFC0028ECD1FFF736
:1009400020FD31E000000010020000100100001046
:1009500016000010180000100000025006000010E1
:1009600010270000100000101100001014000010EB
:10097000080000101200001074000010A086010092
:10098000FFF7AEFBFFF764FFFFF733FEFFF79FFDB6
:1009900001F056F901F0F5FDFFF7C1FE03F0B9FDD6
:1009A0007D20C000FFF796FBEAE7000010B50028A5
:1009B00019DAFE4A03071B0F083B9B089B00D2581D
:1009C0008307DC0EFF23A3409A438B071B0E84078B
:1009D000E40EA3401A43F54B0407240F083CA40877
:1009E000A4001A5118E0F24A03231B02D21883080C
:1009F0009B00D2588307DC0EFF23A3409A438B074A
:100A00001B0E8407E40EA3401A43E94B032424027F
:100A10001B198408A4001A5110BDFFB581B00F4600
:100A200015460120000401F0B8FF0B98012809D1F8
:100A300008210098884300901021009888431030C6
:100A4000009014E00B98002809D1082100988843F1
:100A500008300090102100988843009007E008219A
:100A6000009888430090102100988843009020212E
:100A7000009888430090402100988843009080218E
:100A800000988843009049000098884300904900EE
:100A900000988843401800904900009888430090CF
:100AA00049000098884300900198012804D002284A
:100AB0000AD0042814D10DE0052424070C260120B7
:100AC000400701F06AFF0CE0BA4C0D26A00301F0CC
:100AD00064FF06E0B84C0E26A00301F05EFF00E0C4
:100AE00000BF00BF0098C008C0006907490F084355
:100AF00000903946009A019802F0A5F8F0202840AD
:100B0000002800D00025002D2CD10498012811D1F7
:100B10003946204602F0BAF80A98012803D1E06865
:100B20003843E0601EE00A9800281BD12069384352
:100B3000206117E0304600F077FA3946204602F08F
:100B4000A1F80A98012805D101223946204602F071
:100B5000C8F804E000223946204602F0C2F83046C8
:100B600000F05BFA05B0F0BDF8B505460F46164635
:100B70001C46012D04D0022D07D0042D0FD109E011
:100B80000120400701F009FF0AE00120800701F081
:100B900004FF05E00120C00701F0FFFE00E000BFF8
:100BA00000BF012C09D10821009888430090102132
:100BB000009888431030009013E0002C09D10821E0
:100BC00000988843083000901021009888430090D6
:100BD00007E008210098884300901021009888437E
:100BE000009020210098884300904021009888437D
:100BF0000090802100988843009049000098884325
:100C000000904900009888434018009049000098DF
:100C10008843009049000098884300900098C008DD
:100C2000C0007107490F0843009039462846009AD2
:100C300002F009F8F8BD1CB501210C20FFF7B6FE43
:100C40000120009000231A46C1020190FFF7E5FE43
:100C50000120002103461122009101900821042067
:100C6000FFF7DBFE012000210346112200910190D5
:100C70008103FFF7D2FE012000210B460A460091B6
:100C800001900146FFF7C9FE012000210B460A46EC
:100C9000009101902021FFF7C0FE01231A46402158
:100CA0000220FFF761FF01231A4680210220FFF78F
:100CB0005BFF0120002103460A460091019020219C
:100CC0000220FFF7AAFE0120002103460A460091F8
:100CD000019001460420FFF7A0FE012000210346F9
:100CE0000A460091019002210420FFF796FE0120A0
:100CF000002103460A460091019010210220FFF7CF
:100D00008CFE0320012100231A4600910190090363
:100D10000120FFF782FE0120002103460A460091D0
:100D200001908102FFF779FE0120002103460A4667
:100D30000091019002210846FFF76FFE012000217B
:100D400003461122009101904103FFF766FE012046
:100D5000002103460A460091019008210220FFF776
:100D60005CFE0323022211460120FFF7FDFE002353
:100D7000062240210120FFF7F7FE03230522102160
:100D80000120FFF7F1FE1CBD08B5002001231A4623
:100D9000014600900A2002F0F5FA012002F046FC1C
:100DA000012002F048FC0022012107E01CED00E0D8
:100DB00000E100E00000015000000250104602F087
:100DC0003FFC02F09CFC08BD10B50120800301F03F
:100DD000E4FD03F079FA984803F01AFA022003F0D0
:100DE00041FB102003F03EFB402003F03BFB0022C0
:100DF0000121104603F07CFA0121084603F019FB9B
:100E00000621084603F015FB0421084603F011FBF8
:100E100003F040FB8948006840084000401C8749B7
:100E2000086010BD10B58649864802F0B3FD8548BC
:100E300002F015FE02226421824802F0FFFD814883
:100E400002F01CFE02210320FFF7B0FD032000F09A
:100E5000E4F87C48406840084000401C79494860FC
:100E600010BD10B57449784802F094FD764802F040
:100E7000F6FD02226421744802F0E0FD724802F09F
:100E8000FDFD03210420FFF791FD042000F0C5F8CB
:100E90006D484068400840006B49486010BD10B57F
:100EA00004460120C00301F078FD032001F0FBFCA3
:100EB0006649002003F015FB7D21C9006143084607
:100EC00003F046FB624800680221884360490860DD
:100ED00008460068802188435D490860FF20F5309E
:100EE000096849084900491C594A116000BF014678
:100EF000421E90B20029FAD15548006840084000CF
:100F0000401C5349086003F004FB10BD70471CB53A
:100F100001F0B8FC0520FFF7C2FFFFF78CFE0120AF
:100F2000002103460A4600910190C103FFF775FDB9
:100F300000F070F9FFF7EAFFFFF726FFFFF744FF25
:100F4000FFF770FFFFF78DFFA022FF2191310120F5
:100F500001F008FF00F037FF00F07EF81E22FF21AD
:100F6000062000F0CDFE01F07BF91CBD1CB501F0A0
:100F700089FC0520FFF793FFFFF75DFE01200221AA
:100F80000346002200910190C103FFF746FD00F0E7
:100F900041F9FFF7BBFFFFF7F7FEFFF715FFFFF77C
:100FA00041FFFFF75EFFA022FF219131012001F0F8
:100FB000D9FE00F051F81E22FF21062000F0A0FE0D
:100FC00001F04EF91CBD1CB50120002103460A4664
:100FD000009101900103FFF720FD0C2000F024F8A0
:100FE0000120400701F0E1FC0120C00701F0DDFC19
:100FF0000120800701F0D9FC0120C00301F0D5FCDD
:101000000120000401F0D1FC0120000301F0CDFC1F
:101010000120800301F0C9FC1CBDC206D20E0121D3
:1010200091400C4A11607047C206D20E01219140D6
:10103000084A80321160704740420F004000024071
:10104000A08601000000014000400140FFFFFF00BA
:101050000040004000E100E03C48008840084000BB
:101060003A490880084600880421884337490880A7
:1010700008460088022188433449088008460088D1
:1010800010218843314908807047C26B0A43C2630C
:1010900070470146886B80B2704705200007806B5F
:1010A000012808D0202815D00121C902401A20D0DB
:1010B000401A3ED12DE025480088082108432349E5
:1010C000088005200007C06B01210843052109079E
:1010D000C8632FE01D480088102108431B49088081
:1010E00005200007C06B2021084305210907C863BC
:1010F00020E0164800880121084314490880052093
:101100000007C06B0121C902084305210907C86314
:1011100010E00E480088202108430C490880052073
:101120000007C06B01210903084305210907C863B3
:1011300000E000BF00BF704710B5002001218140D2
:10114000034A116000BF01F0A8FC10BD160000109A
:1011500080E200E042002C4B995242002B4B995206
:10116000704701464800284A105A4A00274B9A5AAD
:10117000904205DD48001A46105A4A00224B985208
:101180004800214A105A002801D101207047002050
:10119000FCE7014648001C4A105A4A001B4B9A5A69
:1011A000904205DD48001A46105A4A00164B9852E4
:1011B0004800154A105A704710B5044621460820C9
:1011C000FFF7C8FF00BF0820FFF7CBFF0028FAD0C9
:1011D00010BD10B5002400BF10E060000A49085A95
:1011E000002806DD6000085A401E6100064A505281
:1011F00003E000206100044A5052641C0D2CECD323
:10120000034802F035FC10BDB4000010CE00001001
:101210000000014008B50120000401F0BEFB0120E0
:10122000400701F0BAFB0120000301F0B6FB0821E2
:101230000098884300901021009888431030009057
:101240002021009888430090402100988843009016
:1012500080210098884300904900009888430090BE
:10126000490000988843401800904900009888433E
:1012700000904900009888430090490000988843F6
:10128000401800900098C008C000C01C00900421C5
:101290000120009A01F0D7FC0098C008C000C01CD3
:1012A000009008210120009A01F0CDFC02230022C9
:1012B000E1214902B04802F039FE0021072000F088
:1012C00023F9072001218140AC4A116000BF08BD0D
:1012D00000BFAB4A52685207D20F002AF9D1A84A80
:1012E00010607047A749C97DA64AD27D521CA54B04
:1012F000DA75091DDA1C5054704770B5014600229A
:101300000020FF239F4CE37023465C781C715B78C0
:101310005B1C9C4C63702346DB7D9B1CDCB2994BB1
:101320005C719971022005E0964BDB1C1B5C5A40F6
:10133000431CD8B2934BDB7D1B1D8342F4DC914BE5
:10134000DB7D904CE47D641C8E4DEC751B1DEC1C0C
:10135000E254FE25E31EDB7DE41EE47D641C894E21
:10136000F4751B1DF41CE554002012E000BF824BF5
:101370005B685B07DB0F002BF9D17F4B1B681B0AF7
:101380001B02804CE41C245C23437B4C2360431CE5
:10139000D8B27C4BDB7D1B1D8342E7DC0023794CFC
:1013A000E37523465B78FF2B01DB0023637070BD80
:1013B0000146481CFF2801D1002000E0481CC0B2B3
:1013C000704770B5054670480188401D405CFF2895
:1013D0000BD16D480088801C6B49491D085CC01CFE
:1013E000C4B2A54207DD204670BD67490878FFF703
:1013F000DFFF654908800020F6E710B562480188E4
:10140000401D445C0021401F0288401D8154411F43
:101410000878FFF7CDFF5C490880204610BDF8B57D
:10142000064659494988FF31574A1288881AFF21D0
:1014300003F000F9CCB2062C3CDD2046FFF7C1FFDB
:101440000446002C36D0E01EC4B22746FFF7D5FF75
:10145000FFF7D3FF0090FFF7D0FF002528E0FFF74C
:10146000CCFF7055681CA0421ED1705DB8420DD1F2
:10147000FFF7C3FFFE2809D10098FFF733FF0020D4
:10148000FFF730FF0E20FFF738FF0FE00098FFF75F
:1014900029FF0120FFF726FF0E20FFF72EFF042172
:1014A000304603F0E2F801E0705D4740681CC5B2C9
:1014B000A542D4DBF8BD10B52F48C068C007C00FE7
:1014C000002806D02C48C06840084000401C2A492B
:1014D000C8602948C0688007C00F002813D026487C
:1014E0000068C1B228484288401D8154411F887855
:1014F000FFF75EFF244948801F48C06802218843E7
:10150000801C1D49C86010BD10B5002819DA1F4A9B
:1015100003071B0F083B9B089B00D2588307DC0E78
:10152000FF23A3409A438B071B0E8407E40EA340BE
:101530001A43164B0407240F083CA408A4001A51B0
:1015400018E00E4A03231B02D21883089B00D258CE
:101550008307DC0EFF23A3409A438B071B0E8407EF
:10156000E40EA3401A43054B032424021B198408EC
:10157000A4001A5110BD00000080004000E100E00E
:1015800000C00040E8000010000100101CED00E069
:1015900038B504460120000401F0FFF9012040079E
:1015A00001F0FBF90120800701F0F7F9082100980C
:1015B000884300901021009888431030009020212B
:1015C0000098884300904021009888430090802133
:1015D0000098884300904900009888430090490093
:1015E0000098884300904900009888430090490083
:1015F0000098884300900098C008C00000908021A7
:101600000120009A01F01FFB0098C008C000009064
:10161000FF2101310120009A01F015FB0098C0085C
:10162000C0000090012149020120009A01F00BFB4B
:101630000098C008C000009001210220009A01F02B
:1016400002FB0721C9010520000701F01FFB012152
:10165000FE4801F01BFB2007000F04282CD006DCFD
:10166000002850D0012807D0022857D114E00828BC
:1016700033D00F2852D13BE0FF2101310520000774
:1016800001F008FB0521C901480501F007FB012114
:10169000EE4801F003FB42E080210520000701F045
:1016A000F9FA032109020520000701F0F7FA0121E8
:1016B000E64801F0F3FA32E0012149020520000773
:1016C00001F0E8FAFF2181310520000701F0E6FA78
:1016D0000121DE4801F0E2FA21E00721C9010520DD
:1016E000000701F0DBFA0121D84801F0D3FA16E037
:1016F0000721C9010520000701F0CCFA0121D348D8
:1017000001F0C8FA0BE00721C9010520000701F02C
:10171000C5FA0121CD4801F0C1FA00E000BF00BFC9
:1017200038BD38B504460120000401F036F9012027
:10173000400701F032F90120800701F02EF908215D
:101740000098884300901021009888431030009042
:101750002021009888430090402100988843009001
:1017600080210098884300904900009888430090A9
:101770004900009888434018009049000098884329
:10178000009049000098884300900098C008C0006D
:10179000401C009080210120009A01F054FA00982A
:1017A000C008C000401C0090012149020120009A9D
:1017B00001F049FA0098C008C000401C00900121C7
:1017C0000220009A01F03FFA0098C008C000401CB7
:1017D0000090FF2101310120009A01F034FA2146E6
:1017E0000F2001F0C7FE38BD10B504462007000FDA
:1017F000030003F0B6FA1091091A4D2BA25EA23C29
:10180000A2A2A26FA2A280A22021904801F042FAD7
:1018100001218F4801F042FA02218D4801F03EFA81
:1018200010218A4801F03AFA88E00121884801F045
:1018300031FA2021854801F031FA0221844801F073
:101840002DFA1021814801F029FA77E00221804821
:1018500001F020FA20217D4801F020FA01217C4886
:1018600001F01CFA1021794801F018FA66E0102105
:10187000764801F00FFA2021744801F00FFA012197
:10188000734801F00BFA0221714801F007FA55E0A4
:1018900020216E4801F0FEF901216D4801F0FAF9AE
:1018A00002216B4801F0FAF91021684801F0F6F9BD
:1018B00044E00121664801F0EDF90221644801F09D
:1018C000E9F92021614801F0E9F910215F4801F0B0
:1018D000E5F933E002215E4801F0DCF910215B48B4
:1018E00001F0D8F92021594801F0D8F901215848D0
:1018F00001F0D4F922E02021544801F0CBF9012174
:10190000534801F0C7F90221514801F0C3F91021F1
:101910004E4801F0BFF911E020214C4801F0BEF91A
:1019200001214B4801F0BAF90221494801F0B6F90A
:101930001021464801F0B2F900E000BF00BF10BD21
:1019400010B50020FFF70DFC002843D04148007877
:10195000002811D040480078401C3F4908700846D4
:101960000078632814DB00203A4908703B4800786F
:10197000401C3A4908700BE037480078401E364951
:10198000087008460078012802DC012031490870FF
:101990003348007931490978884203D10020304921
:1019A000487106E02E480079FF2802D100202B491B
:1019B00008700F20FFF718FF27480078FFF7B1FEE7
:1019C000274908680A2102F01FFE84B22146002040
:1019D000FFF7C0FB10BD10B50F20FFF705FF0F206C
:1019E000FFF7D6FD10BD10B50020FFF7D1FD002098
:1019F000FFF7FAFE10BD10B50020FFF7B2FB00287C
:101A00004AD018480078082803DA164800780028D9
:101A100001D1012002E0134800784000114908700C
:101A20000F20FFF7B5FD0F480078FFF7DDFE0B49EB
:101A30000878C117890F09188910094A127991424B
:101A400012D100200649487115E000000000015045
:101A5000000002501F0000101E00001020000010A7
:101A6000240000101D000010B0480079FF2802D1AA
:101A70000020AF490870AF480078082805D1AC486D
:101A80000078401CAA49087000E000BFA748008801
:101A900081B20020FFF75EFB10BD10B50020FFF7FC
:101AA00060FB00283BD0A3480078012803DDA14853
:101AB0000078082801DD082002E09E4800784010E8
:101AC0009C4908700F20FFF763FD9A480078FFF7E4
:101AD0008BFE97490878C117890F09188910934A16
:101AE0001279914203D100209049487106E08F4855
:101AF0000079FF2802D100208D4908708D480078B8
:101B0000012805D18A480078401C8949087000E006
:101B100000BF8648008881B20020FFF71BFB10BD84
:101B200010B50020FFF71DFB00284ED0824800783A
:101B3000002801D1012001E07F4800787E4908702B
:101B40007C4800780C2803DA7A480078002801D114
:101B5000032002E077480078400076490870764814
:101B60000078FFF715FD73480078FFF73DFE7148D8
:101B700000780C2812DB70480078082808DB012068
:101B80006D4908706A480078401C6949087005E092
:101B9000694800784006000E67490870634800797C
:101BA00063490978884203D100206049487106E002
:101BB0005E480079FF2802D100205D4908705B482B
:101BC000008881B20020FFF7C5FA10BD10B50020D3
:101BD000FFF7C7FA002832D057480078FFF704FE15
:101BE00055480078FFF7D4FC53480078002801D00E
:101BF000002000E00F20504908704C4800794C4903
:101C00000978884203D106204849487106E04748D0
:101C10000079FF2802D10020454908704648007825
:101C2000002805D042480078401C4149087000E077
:101C300000BF3E48008881B20020FFF78BFA10BD3C
:101C400010B53A484079030003F08BF807050B0EF6
:101C5000171114081A00FFF7BEFE12E0FFF7C3FECB
:101C60000FE0FFF7B3FF0CE0FFF76AFE09E0FFF7B4
:101C7000C2FE06E0FFF711FF03E0FFF751FF00E0AF
:101C800000BF00BF10BD70B504460D461646072CB8
:101C900015DA26484079A04211D000202749087063
:101CA00025490870234908702149087024490870A3
:101CB0001E48447105710A2070431C490860FFF7F3
:101CC000BFFF70BD194949794278914217D04178D8
:101CD000072914DA0021194A1170174A1170154AA0
:101CE0001170134A1170164A117041780F4A5171E0
:101CF000C178117181780A2251430C4A11607047F2
:101D000010B5072811DA00230C4C23700A4C2370FD
:101D1000084C2370064C2370094C2370034B5871F8
:101D200019710A235343014C236010BD2400001095
:101D3000200000101D0000101C0000101F000010EB
:101D40001E0000100146002204E0501CC2B20846EA
:101D50000A38C1B20A29F8DA1007000E08437047A2
:101D6000014600BFF020084000110A2358430246F4
:101D70000807000F8018C0B2704770B504460D46C2
:101D80002A462146A22001F00CFA70BD10B5044687
:101D90002146A22001F053FA10BD70B504460D464D
:101DA00016462B4632462146A22001F01CFA70BD91
:101DB00070B504460D46164633462A462146A220F3
:101DC00001F060FA70BD10B500240020FFF7DEFFBF
:101DD000044620202040002801D0DF20044080203D
:101DE0002040002801D1F720044021460020FFF7C1
:101DF000C4FF00210120FFF7C0FF7F210D20FFF766
:101E0000BCFF7F210E20FFF7B8FF10BD10B50446C0
:101E1000207A632801DD00202072E0790C2801DDA2
:101E20000120E07160791F2801DD01206071A07937
:101E3000062801DD0120A0712079172801DD00208E
:101E40002071E0783B2801DD0020E070A0783B287D
:101E500001DD0020A070207AFFF774FF2072E07986
:101E6000FFF770FFE0716079FFF76CFF6071A07998
:101E7000FFF768FFA0712079FFF764FF2071E07819
:101E8000FFF760FFE070A078FFF75CFFA070E079DB
:101E900080218843E0716079F0490870A07948702A
:101EA000E0798870207AC8700A4604210520FFF77F
:101EB00074FFA078E9490870E0784870207988704C
:101EC0000A4603210220FFF768FF10BD10B5044643
:101ED000E24A04210520FFF76BFFE0480078800606
:101EE000800EDE490870084640784007400F487071
:101EF00008468078C006C00E88700846C078C87052
:101F0000C878FFF72DFF2072D4498878FFF728FFA3
:101F1000E071D2490878FFF723FF6071CF49487814
:101F2000FFF71EFFA071CD4A03210220FFF740FFFB
:101F3000CA4800784006400EC849087008464078F4
:101F40004006400E4870084680788006800E8870F3
:101F50008878FFF705FF2071C0494878FFF700FF38
:101F6000E070BE490878FFF7FBFEA07010BD70B5A9
:101F700005460C460026607A3B2801DD0020607291
:101F8000A07A172801DD0020A072E07A1F2801DD69
:101F90000120E072207B062801DD01202073607A99
:101FA000FFF7D0FE6072A07AFFF7CCFEA072E07A55
:101FB000FFF7C8FEE072207BFFF7C4FE207301200C
:101FC000FFF7E4FE0646FD200640F72006403146B6
:101FD0000120FFF7D2FE04202840002803D0E07A39
:101FE0004006400E02E0E07A80210843E0720220C1
:101FF0002840002803D0A07A4006400E02E0A07AD4
:1020000080210843A072E807C00F002803D0607A3F
:102010004006400E02E0607A80210843607208208A
:102020002840002803D0207B4006400E02E0207BA1
:1020300080210843207302200643F7200640607A7F
:1020400086490870A07A4870E07A8870207BC87052
:102050000A4604210920FFF7A0FE31460120FFF7C0
:102060008CFE70BD10B504467C4A04210920FFF7A0
:102070009FFE7A4800784006400E7849087008466E
:1020800040788006800E4870084680788006800E72
:1020900088700846C0784007400FC8708878FFF7FE
:1020A0005FFEE0726D494878FFF75AFEA0726B49F7
:1020B0000878FFF755FE60726849C878FFF750FE50
:1020C000207310BD10B500240120FFF75FFE044609
:1020D0000C21204688430446022004432146012067
:1020E000FFF74BFE10BD10B500240120FFF74EFE98
:1020F00004460C212046884304460221204688439A
:10210000044621460120FFF738FE10BD10B500241B
:102110000120FFF73BFE0446FFF7E5FF08202040C3
:10212000002801D0012010BD0020FCE71FB50446A7
:10213000FFF7C8FF2179684641726178C172E17882
:102140008172A178017369460320FFF710FF68468A
:10215000FFF788FF6846407A217988420BD16846AC
:10216000807AE178884206D10120FFF7BBF823206E
:10217000FFF7C3F805E00020FFF7B4F82320FFF7CE
:10218000BCF81FBD1FB50446617868460172A1788E
:10219000C171E17841712179817161790171A17910
:1021A000C170E1798170FFF731FE6846FFF78EFE5E
:1021B0006846C078A179884210D168460079617973
:1021C00088420BD168464079E178884206D10120E7
:1021D000FFF788F82220FFF790F805E00020FFF7CE
:1021E00081F82220FFF789F81FBD1FB56846FFF769
:1021F0006DFE6946087AFFF775F86946C879FFF7FA
:1022000071F869464879FFF76DF869468879FFF7F4
:1022100069F869460879FFF765F86946C878FFF7F5
:1022200061F869468878FFF75DF82420FFF765F8C4
:102230001FBD10B555210F20FFF79FFD002401E0C1
:10224000601CC4B2322CFBDB0F20FFF79FFD04465D
:10225000552C01D0012010BD0020FCE72C000010FF
:1022600010B5FE48406840084000FC4948604914E9
:102270000520000700F012FD0221F94800F00EFDD4
:10228000012189020520000700F008FD0821F4481B
:1022900000F004FD0020F349087000210220FEF741
:1022A00059FF5621F04802F0E0F910BD10B50221A7
:1022B000EB4800F0F3FC012149030520000700F082
:1022C000E9FCE648406840084000401CE34948609B
:1022D00010BD10B50221E24800F0E0FC01214903E5
:1022E0000520000700F0DAFC0020DF494870DB48D9
:1022F000406840084000401CD849486010BD10B5F7
:102300000221D74800F0C6FC01214903052000073F
:1023100000F0C4FC0020D4494870D0484068400810
:102320004000401CCD49486010BD10B50221CC488A
:1023300000F0B4FC012149030520000700F0AAFCCD
:102340000020C9494870C548406840084000401C0A
:10235000C249486010BD10B50221C14800F09EFC82
:10236000012149030520000700F098FC0020BE4928
:102370000870BA48406840084000401CB7494860AF
:1023800010BD10B50221B64800F084FC01214903BC
:102390000520000700F082FCB0484068400840007B
:1023A000401CAE49486010BD10B50121490305200D
:1023B000000700F073FC0221A94800F06FFCA74859
:1023C000406840084000401CA449486010BD10B55A
:1023D000012149030520000700F05CFC0221A04810
:1023E00000F058FC9D48406840084000401C9B4954
:1023F000486010BD10B59C48C078030002F0B1FCE5
:102400000906090C0F1215181B1E2100FFF728FFE3
:1024100018E0FFF74BFF15E0FFF7B3FF12E0FFF7FF
:1024200058FF0FE0FFF76BFF0CE0FFF77EFF09E0BE
:10243000FFF791FF06E0FFF7B7FF03E0FFF7C7FFE5
:1024400000E000BF00BF10BD10B504466079FF2852
:102450000CD1207984498870A0784870E0780870A1
:102460006078C87001207F4908702DE060780928E5
:1024700006D160797C49487104207A49087023E0CC
:102480006078002802D1FFF7EBFE1DE06079FE289E
:102490001ADA6178607982007348801D815421794D
:1024A000607982007048801D10184170A1786079B1
:1024B00082006D48801D10188170E178607982007B
:1024C0006948801D1018C17010BDF0B58BB004466E
:1024D0000F46654949780846323802F0E7FA054662
:1024E000624A634B02F0FAF90022624B01910090BC
:1024F00002F042F9059104905B49487802F0EAFA4B
:1025000003910290059B049A02F0E8F90791069066
:1025100002F0EEFA80B20890534909780846323842
:1025200002F0C4FA0546514A514B02F0D7F9002295
:10253000514B0191009002F01FF9059104904A4916
:10254000087802F0C7FA03910290059B049A02F002
:10255000C5F90791069002F0CBFA80B2099009986C
:10256000844201DC012000E0002044490870089802
:10257000874201DC012000E00020414908700BB0D7
:10258000F0BD10B53748007800284ED00220FEF785
:10259000E8FD002849D033480078042830D132487B
:1025A000007981003048801D081840782E498870D5
:1025B0000846007981002C48801D081880782A4937
:1025C00048700846007981002748801D0818C078A7
:1025D000254908700846007981002348801D405C29
:1025E0002149C87008460079401C4979884201D1C8
:1025F000002002E01C480079401C1B4908710AE0D9
:1026000018480078022803D100201749C87002E05A
:10261000022014490870FFF7EDFE13488078192254
:10262000504301460220FEF795FD10BD70B51548D8
:102630000088401C0A2801D1002002E011480088CF
:10264000401C104908800846008802F027FA04461A
:102650000D49204602F051F8054617E000400140C0
:102660000000015030000010040200107B14AE473F
:10267000E17AB43F00001A400000374031000010FA
:102680003200001034000010000020411B4901F00E
:10269000F7FF04461A49487802F000FA0546214639
:1026A00002F058FA08D217480078002804D0082110
:1026B000154800F0EFFA03E00821134800F0EEFAA5
:1026C0000F49087802F0EAF90546214602F042FA7D
:1026D0000AD20E480078002806D001218902052080
:1026E000000700F0D7FA05E0012189020520000764
:1026F00000F0D4FA064801F0BBF970BD0000C842F2
:1027000004020010310000100000015032000010DF
:1027100000400140062801DA2D49087070477047D3
:10272000704710B50121C9030520000700F0B6FA73
:102730001422FF210620FFF7E3FA0620244908703F
:1027400010BD10B52348007800280ED00121C90320
:102750000520000700F0A2FA00201E490870FF21A2
:10276000F5310920FEF7F6FC0FE00920FEF7F9FC31
:1027700000280AD0012017490870C103052000076E
:1027800000F088FA06201249087010BD70477047A3
:1027900010B50F480078030002F0E3FA0604070AB8
:1027A0000D101316FFF7BBFF0FE0FFF7B9FF0CE0AA
:1027B000FFF7B7FF09E0FFF7C4FF06E0FFF7E6FF0A
:1027C00003E0FFF7E4FF00E000BF00BF10BD000022
:1027D000360000103700001003480047FEE7FEE710
:1027E000FEE7FEE7FEE7FEE7C100000010B5054882
:1027F000816B0548006801F007FF0449086010BDBF
:1028000070470000408004403C0000103800001079
:1028100010B50446F948006B8007800F002804D1EA
:10282000022C02DA0120F649C860F448806B000AE5
:102830000002E1B20843F1498863FFF7D7FF10BDFA
:1028400010B50446ED48406B80088000401CEB4901
:102850004863002C05D10846006B8008800008639F
:1028600007E0032C05D1E548006BA043801CE34939
:102870000863E248406B80088000E0494863FFF746
:10288000B5FF10BD10B5DF48C06BDF49884203D1EA
:102890002420DA49403988620020FFF7D1FF012067
:1028A000FFF7B6FF10BD002809D1D4494039496A65
:1028B000012212039143D14A403A516209E0CF49C3
:1028C0004039496A0122120391438918CB4A403AA0
:1028D0005162704700B5030002F043FA05040A068E
:1028E000080C0E00002008E0012006E0022004E0B1
:1028F000032002E0042000E000BD00BFBF4980319A
:10290000496A49084900491CBC4A80325162114653
:10291000096AC908C9004207520F1143B74A8032F9
:1029200011621146496A49084900516200BFE3E754
:10293000B2498031896A090A0902C2B21143AF4A19
:10294000803291627047B148B14908627047AB4824
:102950008030806A000A0002A84980318862232002
:102960000001AB4908627047AA49C968090A09020F
:10297000C2B21143A74AD1607047A649C031896BE2
:102980000143A44AC03291637047A249C031896BA8
:102990008143A04AC0329163704798494031096829
:1029A0000143964A403211607047944940310968AA
:1029B0008143924A403211607047904940394968DA
:1029C00081438E4A403A5160114649680143516043
:1029D000704700BFBFF34F8F8F489049C860BFF367
:1029E0004F8F00BF00BFFEE7012807D18949096961
:1029F000102291431031874A11610CE08549096921
:102A000010229143834A1161114609694022914382
:102A10004031804A1161704778484038006B7047F8
:102A2000FF20764940390863704700207C490968D7
:102A3000022291437A4A116078490969042291433C
:102A4000764A116130BF6D494039886A00216B4A6E
:102A5000403A916211468862704710B50A466D4946
:102A6000C0314860002A05D109688143694BC033F1
:102A7000196002E06749C03108606649C0310968E1
:102A800001231B049943634BC033196000210123C8
:102A90008B40644C236000BF10BD63485D49C0316A
:102AA0008860704710B55B4BC0339B6B5B06DB0FD8
:102AB000002B0CD0574BC0339B6B4024A343554C89
:102AC000C034A36300BF1346521CFF2BFBD3514BF2
:102AD000C03318635963494B5B6B9B089B005B1CBD
:102AE000464C636323461B6B9B089B009B1C236324
:102AF00023465B6B9B089B006363484B1B69042464
:102B00002343464C236130BF00BF00BF00BF00BF5E
:102B100000BF3A4B5B6B9B089B005B1C374C6363AD
:102B200023461B6B9B089B00236323465B6B9B0820
:102B30009B006363314B403B9A6A00232F4C403C1F
:102B4000A36223469A6210BD20210140002908D0CB
:102B50003049C031096B202291432E4AC0321163A3
:102B600008E02C49C031096B202291432031294AC9
:102B7000C03211632749C031096B082291430831E3
:102B8000244AC03211631146096B402291434031FF
:102B9000204AC03211632249096802229143891CEC
:102BA0001F4A11601D490969042211431B4A116122
:102BB00030BF70470160704708220168914301608F
:102BC00010220168914310310160704710220168A2
:102BD0009143016008220168914308310160704708
:102BE000FF2201320168914301607047FF220132E8
:102BF00001689143891801607047000040800440DB
:102C000000000650C007FF1F55AAAA553502000054
:102C100000400440408104400400FA0500ED00E05B
:102C20000080034000E100E0FF0F00000122D2021B
:102C3000016891438918016070470122D20201683E
:102C4000914301607047F7B503460020002400253A
:102C50000B4F3A46DE05340E00BF0EE001268640DB
:102C600035460E462E40002E05D0A601F2198600EC
:102C7000B218029E1660461CF0B21028EEDBFEBDB4
:102C800000400440026A8A4302627047026A0A43B3
:102C900002627047C2680A43C260704702690A4311
:102CA0000261704742690A434261704702465068B8
:102CB0000840002801D0012070470020FCE70146B1
:102CC000486880B2704702680A4302607047026831
:102CD0008A43026070470146486880B2704781604D
:102CE0007047436A8B434362036B0B430363002AC1
:102CF0000BD0012A02D0022A12D10DE0836A8B4345
:102D00008362C36A0B43C3620BE0836A8B438362B3
:102D1000C36A8B43C36204E0836A0B43836200E0AF
:102D200000BF00BF70470000002000BF06E0002188
:102D3000F84A1154F84A1154411CC8B20828F6DB6D
:102D40000021F64A1170F64A1160F64A1160F64AFF
:102D50001160F64A1160F64A1160F64A1170F64A9F
:102D600011607047F8B504460D461646FFF7DCFFC4
:102D7000F24949688907C90F4900022211400846F3
:102D8000EE49496891430143EC4A51601146496854
:102D90008907C90F01221143490002221140084648
:102DA000E649496891430143E44A5160E34980316F
:102DB00009688906C90F01221143490120221140E7
:102DC0000846DE498031096891430143DB4A80327D
:102DD0001160FF20D10588617D2000016843014614
:102DE000D748006801F010FC87B201208007006915
:102DF000000C000438430121890708617D2000018F
:102E000068430146CE48006801F0FEFB87B201200E
:102E100080074069000C000438430121890748619C
:102E2000002C01D10846C660002C03D04220410787
:102E3000086002E040200106086002200121814074
:102E4000C04A116000BFF8BD01218907496888B2F6
:102E50007047014601208007006808407047012143
:102E6000890708607047012189078861704701213F
:102E7000890788607047012080078068C0B270476A
:102E800030B5FFF7E1FF02464B2A01D0542A09D1A1
:102E90001020FFF7E4FF0C20A04908702920FFF75D
:102EA000E2FF30BD012080070068022108400028B1
:102EB00070D01D218901104688430246D0B21028E7
:102EC00037D004DC012807D00B286FD142E014284A
:102ED00075D01D28F9D1AEE095480068012813D1BE
:102EE000002093490860904908608A490978491C84
:102EF000C8B2FFF7BCFF8D480068401C8B490860D2
:102F00002920FFF7B0FF13E00020884908608649B8
:102F100008600120FFF7A3FF7E490878FFF7A7FFAD
:102F200082480068401C814908602820FFF79BFF09
:102F3000B5E000207C4908607C490B680968491CA1
:102F40007A4C21607349C85CFFF791FF2820FFF796
:102F50008AFFA4E0012080070068C007C00F002896
:102F600019D070480068012806D11020FFF777FFBC
:102F700007206A49087009E06C490B680968491C18
:102F80006A4C21606349C85CFFF771FF0820FFF7B6
:102F90006AFF13E084E064480068401C60490968E7
:102FA000884205D20420FFF75AFF04E070E006E0F3
:102FB0000420FFF758FF2820FFF755FF6FE05B481C
:102FC00000685849096888420AD258490B6809685C
:102FD000491C564C21604F49C85CFFF748FF26E06A
:102FE0004F48006800281CD00020514908604E4915
:102FF000086050480078002809D046490978491CE3
:10300000C8B2FFF734FF2020FFF729FF05E0414950
:103010000978491CC8B2FFF72AFF0920FFF723FFF0
:103020003DE01020FFF71BFF0C203C4908700820F2
:10303000FFF719FF33E0FFF71EFF3B490B680968F4
:10304000491C394C21603449C85420460068401C52
:1030500033490968884206D20420FFF700FF0820A0
:10306000FFF701FF13E001208007006804210840FA
:10307000042803D10C20FFF7F6FE08E00C202749B6
:1030800008701020FFF7EBFE0820FFF7ECFE06E0CB
:103090000A20224908700820FFF7E5FE00BF7EE005
:1030A0000023FF200130104000284DD000201F4990
:1030B00008601D490860FFF7DEFE03460120800717
:1030C000C068984203D100201B49086019E0012024
:1030D0008007006A984203D101201749086010E078
:1030E00001208007406A984203D1022012490860FB
:1030F00007E001208007806A984202D103200E4930
:1031000008600420FFF7ABFEFF20013081058861D5
:1031100041E0000040000010480000105000001086
:1031200054000010580000105C00001060000010F7
:1031300064000010680000106C0000100080044063
:103140003800001000E100E001204002104000289B
:103150000FD0012080078068C1B2814804680068F0
:10316000401C7F4D28607F4801550420FFF777FE03
:1031700011E001208002104000280CD07A4800782D
:1031800001218907886078480078401C76490870DA
:103190000420FFF764FE2820C106886100BF00BF3D
:1031A0007FE630B503460C466E480370447082706B
:1031B00000206E4908706E49086003206D49086060
:1031C0002020FFF74CFE00206B49087000BF6A48C2
:1031D00000780C28FBD1FF2500BF2846691ECDB220
:1031E0000028FAD130BDF0B504460D4616465D48BC
:1031F00004704570002205E0B05C5A49971CC85520
:10320000501CC2B29A42F7DB002058490870584956
:103210000860981C574908602020FFF720FE002016
:103220005549087000BF544800780C28FBD1FF2294
:1032300000BF1046511ECAB20028FAD1F0BD10B529
:1032400002460B4647480270437002204949086015
:10325000012047490860454908702020FFF7FFFD1D
:1032600000204549087000BF434800780C28FBD176
:10327000FF2400BF2046611ECCB20028FAD13F488F
:10328000007810BD70B505460E46144635480570E9
:1032900046700220374908603548046001203349F0
:1032A00008702020FFF7DBFD00203349087000BFC5
:1032B000314800780C28FBD1002204E02F48805CC4
:1032C0009854501CC2B2A242F8DBFF2200BF104645
:1032D000511ECAB20028FAD170BD10B502460B4685
:1032E000204802704370002020490870204908607F
:1032F0000220204908602020FFF7B1FD00201E4970
:10330000087000BF1C4800780C28FBD1FF2400BFC8
:103310002046611ECCB20028FAD110BD00B502468D
:1033200010480270012013490860114908600F49D4
:103330000870134908602020FFF791FD00200E4916
:10334000087000BF0C4800780C28FBD1FF2300BF99
:103350001846591ECBB20028FAD10848007800BDA3
:1033600060000010400000107000001068000010A5
:1033700054000010580000105000001048000010C9
:1033800064000010F8B506460C4615461F46FE4878
:1033900000680121490488434018FB490860FB4844
:1033A0000068602188436101602211400843F749A9
:1033B0000860F64840308068022188436900022294
:1033C00011400843F1494031886008468068042173
:1033D0008843A900042211400843EC494031886029
:1033E0000846806808218843E90008221140084304
:1033F000E649403188600846806849158843E349BA
:10340000403188600846806820218843DF49403188
:1034100088600846806809158843DC494031886027
:103420000846806840218843D84940318860084672
:103430008068C9148843D54940318860084680684F
:1034400080218843D14940318860084680689102D4
:1034500088437903920211400843CC494031886087
:10346000012F10D10120A04070430146C8480068D8
:1034700001F0CAF8C549486108460068C914884384
:10348000C249086011E00120A04070430146C048D5
:10349000006801F0B9F84008BC4948610846006876
:1034A000C91488434018B9490860B8484030006AD8
:1034B00040084000B549403108620846006A0221D0
:1034C0008843B249403108620846006A04218843B3
:1034D000AE49403108620846006A08218843AB497A
:1034E000403108620846006A10218843A7494031EC
:1034F00008620846006A20218843A44940310862D6
:10350000A2480068802188438030A04908600846AE
:1035100000688915884340189C490860084600687F
:103520004915884340189949086098484030406AD6
:10353000000C00049549403148629448006802211B
:103540008843801C91490860F8BD8F4800680121BC
:10355000490488438C49086070478C4909680F22E8
:103560001203914302030F231B031A401143874A9E
:1035700011607047F8B507460C4600254CE0012065
:10358000A84006463E40002E44D02B0001F0E9FB47
:1035900006040E18222C36407C49496961430846CE
:1035A000642101F031F87949886132E0774949694D
:1035B00061430846642101F027F87449C86128E096
:1035C0007249496961430846642101F01DF86F4959
:1035D00008621EE06D49496961430846642101F0B3
:1035E00013F86A49486214E068494969614308462A
:1035F000642101F009F8654988620AE06349496974
:1036000061430846642100F0FFFF6049C86200E0A2
:1036100000BF00BF681CC5B2062DB0DB5B48006868
:1036200002218843801C59490860F8BD1421414398
:10363000564A9163704714214143544AD1637047FD
:1036400030B5002804D0012816D002283ED128E049
:103650004E4B5B685B085B00CC07E40F23434B4C8D
:10366000636023465B680224A343540002252C4078
:103670002343464C63602AE0444B5B680424A34325
:103680008C0004252C402343404C636023465B6838
:103690000824A343D40008252C4023433B4C6360FB
:1036A00015E03A4B5B681024A3430C0110252C4015
:1036B0002343364C636023465B682024A3435401B4
:1036C00020252C402343314C636000E000BF00BF45
:1036D00030BD2E48806840084000401C2B4988605F
:1036E0000846806802218843801C28498860084673
:1036F000806804218843001D24498860704723485E
:10370000006840084000401C204908601F484030C5
:10371000C068402188431D494031C8600846C068E0
:103720008021884319494031C8600846C06889151E
:10373000884316494031C8600846C0684915884327
:1037400012494031C8600846C068091588430F49CE
:103750004031C8600846C068C91488430B494031ED
:10376000C8600A480068890488434018074908600F
:10377000084600680121490688434018034908604B
:1037800008460068012105E08080044000C0044034
:10379000380000108906884340187D4908600846B3
:1037A00000680121C9068843401879490860084625
:1037B00000680121090788434018754908600846D8
:1037C0000068012149078843401871490860704822
:1037D000403040691021884310306D4940314861C4
:1037E0006B48006802218843801C69490860704763
:1037F00067480068400840006549086064484030F8
:10380000C06840218843403061494031C860084663
:10381000C0688021884380305D494031C8600846D7
:10382000C06889158843401859494031C860084626
:10383000C06849158843401855494031C86008465A
:10384000C06809158843401851494031C86008468E
:10385000C068C914884340184D494031C8604C487D
:103860000068890488434A490860084600680121C5
:1038700049068843464908600846006801218906D0
:10388000884343490860084600680121C906884307
:103890003F490860084600680121090788433C4900
:1038A00008600846006801214907884338490860D4
:1038B00037484030406910218843354940314861DC
:1038C0003348006802218843801C314908607047F2
:1038D0002F4909680822914308312D4A1160114689
:1038E0000968D2149143C2020123DB021A4011433A
:1038F000274A1160704700B50146002045E00122CB
:1039000082400A40002A3ED0030001F02AFA060451
:103910000D161F28313A1E4A126801231B069A43CE
:10392000D2181B4B1A602DE0194A126801235B065E
:103930009A43D218164B1A6024E0154A12680123E4
:103940009B069A43D218124B1A601BE0104A126869
:103950000123DB069A43D2180D4B1A6012E00C4A81
:10396000126801231B079A43D218094B1A6009E019
:10397000074A126801235B079A43D218044B1A6066
:1039800000E000BF00BF421CD0B20628B7DB00BD7C
:1039900000C0044070B504460D46F948844217D172
:1039A000F8480068802188438030F6490860F5486F
:1039B0008038406820218843F249803948600846B1
:1039C0004068202188432030EE49803948601BE060
:1039D000ED48844217D1EB480068A1158843401890
:1039E000E8490860E7488038406840218843E54955
:1039F0008039486008464068402188434030E149AA
:103A00008039486000E070BDE0480068854201D917
:103A1000DE4805682946DD48006800F0F5FD86B2FD
:103A2000E068000C00043043E060E16888B2E168BF
:103A3000090C09040143E16000BFE4E710B58369A4
:103A40001B0C1B044C1EA4B223438361426110BDB6
:103A50000269120C12048BB21A43026170470169A9
:103A6000090C0904016170470146086980B270477A
:103A7000016849084900491C0160704741694908CB
:103A80004900491C41617047416949084900416149
:103A9000704770B504460D46BD48844217D1B948F9
:103AA0000068611588434018B6490860B5488038F9
:103AB000406880218843B34980394860084640689F
:103AC000802188438030AF49803948601BE0B1488D
:103AD000844217D1AB480068211588434018A94992
:103AE0000860A8488038406889158843A54980390E
:103AF000486008464068891588434018A1498039C4
:103B0000486000E070BDA1480068854201D99F4827
:103B1000056829469D48006800F076FD86B2E06899
:103B2000000C00043043E06000BFEBE7026FD208F6
:103B3000D2004B075B0F1A430267704730B5036F23
:103B4000F024A3434C01F0252C4023430367002AB3
:103B50000AD1046F2406240F641C24012C40234640
:103B6000046FAC431C430467036F0824A34308336A
:103B7000036730BD10B5026F0F231B029A430B027F
:103B80000F24240223401A43026710BD30B5036F8F
:103B90000F242403A3430C030F252D032C402343A0
:103BA0000367036F01242404A343140401252D0497
:103BB0002C402343036730BD70B58469240C240472
:103BC0004D1EADB22C4384614469E408E4005507FE
:103BD0006D0F2C434461C46B3025AC431D0130266E
:103BE00035402C43C463C46B64086400641CC46324
:103BF00070BD70B5C469240C24048DB22C43C4611B
:103C000044693825AC435507AD0E2C434461C46B61
:103C1000C025AC439D01C02635402C43C463C46B12
:103C20000225AC43A41CC46370BD70B5046A240CA7
:103C300024048DB22C4304624469FF25C135AC4392
:103C40005507ED0D2C434461C46B03252D02AC4395
:103C50001D020326360235402C43C463C46B042581
:103C6000AC43241DC46370BD70B5C469240C240426
:103C70008DB22C43C461446907256D02AC435507DE
:103C80002D0D2C434461C46B0325AD02AC439D0252
:103C90000326B60235402C43C463C46B0825AC43ED
:103CA0000834C46370BD10B500290ED0012902D0BC
:103CB00002291FD113E0836A5B085B005B1C8362EF
:103CC000836A0224A343836215E0836A5B085B0076
:103CD0008362836A0224A3439B1C83620BE0836A92
:103CE0005B085B005B1C8362836A0224A3439B1C0A
:103CF000836200E000BF00BF042A05D1836A042468
:103D0000A3431B1D836203E0836A0424A3438362ED
:103D100010BD10B500290ED0012902D002291FD1F3
:103D200013E0836A0824A34308338362836A102460
:103D3000A343836215E0836A0824A3438362836AF2
:103D40001024A343103383620BE0836A0824A34347
:103D500008338362836A1024A3431033836200E034
:103D600000BF00BF042A05D1836A2024A343203367
:103D7000836203E0836A2024A343836210BD0000B2
:103D800000000140808004400040014038000010E5
:103D90000080014000C0014010B500290ED001296B
:103DA00002D002291FD113E0836A4024A343403389
:103DB0008362836A8024A343836215E0836A40247C
:103DC000A3438362836A8024A343803383620BE02E
:103DD000836A4024A34340338362836A8024A343DD
:103DE0008033836200E000BF00BF042A05D1836AEC
:103DF0009401A3431B19836204E0836AFF24013406
:103E0000A343836210BD10B500290FD0012902D051
:103E1000022922D115E0836A01246402A3431B19FD
:103E20008362836A6400A343836217E0836A012488
:103E30006402A3438362836A6400A3431B19836201
:103E40000CE0836A01246402A3431B198362836A22
:103E50006400A3431B19836200E000BF00BF042A73
:103E600005D1836A5402A3431B19836204E0836A69
:103E70000124E402A343836210BD0146C86A80B2F4
:103E800070470146086B80B270470146486B80B2AC
:103E900070470146886B80B270478268120C12042A
:103EA0008BB21A4382607047416802229143891C99
:103EB000416041689143416070470146886880B223
:103EC0007047FF210160704742690A4342617047B1
:103ED00042698A434261704770B5049C85692D0C24
:103EE0002D0496B235438561C5692D0C2D049EB213
:103EF0003543C561056A2D0C2D04A6B23543056214
:103F0000456A2D0C2D048EB235434562456F6D0810
:103F10006D006D1C4567456F0226B543AD1C4567B6
:103F2000456F0426B5432D1D456770BDFFB581B0B3
:103F3000044616461D46B148844220D1072000F0B1
:103F400055F9AF480068A11488434018AC4908608F
:103F500008468069000A0002401C8861A848803831
:103F6000406804218843A649803948600846406873
:103F700004218843001DA2498039486025E0A148FA
:103F8000844220D1082000F031F99D480068611476
:103F9000884340189A4908600846C069000A000230
:103FA000401CC8619648803840680821884394497D
:103FB00080394860084640680821884308309049A5
:103FC0008039486001E005B0F0BD8F480299006873
:103FD00000F01AFB07033F0B2069000D0005384372
:103FE0002061022E0AD1A068F10188434018A06028
:103FF000A068490088434018A06010E0012E09D154
:10400000A06831028843A060A06849008843401836
:10401000A06004E0A068012149028843A060022D4D
:1040200005D1A06802218843801CA0600EE0202DED
:1040300005D1A068202188432030A06006E0082D2B
:1040400004D1A068082188430830A060A06801213D
:10405000C90588434018A060A068491088434018EB
:10406000A060FF20606100BFADE7C168FF2211437F
:10407000C16070478168090A09028160704710B504
:1040800004465E48844209D1072000F0AFF85C483E
:104090000068A11488435A4908600DE059488442D9
:1040A00009D1082000F0A2F855480068611488433F
:1040B0005349086000E010BD2046FFF7DBFF2046B3
:1040C000FFF7D3FF00BFF6E7024650688007C00F36
:1040D000002803D010680870002070470120FCE71A
:1040E00030B5002304E004680C70491C5C1CE3B28A
:1040F0004468A407E40F002C04D015786C1E1470DB
:10410000002DF0D1137030BD024600BF506840074B
:10411000C00F0028FAD11068000A0002CBB2184381
:1041200010600020704770B50346002400BF0EE009
:1041300000BF58684007C00F0028FAD10878491C12
:104140001D682D0A2D0205431D60601CC4B29442F7
:10415000EED3002070BD30B50CE000BF43685B07B4
:10416000DB0F002BFAD10B78491C0468240A2402C7
:104170001C4304601346521E002BEED130BD08E0F4
:1041800000BF42685207D20F002AFAD10A780260B3
:10419000491C0A78002AF3D1704710B50A4600BFBF
:1041A0001107090F092903DD0B463733D9B202E0A5
:1041B0000B463033D9B200BF43685B07DB0F002BDF
:1041C000FAD103681B0A1B02CCB223430360130914
:1041D000002BE5D010BD82680A438260704701461B
:1041E0004868C0B27047FF2141617047C206D20ED5
:1041F00001219140054A1160704700000080004095
:104200008080044000C000403C00001080E100E0DD
:1042100070B50546A348806B10218843A149886387
:10422000A148006801218903884340189E4908601D
:104230009D48803840680121090388439A498039A4
:1042400048600846406801210903884340189649A0
:10425000803948609548854200D905462D01294698
:104260009348006800F0D0F904462046684390491E
:104270000968884206D08F4860438D4909688842A2
:1042800000D2641C8C480068FF2109028843210287
:10429000FF2212021140084387490860FF2600BF31
:1042A0003046761E0028FBD183480068012149076B
:1042B000884340188049086000BF7F48006B800237
:1042C000C00F0028F9D070BD00207B49C860401E97
:1042D00008637448806B10218843103071498863EB
:1042E000714800680121890388436F49086070475D
:1042F00030B5714B1B6801242404A3430404012539
:104300002D042C4023436C4C2360012807D1234605
:104310001B680F242406A343674C236016E0664BFA
:104320001B680F242406A3430C060F252D062C40E2
:104330002343614C236023461B68E402A343140714
:1043400001252D072C4023435B4C236000BF5A4BB3
:104350001B6B9B02DB0F002BF9D030BD10B5564A0A
:10436000526B120B120303051B0D1A43524B5A6377
:104370001A46526B07231B039A430B03072424039B
:1043800023401A434C4B5A6310BD10B54A4A526B36
:104390004A4B1A400304494CE44323401A43464B1A
:1043A0005A631A46526B07231B079A430B070724CD
:1043B000240723401A43404B5A6310BD10B53E4AB0
:1043C000926B120B120303051B0D1A433A4B9A63AF
:1043D0001A46926B07231B039A430B0307242403FB
:1043E00023401A43344B9A6310BD10B5324A926B86
:1043F000324B1A400304314CE44323401A432E4B02
:104400009A631A46926B07231B079A430B070724EC
:10441000240723401A43284B9A6310BD2649C860DD
:1044200070470146244810308B00C2581005000D1B
:10443000704710B5204A926884000F23A3409A4326
:104440001D4B9A601A46926884000B46A3401A439B
:10445000194B9A6000BF184A126B9202D20F002AC1
:10446000F9D010BD144A12680243D1B2124A126840
:10447000120A12020A43104B1A6070470E4A126861
:104480008243D1B20C4A1268120A12020A430A4B42
:104490001A60704700BF0848006B8002C00F0028F8
:1044A000F9D07047008204408080044040420F00F1
:1044B000380000100024F40000000240FFFF00F06C
:1044C0004E4800680121C903884340184B490860E1
:1044D00070474A4800680121C9038843474908607A
:1044E0007047474A5269920A920283059B0D1A430C
:1044F000434B5A610902090AFF2900D89915404A1D
:104500009269120E12060B021B0A1A433C4B9A6167
:1045100070473B488068000A0002AA30384988602A
:1045200008468068000A0002553088607047FF2105
:10453000F531334A5268120E120603021B0A1A435F
:104540002F4B5A6000BF0A46491E002AFBD1704714
:1045500070B504460025FF26F53628488038406AA5
:10456000C004C00F002801D0B50101E0254805684E
:104570002146694308467D21C90000F045F88508B9
:104580001F484068000E00062902090A08431C491A
:10459000486000BF3046761E0028FBD170BD184829
:1045A0000068022188431649086070471448006873
:1045B000042188431249086008460068082188439E
:1045C00008300F49086070470D48C06870470C48B4
:1045D00000682021884320300949086008460068A7
:1045E0004021884340300649086008460068802121
:1045F0008843803002490860704700008080044092
:10460000004000403C00001030B50B460146002041
:104610002022012409E00D46D5409D4205D31D46C8
:104620009540491B2546954040191546521E002DC0
:10463000F1DC30BD70B500242546002801DA0124E4
:104640004042002901DA01254942FFF7DDFFAC4273
:1046500000D04042002C00D0494270BDD2B201E0EF
:104660000270401C491EFBD270470022F6E710B5CD
:1046700013460A4604461946FFF7F0FF204610BDD0
:10468000024670B54A40D30FDB0740002DD04A00E8
:104690002AD0010E140E000212020919400A520A11
:1046A0008418E50104465443000A120A2E045043BC
:1046B000A4194219200CC543AA18120C0125AD03F8
:1046C000521C521912047F39240400D0521C10438A
:1046D00001D44000491EC2B20C06C0092018401C7B
:1046E0004008802A02D003E0002070BD400840004E
:1046F000002900DA0020184370BD70B502464A4018
:10470000D50F40004A00ED0740085208002814D099
:10471000002A12D0C40DD30D41020120C00552025F
:10472000490A520AE41A091812187D34914201D339
:10473000641C00E04900002C01DA002070BD002359
:10474000914201D3891A0343400849000028F7D158
:1047500000290AD0914202D10121C90705E0914206
:1047600001D2012101E00121C943E005C01840192F
:1047700000F02EFA70BD0000F0B50746084658401C
:1047800087B0C00F049048000E4659004008490801
:10479000BC1A884105D2384631461E4617460B469C
:1047A00002465800400810434CD0300D039040059D
:1047B0005900400D490D0590401A0290402872DAC8
:1047C00018030121000B0905084301900498009289
:1047D000002805D0019952420020884100920190A2
:1047E000029840210A1A0199009800F0BDF9054687
:1047F0000C466B4607CB00F0D8F9C0197141039AFB
:104800000E0D0023D71756401A467A40164344D05F
:10481000049A002A2DD0029A012A039A15DC120567
:10482000C01A914101263605001C7141D20F059E28
:10483000D2070093019202962A46234600F016FA08
:1048400007B0F0BD38463146FAE71605224A0F4652
:10485000B218C01AB74101210905001C4F410018C8
:104860007F41114618187941E20F10436D196441D8
:1048700013E0E2076D0815436408C2071443039A66
:1048800001261205C01A91413605001C7141CE0760
:10489000400830434908C01851412A46234600F0D9
:1048A000D8F9CDE7FFE7049801224000C117121A9A
:1048B00000238B4104983146C417381AA141EEE712
:1048C00030B40124E407634030BC55E730B4012420
:1048D000E407614030BC4FE70000E0FFF0B51FB4D3
:1048E00088B00B990998002448400999C00F4900E5
:1048F00049080991C0070B990090490049080B919C
:1049000009990898A64608431CD00B990A980843B1
:1049100018D0099801244000420D4800410D099823
:1049200024050003000B204309900B980003000BA3
:1049300020430B9050181C49401800220190144647
:10494000104605E0002001460DB0F0BD032801DA55
:10495000034600E003239C46C11A0AAE0AE05F004A
:1049600008ADED5B4F00F75B7D430027AA187C4143
:10497000491C5B1E6145F2DD410004AB5A52210423
:10498000120C0A43240C401C0828DFDB019802901B
:104990000099704601910090059B049A079906982A
:1049A00000F064F9D0E700000DFCFFFFF0B50C4605
:1049B0005C4085B0E40FE40703944C0000266408D3
:1049C00059009446490802460296224321D0624685
:1049D0000A431ED06200570D4A000E032303550DF3
:1049E000012402462C492405781B1B0B360B40186A
:1049F00023432643614600901C46501AB44103D31A
:104A00000098401C009002E0921800985B4100283A
:104A100003DA0020014605B0F0BD002001210905A0
:104A20000746864611E064461D46141BB54106D371
:104A30006546521BB341744607430C43A646CD0757
:104A400040084908284392185B4105460D43EAD1C6
:104A50001046184313D06046194650407140084331
:104A600006D06046101AB34106D20122002306E0A8
:104A700000220123DB0702E00122D24353100098F9
:104A800074460105381C6141029C039D001969416F
:104A900000F0DFF8BFE70000FD03000010B50022C2
:104AA0009623114600F09CF810BD00000EB5C21709
:104AB000C10F5040CA0740180021054B02930192D4
:104AC00000910A460B4600F0D1F803B000BD00008B
:104AD000330400000EB505490291002100910A46F9
:104AE0000B46019100F0C2F803B000BD3304000092
:104AF0004A0009030123090B1B051943094B10B593
:104B0000520D9A4201DA002010BD064B34339A420E
:104B100003DC9A1A00F038F810BD03495118884098
:104B200010BD0000FF030000CDFBFFFF10B5002902
:104B300004DB0124E40740428C412146002B04DBC6
:104B40001C460123DB075242A341994200D1904207
:104B500010BD00000122D207002800DB101A002936
:104B600000DB511A8842704710B5202A04DB014649
:104B7000203A9140002010BD914020239C1A03460A
:104B8000E3401943904010BD10B5202A04DB0846CD
:104B9000203AD040002110BD0B46D340D040202405
:104BA000A21A91400843194610BD10B5202A06DB11
:104BB000CB170846203A1041C1170B4306E00B46BD
:104BC0001341D0402024A21A91400843194610BD39
:104BD000002904DA401C490001D140084000704718
:104BE00070B40024050C05D11024000402D1002962
:104BF00021D01124050E01D100020834050F01D186
:104C00000001241D850F01D18000A41C002801DBB8
:104C10004000641C002908D020252E1B0D46F540BD
:104C2000A14000D001212943084301061B1B000AB3
:104C3000DB1D02D5002070BC7047DB0518188018FA
:104C40000029F8DA401C4900F5D170BC400840004A
:104C5000704710B5002B08DA0024401C61419218FF
:104C60005B411A4301D14008400010BDF0B51FB4AC
:104C700082B005460C0003D0084600F05BF802E065
:104C800000F058F820300246009021462846FFF7F1
:104C90006BFF049B059A04460F46184311430843D3
:104CA00014D0184610431BD0009840210A1A184609
:104CB0000599FFF769FF05460E46009A0599049885
:104CC000FFF752FF084305D0012004E02046394693
:104CD00007B0F0BD0020C11705430E432C433743F6
:104CE00000990E986305401A7905E40A00220C43E6
:104CF000FD0A0A3002D500200146E9E70105101936
:104D000069410C9C0D9D00196941FFF7A2FFDFE787
:104D1000064C0125064E05E0E36807CC2B430C3C0E
:104D200098471034B442F7D3FBF7CEF99C4D0000FE
:104D3000BC4D00002021020C01D010211046020AB7
:104D400001D010460839020901D01046091F820817
:104D500001D01046891E420801D0881E7047081AEB
:104D6000704730B47446641E2578641CAB4204D38B
:104D7000635D5B00E31830BC18471D46F8E702E0AE
:104D800008C8121F08C1002AFAD1704770470020D6
:104D900001E001C1121F002AFBD17047BC4D000089
:104DA00000000010740000007E4D0000304E000036
:104DB00074000010EC0300008E4D00000204060099
:104DC000000064003C0001000000000000036801D6
:104DD00006000000000000000000000000000000CD
:104DE00000000000000000000000000000000000C3
:104DF00000000601006CDC02006CDC020000000018
:104E000000000000000000000000000000000000A2
:104E10000000000000000000000000000000000092
:104E20000000000000000000000000000000000082
:04000005000000C136
:00000001FF
