:020000040000FA
:1000000060020010F9030000FD030000FF03000080
:1000100000000000000000000000000000000000E0
:1000200000000000000000000000000001040000CB
:1000300000000000000000000304000005040000B0
:100040000704000007040000750A0000B503000063
:100050000704000007040000070400000704000074
:100060000704000007040000070400000704000064
:1000700007040000070400000F030000070400004D
:10008000070400000704000000000000000000005A
:100090000000000000000000000000000000000060
:1000A0000000000000000000000000000000000050
:1000B0000000000000000000000000000000000040
:1000C0000348854601F00AFA004800470F01000086
:1000D0006002001010B511480078C007C00F00285A
:1000E00012D00F480078002807D108210D4800F0F1
:1000F000C7FB01200A49087006E00821094800F002
:10010000BBFB00200649087000F0E2F810BD00F0CB
:10011000C4F801E0FFF7DEFFFCE70000000000107C
:100120000200001000000250FFB581B00F461646D5
:100130000120000400F041FA082100988843009053
:1001400010210098884310300090202100988843A7
:1001500000904021009888430090802100988843B7
:100160000090490000988843009049000098884317
:10017000401800904900009888430090490000987A
:10018000884300900198012804D0022806D0042852
:1001900010D109E0052424070C250CE0474C0D255F
:1001A000A00300F00AFA06E0454C0E25A00300F07B
:1001B00004FA00E000BF00BF0098C008C00071074B
:1001C000490F084300903946009A019800F016FB49
:1001D000F0203040002800D00026002E2ED10498B8
:1001E00000280ED03946204600F042FB0A9800282D
:1001F00003D0E0683843E06020E0206938432061A4
:100200001CE000BFE906C90E012088402D490860A6
:1002100000BF3946204600F027FB0A98002805D089
:1002200001223946204600F056FB04E00022394600
:10023000204600F050FB284600F037F805B0F0BD2E
:1002400008B5012000231A46022100900420FFF780
:100250006BFF002001231122082100900420FFF7EA
:1002600063FF08BD10B51849184800F085FE17480F
:1002700000F0E7FE02226421144800F0D1FE13488A
:1002800000F0EEFE032000F010F81048406840082F
:100290004000401C0D49486010BD10B500F002F947
:1002A000FFF7CEFFFFF7DEFF10BDC206D20E012121
:1002B0009140044A803A11607047000000000150EC
:1002C0000000025080E100E0A08601000000014033
:1002D00020480088400840001E49088008460088E1
:1002E000042188431B49088008460088022188436E
:1002F0001849088008460088082188431549088065
:10030000084600881021884312490880704710B5BC
:10031000114800F0DCFA012802D002280ED106E0D4
:100320000C480088042108430A49088007E009486E
:100330000088012108430749088000E000BF00BF92
:10034000054800F0C4FA04462146034800F0BBFA11
:1003500010BD000000000010000002504200234BBE
:1003600099524200224B99527047014648001F4A59
:10037000105A4A001E4B9A5A904205DD48001A4610
:10038000105A4A00194B98524800184A105A00282F
:1003900001D1012070470020FCE710B5044621463A
:1003A0000720FFF7DBFF00BF0720FFF7DEFF002875
:1003B000FAD010BD10B5002400BF10E060000B495A
:1003C000085A002806DD6000085A401E6100074AEE
:1003D000505203E000206100044A5052641C082C73
:1003E000ECD3044800F036FE10BD000040000010C1
:1003F000500000100000014003480047FEE7FEE700
:10040000FEE7FEE7FEE7FEE7C100000010B5054885
:10041000816B0548006801F04BF80449086010BD85
:1004200070470000408004400800001004000010E5
:1004300010B50446F748006B8007800F002804D1F0
:10044000022C02DA0120F449C860F248806B000AED
:100450000002E1B20843EF498863FFF7D7FF10BD00
:1004600010B50446EB48406B80088000401CE94909
:100470004863002C05D10846006B800880000863A3
:1004800007E0032C05D1E348006BA043801CE14941
:100490000863E048406B80088000DE494863FFF74E
:1004A000B5FF10BD10B5DD48C06BDD49884203D1F2
:1004B0002420D849403988620020FFF7D1FF01206D
:1004C000FFF7B6FF10BD002809D1D2494039496A6B
:1004D000012212039143CF4A403A516209E0CD49CB
:1004E0004039496A0122120391438918C94A403AA6
:1004F0005162704700B5030001F002F805040A06D6
:10050000080C0E00002008E0012006E0022004E0B4
:10051000032002E0042000E000BD00BFBD4980319F
:10052000496A49084900491CBA4A80325162114659
:10053000096AC908C9004207520F1143B54A8032FF
:1005400011621146496A49084900516200BFE3E758
:10055000B0498031896A090A0902C2B21143AD4A21
:10056000803291627047AF48AF4908627047A9482E
:100570008030806A000A0002A64980318862232008
:100580000001A94908627047A849C968090A090217
:10059000C2B21143A54AD1607047A449C031896BEA
:1005A0000143A24AC03291637047A049C031896BB0
:1005B00081439E4AC0329163704796494031096831
:1005C0000143944A403211607047924940310968B2
:1005D0008143904A4032116070478E4940394968E2
:1005E00081438C4A403A5160114649680143516049
:1005F000704700BFBFF34F8F8D488E49C860BFF36F
:100600004F8F00BF00BFFEE7012807D18749096966
:10061000102291431031854A11610CE08349096928
:1006200010229143814A1161114609694022914388
:1006300040317E4A1161704776484038006B704700
:10064000FF2074494039086370477B4800680221E5
:1006500088437949086077480069042188437549CF
:10066000086130BF704710B50A467049C031486014
:10067000002A05D1096881436C4BC033196002E040
:100680006A49C0310860002101238B406B4C236014
:1006900000BF10BD6A486549C0318860704710B519
:1006A000624BC0339B6B5B06DB0F002B0CD05F4BA8
:1006B000C0339B6B4024A3435C4CC034A36300BF96
:1006C0001346521CFF2BFBD3584BC033186359639E
:1006D000504B5B6B9B089B005B1C4E4C636323463B
:1006E0001B6B9B089B009B1C236323465B6B9B0837
:1006F0009B0063634F4B1B69042423434D4C2361D0
:1007000030BF00BF00BF00BF00BF00BF414B5B6BED
:100710009B089B005B1C3F4C636323461B6B9B0841
:100720009B00236323465B6B9B089B00636310BDA8
:1007300020210140002908D03C49C031096B20220A
:1007400091433A4AC032116308E03849C031096B1D
:10075000202291432031354AC03211633349C031E0
:10076000096B082291430831304AC03211631146A7
:10077000096B4022914340312C4AC03211632E490B
:10078000096802229143891C2B4A11602949096991
:1007900004221143274A116130BF7047016070473E
:1007A00008220168914301601022016891431031D1
:1007B00001607047102201689143016008220168BE
:1007C0009143083101607047FF2201320168914373
:1007D00001607047FF22013201689143891801606E
:1007E00070470122D2020168914389180160704765
:1007F0000122D2020168914301607047F7B50346B8
:10080000002000240025084F3A46DE05340E00BFC4
:1008100027E000004080044000000650C007FF1F92
:1008200055AAAA553502000000400440408104400A
:100830000400FA0500ED00E00080034000E100E064
:10084000FF0F00000126864035460E462E40002E42
:1008500005D0A601F2198600B218029E1660461C49
:10086000F0B21028EEDBFEBD026A8A4302627047D6
:10087000026A0A4302627047C2680A43C260704754
:1008800002690A430261704742690A434261704744
:10089000024650680840002801D00120704700201F
:1008A000FCE70146486880B2704702680A4302606C
:1008B000704702688A43026070470146486880B208
:1008C000704781607047C26B0A43C263704701463C
:1008D000886B80B27047436A8B434362036B0B4360
:1008E0000363002A0BD0012A02D0022A12D10DE0A4
:1008F000836A8B438362C36A0B43C3620BE0836AE0
:100900008B438362C36A8B43C36204E0836A0B43F5
:10091000836200E000BF00BF70470000002000BFFE
:1009200006E00021F84A1154F84A1154411CC8B29B
:100930000828F6DB0021F64A1170F64A1160F64AE3
:100940001160F64A1160F64A1160F64A1160F64AE3
:100950001170F64A11607047F8B504460D46164608
:10096000FFF7DCFFF24949688907C90F49000222F5
:1009700011400846EE49496891430143EC4A5160F1
:10098000114649688907C90F012211434900022213
:1009900011400846E649496891430143E44A5160E1
:1009A000E349803109688906C90F012211434901D1
:1009B000202211400846DE498031096891430143F5
:1009C000DB4A80321160FF20D10588617D20000163
:1009D00068430146D748006800F06AFD87B20120ED
:1009E00080070069000C0004384301218907086171
:1009F0007D20000168430146CE48006800F058FDA4
:100A000087B2012080074069000C000438430121AF
:100A100089074861002C01D10846C660002C03D02C
:100A200042204107086002E04020010608600220E1
:100A300001218140C04A116000BFF8BD0121890732
:100A4000496888B270470146012080070068084065
:100A50007047012189070860704701218907886173
:100A600070470121890788607047012080078068EE
:100A7000C0B2704730B5FFF7E1FF02464B2A01D004
:100A8000542A09D11020FFF7E4FF0C20A049087078
:100A90002920FFF7E2FF30BD012080070068022116
:100AA0000840002870D01D21890110468843024665
:100AB000D0B2102837D004DC012807D00B286FD122
:100AC00042E0142875D01D28F9D1AEE095480068A1
:100AD000012813D1002093490860904908608A4991
:100AE0000978491CC8B2FFF7BCFF8D480068401C5C
:100AF0008B4908602920FFF7B0FF13E000208849E8
:100B00000860864908600120FFF7A3FF7E49087846
:100B1000FFF7A7FF82480068401C81490860282031
:100B2000FFF79BFFB5E000207C4908607C490B681B
:100B30000968491C7A4C21607349C85CFFF791FF32
:100B40002820FFF78AFFA4E0012080070068C00783
:100B5000C00F002819D070480068012806D1102065
:100B6000FFF777FF07206A49087009E06C490B68B6
:100B70000968491C6A4C21606349C85CFFF771FF32
:100B80000820FFF76AFF13E084E064480068401C17
:100B900060490968884205D20420FFF75AFF04E043
:100BA00070E006E00420FFF758FF2820FFF755FF0C
:100BB0006FE05B4800685849096888420AD2584982
:100BC0000B680968491C564C21604F49C85CFFF707
:100BD00048FF26E04F48006800281CD000205149FB
:100BE00008604E49086050480078002809D04649FE
:100BF0000978491CC8B2FFF734FF2020FFF729FF0E
:100C000005E041490978491CC8B2FFF72AFF0920CD
:100C1000FFF723FF3DE01020FFF71BFF0C203C49AE
:100C200008700820FFF719FF33E0FFF71EFF3B496C
:100C30000B680968491C394C21603449C854204666
:100C40000068401C33490968884206D20420FFF737
:100C500000FF0820FFF701FF13E001208007006874
:100C600004210840042803D10C20FFF7F6FE08E019
:100C70000C20274908701020FFF7EBFE0820FFF733
:100C8000ECFE06E00A20224908700820FFF7E5FE86
:100C900000BF7EE00023FF200130104000284DD02F
:100CA00000201F4908601D490860FFF7DEFE03466B
:100CB00001208007C068984203D100201B490860CA
:100CC00019E001208007006A984203D101201749EA
:100CD000086010E001208007406A984203D102209A
:100CE0001249086007E001208007806A984202D11B
:100CF00003200E4908600420FFF7ABFEFF200130FF
:100D00008105886141E000000C0000101400001013
:100D10001C0000102000001024000010280000100B
:100D20002C000010300000103400001038000010BB
:100D3000008004400400001000E100E001204002B7
:100D4000104000280FD0012080078068C1B2814880
:100D500004680068401C7F4D28607F4801550420CE
:100D6000FFF777FE11E001208002104000280CD030
:100D70007A48007801218907886078480078401C0B
:100D8000764908700420FFF764FE2820C1068861B8
:100D900000BF00BF7FE630B503460C466E480370C7
:100DA0004470827000206E4908706E49086003200C
:100DB0006D4908602020FFF74CFE00206B49087049
:100DC00000BF6A4800780C28FBD1FF2500BF2846E9
:100DD000691ECDB20028FAD130BDF0B504460D46EB
:100DE00016465D4804704570002205E0B05C5A4923
:100DF000971CC855501CC2B29A42F7DB00205849D4
:100E0000087058490860981C574908602020FFF76F
:100E100020FE00205549087000BF544800780C2877
:100E2000FBD1FF2200BF1046511ECAB20028FAD1E2
:100E3000F0BD10B502460B464748027043700220D1
:100E40004949086001204749086045490870202049
:100E5000FFF7FFFD00204549087000BF43480078B8
:100E60000C28FBD1FF2400BF2046611ECCB2002815
:100E7000FAD13F48007810BD70B505460E461446BD
:100E800035480570467002203749086035480460CF
:100E90000120334908702020FFF7DBFD0020334993
:100EA000087000BF314800780C28FBD1002204E014
:100EB0002F48805C9854501CC2B2A242F8DBFF223B
:100EC00000BF1046511ECAB20028FAD170BD10B53D
:100ED00002460B46204802704370002020490870EB
:100EE000204908600220204908602020FFF7B1FD5A
:100EF00000201E49087000BF1C4800780C28FBD158
:100F0000FF2400BF2046611ECCB20028FAD110BDDC
:100F100000B50246104802700120134908601149CB
:100F200008600F490870134908602020FFF791FD01
:100F300000200E49087000BF0C4800780C28FBD137
:100F4000FF2300BF1846591ECBB20028FAD108482B
:100F5000007800BD2C0000100C0000103C000010B8
:100F60003400001020000010240000101C000010AD
:100F7000140000103000001070B504460D46F9480A
:100F8000844217D1F8480068802188438030F649B0
:100F90000860F5488038406820218843F24980394C
:100FA000486008464068202188432030EE49803957
:100FB00048601BE0ED48844217D1EB480068A1155A
:100FC00088434018E8490860E74880384068402175
:100FD0008843E54980394860084640684021884395
:100FE0004030E1498039486000E070BDE048006869
:100FF000854201D9DE4805682946DD48006800F0D1
:1010000057FA86B2E068000C00043043E060E16803
:1010100088B2E168090C09040143E16000BFE4E71C
:1010200010B583691B0C1B044C1EA4B223438361BF
:10103000426110BD0269120C12048BB21A430261A4
:1010400070470169090C090401617047014608698C
:1010500080B27047016849084900491C0160704727
:10106000416949084900491C416170474169490883
:1010700049004161704770B504460D46BD48844241
:1010800017D1B9480068611588434018B64908600F
:10109000B5488038406880218843B349803948602A
:1010A00008464068802188438030AF4980394860D5
:1010B0001BE0B148844217D1AB4800682115884332
:1010C0004018A9490860A8488038406889158843B5
:1010D000A54980394860084640688915884340180A
:1010E000A1498039486000E070BDA1480068854290
:1010F00001D99F48056829469D48006800F0D8F945
:1011000086B2E068000C00043043E06000BFEBE70B
:10111000026FD208D2004B075B0F1A430267704779
:1011200030B5036FF024A3434C01F0252C4023433A
:101130000367002A0AD1046F2406240F641C2401CB
:101140002C402346046FAC431C430467036F082400
:10115000A3430833036730BD10B5026F0F231B0292
:101160009A430B020F24240223401A43026710BD46
:1011700030B5036F0F242403A3430C030F252D0365
:101180002C4023430367036F01242404A343140466
:1011900001252D042C402343036730BD70B58469BD
:1011A000240C24044D1EADB22C4384614469E40830
:1011B000E40055076D0F2C434461C46B3025AC43EC
:1011C0001D01302635402C43C463C46B64086400A1
:1011D000641CC46370BD70B5C469240C24048DB252
:1011E0002C43C46144693825AC435507AD0E2C43EC
:1011F0004461C46BC025AC439D01C02635402C43DF
:10120000C463C46B0225AC43A41CC46370BD70B539
:10121000046A240C24048DB22C4304624469FF2523
:10122000C135AC435507ED0D2C434461C46B032518
:101230002D02AC431D020326360235402C43C46305
:10124000C46B0425AC43241DC46370BD70B5C46970
:10125000240C24048DB22C43C461446907256D021B
:10126000AC4355072D0D2C434461C46B0325AD02DF
:10127000AC439D020326B60235402C43C463C46BC5
:101280000825AC430834C46370BD10B500290ED0E6
:10129000012902D002291FD113E0836A5B085B0099
:1012A0005B1C8362836A0224A343836215E0836A22
:1012B0005B085B008362836A0224A3439B1C8362F6
:1012C0000BE0836A5B085B005B1C8362836A022419
:1012D000A3439B1C836200E000BF00BF042A05D12A
:1012E000836A0424A3431B1D836203E0836A0424EE
:1012F000A343836210BD10B500290ED0012902D08E
:1013000002291FD113E0836A0824A34308338362B0
:10131000836A1024A343836215E0836A0824A343ED
:101320008362836A1024A343103383620BE0836AD1
:101330000824A34308338362836A1024A343103331
:10134000836200E000BF00BF042A05D1836A202425
:10135000A3432033836203E0836A2024A343836290
:1013600010BD0000000001408080044000400140AA
:10137000040000100080014000C0014010B50029A9
:101380000ED0012902D002291FD113E0836A402424
:10139000A34340338362836A8024A343836215E0BE
:1013A000836A4024A3438362836A8024A3438033F7
:1013B00083620BE0836A4024A34340338362836AE1
:1013C0008024A3438033836200E000BF00BF042A6F
:1013D00005D1836A9401A3431B19836204E0836AE5
:1013E000FF240134A343836210BD10B500290FD040
:1013F000012902D0022922D115E0836A0124640266
:10140000A3431B198362836A6400A343836217E0CA
:10141000836A01246402A3438362836A6400A34352
:101420001B1983620CE0836A01246402A3431B1925
:101430008362836A6400A3431B19836200E000BFD8
:1014400000BF042A05D1836A5402A3431B19836297
:1014500004E0836A0124E402A343836210BD0146D1
:10146000C86A80B270470146086B80B27047014677
:10147000486B80B270470146886B80B270478268C3
:10148000120C12048BB21A43826070474168022228
:101490009143891C41604168914341607047014616
:1014A000886880B27047FF210160704770477047BD
:1014B00030B50B46014600202022012409E00D46EC
:1014C000D5409D4205D31D469540491B2546954074
:1014D00040191546521E002DF1DC30BD064C012589
:1014E000064E05E0E36807CC2B430C3C98471034CC
:1014F000B442F7D3FEF7E8FD3C1500005C15000090
:1015000030B47446641E2578641CAB4204D3635D1A
:101510005B00E31830BC18471D46F8E702E008C836
:10152000121F08C1002AFAD170477047002001E05D
:1015300001C1121F002AFBD1704700005C1500009A
:1015400000000010400000001C1500009C15000069
:1015500040000010200200002C15000000000000D8
:10156000006CDC02006CDC020000000000000000E7
:10157000000000000000000000000000000000006B
:10158000000000000000000000000000000000005B
:0C1590000000000000000000000000004F
:04000005000000C136
:00000001FF
