:020000040000FA
:1000000058030010192D00001D2D00001F2D0000A9
:1000100000000000000000000000000000000000E0
:10002000000000000000000000000000212D000082
:100030000000000000000000232D0000252D00001E
:10004000272D0000272D000095330000A915000082
:10005000272D0000272D0000272D0000B9190000D2
:10006000272D00007B140000272D0000272D000005
:10007000D3120000211300008F120000272D000072
:10008000272D0000272D00000000000000000000C8
:100090000000000000000000000000000000000060
:1000A0000000000000000000000000000000000050
:1000B0000000000000000000000000000000000040
:1000C0000348854604F094FF00480047910D000066
:1000D000580300101CB500BF2420F1A1F44BF5A279
:1000E00000910190F5A1FD4804F094FF00BF1CBDF4
:1000F0001CB500BF4020EAA1F94BEEA2009101908F
:10010000F8A1F64804F086FF00BF1CBD0EB505201F
:1001100001F025FA00287FD0042001F038FA0121EF
:100120000520000703F044F800283DD1F648008878
:10013000401CF549088008460088642811D1002039
:10014000F249087000BFF04800886421D4A2F04B47
:10015000009201910290D7A2EEA1E04804F05AFF6C
:100160001DE0E94800887D210901884217DD022051
:10017000E64908700020E4490880F048008808211A
:100180008843EE49088000BF6E20C5A1E04BC9A29C
:1001900000910190EAA1D14804F03CFF00BF012189
:1001A000052001F0D5F937E0D7480088002803D0B2
:1001B000D5480088642814DB0020D3490880DF4834
:1001C000008808218843DD49088000BF7920B4A158
:1001D000CF4BB8A200910190E1A1C04804F01AFFF2
:1001E0001AE0C9480088642816DA0120C649088048
:1001F00000200880D148008808218843CF49088022
:1002000000BF8220A6A1C24BAAA200910190DCA14E
:10021000B24804F0FFFE00BF0EBD1CB5BB4800781D
:10022000002806D001286ED002286DD003286CD19A
:1002300092E0DA480078002843D0012866D00228EE
:1002400075D1D7480078232807DC01214903052010
:10025000000702F0ADFF00281ED0FFF749FF002085
:10026000CE4908700121C9030520000702F094FF60
:100270000020CC4908701422FF21042002F022F84B
:1002800000BFA62086A1C84B8AA200910190C7A1F9
:10029000924804F0BFFE10E008220321012002F082
:1002A00011F800BFAD207EA1BF4B82A2009101904A
:1002B000C6A18A4804F0AEFE00BF0620934908702C
:1002C00036E0B8480078042819D10F22FF21012018
:1002D00001F0F8FF002001F0F9F9202001F001FA07
:1002E0000220B049087000BFBE206DA1AE4B71A2C4
:1002F00000910190BDA1794804F08CFE00BF06205A
:100300008249087014E015E038E04AE001207F4996
:10031000087000BFC82062A1A34B66A200910190A3
:10032000BAA16E4804F076FE00BF01E0FFE700BF0F
:1003300000BF37E09948007801280CD181030520DF
:10034000000702F029FFFF21F531062001F000F936
:1003500003206E49087025E0062001F000F900280E
:100360000BD0012189030520000702F019FF0620A8
:100370006649087001208B49087013E000BFE62031
:1003800047A1894B4BA200910190A9A1534804F0C9
:1003900041FE00BF0120B049087006205B4908708B
:1003A00000E000BF00BF1CBD0EB564480078C00768
:1003B000C00F002828D0A9480078002807D10821BC
:1003C000A74802F0EDFE0120A449087006E00821CC
:1003D000A34802F0E1FE0020A049087057480088B9
:1003E000400840005549088000BF9C480078FF2124
:1003F00012312BA29B4B0092019102902DA29AA147
:10040000364804F007FE00BF4C480088022108402F
:10041000002814D002F0A4FA48480088022188433A
:100420004649088000BFFF201F301DA18D4B21A22F
:100430000091019095A1294804F0ECFD00BF3F48D0
:10044000008804210840002813D03C4800888843D5
:100450003A49088002F084FA00BFFF20293010A139
:10046000804B14A20091019093A11C4804F0D2FD8E
:1004700000BF324800881021084000280BD04748B0
:100480000078002808D0012807D0022806D10020D3
:100490001E4908702CE142E124E124E127E100003B
:1004A0002E2E5C757365725C6D61696E2E63000043
:1004B0007453000044454255470000005B25737C9F
:1004C00025734025732C25645D2020B9D8B1D5CB88
:1004D000F9D3D0CDE2C9E80D0A0A0000740000107B
:1004E0007C5300005B25737C25734025732C2564A9
:1004F0005D2020D2D1BEADB4F2BFAACBF9D3D0CD0E
:10050000E2C9E80D0A0A000006000010020000100F
:10051000835300005B25737C25734025732C256471
:100520005D20B0B4BCFCB3A4B0B4206B65795F743B
:10053000696D65723D2564200D0A0A000C000010EB
:100540005B25737C25734025732C25645D20BFAA31
:10055000CABCB8B4CEBB2E2E2E2E2E2E200A0000E2
:100560005B25737C25734025732C25645D2020CD8D
:10057000CBB3F6B0B4BCFCCAC2BCFE0D0A0A000084
:100580005B25737C25734025732C25645D2020B08A
:10059000B4BCFCB6CCB0B40D0A0A000000000010D8
:1005A0000900001001000010935300005B25737CCC
:1005B00025734025732C25645D20BFAABBFAD6D0D5
:1005C0002E2E2E2E2E2E200D0A0A00005B25737C67
:1005D00025734025732C25645D20B5E7C1BFB5CDDB
:1005E0002E2E2E2E2E2E200D0A0A00005B25737C47
:1005F00025734025732C25645D20B9D8BBFAD6D06D
:100600002E2E2E2E2E2E200D0A0A00005B25737C26
:1006100025734025732C25645D20D5FDD4DABBBD40
:10062000D0D12E2E2E2E2E2E200D0A0A00000000D4
:100630005B25737C25734025732C25645D2032C3B4
:10064000EBBAF3C6F4B6AFB8B4CEBB2E2E2E2E2E18
:100650002E200D0A0A0000000B0000100E000010F2
:1006600000000250A05300005B25737C25734025D9
:10067000732C25645D204452565F4556454E5453B5
:10068000203D2564200D0A0A000000005B25737CD4
:1006900025734025732C25645D204D4F544F5F44D6
:1006A0004554315F4556454E5453206D6F746F5F0E
:1006B0005028293B0D0A0A005B25737C25734025D1
:1006C000732C25645D204D4F544F5F444554325F79
:1006D0004556454E5453206D6F746F5F5028293B2B
:1006E0000D0A0A0004E00120FC49087000E000BF88
:1006F00000BFFB48008810218843F949088000BFEB
:10070000F6480078FF214731F64AF74B00920191F5
:1007100002901432F5A1FE4804F07CFC00BFF048C2
:1007200000882021084000281DD0022000F0CEFFC4
:10073000F848007800F0CAFF252000F0D2FFE84812
:10074000008820218843E649088000BFFF205530FB
:10075000E449E54B0A46143200910190EEA1EC48C1
:1007600004F058FC00BFDE4800880821084000283B
:1007700001D0FFF7CBFC0EBD3EB5044660780028E3
:1007800006D001283ED0022814D0032862D14BE0C5
:100790000020EA49087000BFFF217A31D14AE84BB6
:1007A0000092019102901432E6A1D94804F032FC83
:1007B00000BF4FE00220E149087000BFFF218031F7
:1007C000C84ADF4B0092019102901432DDA1D0485B
:1007D00004F020FC00BFFFF77DFC0121C9030520C8
:1007E000000702F0DDFC0A2502E0DE4800F0F1FF20
:1007F0002846691ECDB20028F7D10A21D94804F055
:100800006AF927E00120CD49087000BFFF218D3132
:10081000B44ACB4B0092019102901432C9A1BC485A
:1008200004F0F8FB00BF15E0032002F013FA0020EB
:10083000CD49087000BF0320FF219631A94AC04B63
:100840000092019102901432BEA1B14804F0E2FB83
:1008500000BF00BF00BF0420C34908700020C34987
:10086000087000BF08460078FF219E319D4AB44BB6
:100870000092019102901432BDA1A54804F0CAFB78
:1008800000BF3EBD10B504466078002801D00120AD
:1008900000E00020C4490870A0784870012000F0F2
:1008A00015FF072000F01DFF10BD3EB5072000F02A
:1008B00056FE00287CD0AC48007802283ED100BF0C
:1008C000AA480078FF21CC31864AB84B00920191AA
:1008D00002901432B6A18E4804F09CFB00BFA348DE
:1008E00000780A2829DD022002F0B4F90220934999
:1008F000087004209C49087000BF9C480078FF21C4
:10090000D631784AA94B0092019102901432B0A1DD
:100910007F4804F07FFB00BF0A2402E0914800F00A
:1009200058FF2046611ECCB20028F7D10A218D481D
:1009300004F0D1F800208D49087075E08A480078ED
:10094000002836D100BF89480078FF21E231654A8E
:10095000964B0092019102901432A5A16C4804F0CC
:1009600059FB00BF8148007828285DDD04207E49BE
:10097000087000BF7D480078FF21E931594A8B4B50
:100980000092019102901432A4A1614804F042FB4C
:1009900000BF00F02BFE012000F098FE002000F0C8
:1009A00095FE252000F09DFE0020704908703BE078
:1009B00049E06D48007801282AD100BF6B480078D3
:1009C000FF21FA31474A794B00920191029014328B
:1009D0009DA14F4804F01EFB00BF64480078142816
:1009E00022DD032002F036F90020604908705E49DC
:1009F000087000BF5D4800789B493A4A6B4B0092F3
:100A000001910290143299A1414804F003FB0BE0DC
:100A10004A480078002804D163480078002800D0B4
:100A200000BF00205149087050480078FE2800DBC4
:100A300004E04E480078401C4C4908707D21C900F4
:100A4000072000F085FD3EBD0EB50A2000F087FDB1
:100A5000002841D0002000F07FFC2E490870084695
:100A6000007822281BDA35480078002817D10121A8
:100A700049030520000702F09BFB002801D117491C
:100A8000087000BF78482F301649804B0A46143250
:100A9000009101907EA11E4804F0BCFA18E01D48A8
:100AA0000078232814DA84480078002810D12348DD
:100AB000007800280CD1012000F008FE15480078CD
:100AC00000F004FE252000F00CFE06207A49087094
:100AD000794800780028F1E00CE1000002000010E5
:100AE0000C000010A0040000A05300005B25737CE4
:100AF00025734025732C25645D205254435F494E75
:100B0000545F4556454E5453203D25640D0A0A0056
:100B100074000010090000105B25737C25734025CC
:100B2000732C25645D205553425F4445545F455600
:100B3000454E5453200D0A0A00000000000000102A
:100B4000AE5300005B25737C25734025732C256410
:100B50005D206B61725F73746174653D2564200D67
:100B60000A0A0000780000100100001008000010C0
:100B70005B25737C25734025732C25645D20657887
:100B8000697420206B61725F73746174655F742097
:100B9000206865617274626561745F666C61673D4F
:100BA0002564200D0A0A000003000010C053000055
:100BB0005B25737C25734025732C25645D20B9D893
:100BC000BBFABCC6CAB13D2564200D0A0A0000006C
:100BD0005B25737C25734025732C25645D20B3ACA5
:100BE000CAB1B9D8BBFA3D2564200D0A0A0000003D
:100BF0005B25737C25734025732C25645D20BFAA7B
:100C0000BBFABCC6CAB1A3ACB9D8BBFAB1BBCBF86E
:100C1000B6A820256420C3EB0D0A0A005B25737C6F
:100C200025734025732C25645D20BFAABBFAB3ACA5
:100C3000CAB1B9D8BBFACBF8B6A8B1BBBDE2B3FD17
:100C40003D2564200D0A0A005B25737C2573402531
:100C5000732C25645D20BBBDD0D1BCC6CAB13D2577
:100C600064200D0A0A000000020200005B25737C6C
:100C700025734025732C25645D20BBBDD0D1B3AC5A
:100C8000CAB13D2564200D0A0A000000D5530000BA
:100C90005B25737C25734025732C25645D20B5E7A7
:100CA000C1BFB5CDD3DA332E3456BFAACABCB9D82A
:100CB000BBFA0D0A0A0000000A00001005D04A48DD
:100CC0000078401E4849087000E000BF47490A20EC
:100CD00000F03EFC00BF4648007809218901454AE2
:100CE000454B009201910290143244A14B4804F00C
:100CF00091F900BF0EBD10B549480078052825D0F0
:100D000008DC01280FD0022817D003281AD00428A5
:100D100037D123E006281DD0072823D00F2810D074
:100D200025282ED122E0122000F0D0FC122000F065
:100D3000CDFC012000F0D5FC24E03948FFF71CFD74
:100D400020E01FE0364801F09FFA1BE0344801F034
:100D5000CBFC17E0324801F0E2FE13E0304801F02E
:100D60000AFD0FE02E48FFF78DFD0BE0002000F09C
:100D7000ADFC1F48007800F0A9FC252000F0B1FC74
:100D800000E000BF00BF0A21254803F0A4FE10BD0B
:100D900000F0FCF9FFF758FEFFF7AAF9FFF7ABFFE9
:100DA000FFF702FBFFF739FA01F04BFA01F0F8FE0A
:100DB000FFF77BFD01F08CFFFFF746FE12E01848BD
:100DC00000F007FDFFF797FFFFF7EEFAFFF725FAB0
:100DD00001F037FA01F0E4FEFFF767FD01F078FF5C
:100DE000FFF732FEEBE700000A0000108813000056
:100DF00009000010A0040000D55300005B25737C9F
:100E000025734025732C25645D204241545F766133
:100E10006C75653D2564200D0A0A00007400001001
:100E200078000010FFB581B00E4615460120000481
:100E300002F053F808210098884300901021009890
:100E40008843103000902021009888430090402172
:100E500000988843009080210098884300904900C2
:100E600000988843009049000098884340180090FB
:100E700049000098884300904900009888430090FA
:100E80000198012804D002280AD0042814D10DE0CA
:100E9000052424070C270120400702F01EF80CE06F
:100EA000D14C0D27A00302F018F806E0CF4C0E2716
:100EB000A00302F012F800E000BF00BF0098C008D5
:100EC000C0006907490F08430090052D06D0280788
:100ED000000F01280AD14003864207D1082100985B
:100EE0008843009010210098884300903146009A72
:100EF000019802F013F9F0202840002800D00025C6
:100F0000002D29D1049800280ED03146204602F049
:100F10003FF90A98002803D0E0683043E0601BE006
:100F200020693043206117E0384600F055F931461A
:100F3000204602F029F90A98002805D001223146FE
:100F4000204602F058F904E000223146204602F023
:100F500052F9384600F039F905B0F0BD1CB5012052
:100F600000231A46022100900420FFF75BFF0020B7
:100F700001231122082100900420FFF753FF00BF36
:100F80006E209BA19F4BA0A200910190A0A1AD4813
:100F900004F040F800BF0020034602460121009003
:100FA0000846FFF73FFF002001230246D9030090C7
:100FB0001846FFF737FF0020034602462021009025
:100FC0000220FFF72FFF002003460122402100905E
:100FD0000220FFF727FF0020034601228021009016
:100FE0000220FFF71FFF002001230246202100906E
:100FF0001846FFF717FF002001230246402100900A
:101000001846FFF70FFF002001230246D902009087
:101010001846FFF707FF002001230246190300903E
:101020001846FFF7FFFE00200346012291020090C0
:101030001046FFF7F7FE0020034601220221009030
:101040000846FFF7EFFE002001230246082100902A
:101050000220FFF7E7FE0020012302461021009046
:101060000220FFF7DFFE0021302002F011FD0020FA
:1010700003460522102100900120FFF7D3FE1CBD7E
:1010800008B5002001231A46014600900A2002F00C
:1010900003FC012002F058FD012002F05AFD00225D
:1010A0000121104602F05AFD02F0B7FD08BD10B54F
:1010B0000120800301F011FF03F05DFB642003F0C9
:1010C00005FB102003F017FC0421084603F001FC87
:1010D00000220121104603F062FB102003F0EEFB1A
:1010E00003F021FC092000F077F8092000F06DF8EA
:1010F00010BD10B55449554802F0DAFE534802F0CD
:101100003CFF02226421514802F026FF4F4802F0C2
:1011100043FF032000F059F84C4840684008400065
:10112000401C4A49486010BD10B5044601F04AFE13
:101130000120C00301F0D1FE032001F054FE444918
:10114000002003F018FC7D21C9006143084603F02C
:1011500049FC40480068022188433E49086008462F
:101160000068802188433B490860FF20F53009680A
:1011700049084900491C374A116000BF0146421E18
:1011800090B20029FAD103F00EFC10BD10B501F0A9
:1011900019FE00F02BFAFFF7E1FEFFF771FFFFF7F2
:1011A00086FFFFF7A6FFA022FF219131012002F068
:1011B00063F801F0EAF800F051F81E22FF21062042
:1011C00001F080F801F0CCFB10BDC206D20E012167
:1011D0009140214A11607047C206D20E0121914010
:1011E0001D4A80321160704700000150000002501B
:1011F0002E2E5C757365725C636F6E6669672E6315
:1012000000000000E4530000444542554700000040
:101210005B25737C25734025732C25645D20444534
:10122000425547D7B4CCACCFC2B2BBCAB9D3C35076
:10123000413134205041313320494F2E2E2E0D0A9A
:101240000A00000074000010A086010000000140A8
:10125000FFFFFF000040004000E100E0AF480088D1
:1012600040084000AD4908800846008804218843B2
:10127000AA4908800846008802218843A7490880B7
:101280000846008810218843A4490880704710B59B
:10129000A34801F0ACFF012802D002280ED106E0DD
:1012A0009E480088042108439C49088007E09B4829
:1012B0000088012108439949088000E000BF00BF71
:1012C000974801F094FF04462146954801F08BFFB2
:1012D00010BD10B50520000701F089FF012804D0DA
:1012E00001214903401A0ED106E08C4800880821EC
:1012F00008438A49088007E088480088202108437D
:101300008649088000E000BF00BF0520000701F00B
:101310006EFF044621460520000701F064FF10BD62
:1013200010B5804801F063FF012802D0202808D1C1
:1013300000E007E0794800881021084377490880D9
:1013400000E000BF00BF774801F051FF044621468E
:10135000744801F048FF10BDF1B594B014210FA8F6
:1013600003F0B9FB00200E900120800301F0B5FDD1
:101370000920012181406C4A116000BF00244EE029
:101380006A48006840084000401C6849086000BF87
:10139000674800780028FBD1149803F039FD0791C5
:1013A000069064490968644A5143084603F030FDD9
:1013B0000546624A624B03F04BFC0022614B0191EF
:1013C000009003F0ADFC00225F4B0391029003F00C
:1013D000A7FC05910490079B069A03F02BFC0022C2
:1013E00001239B070991089003F032FC0022574B20
:1013F0000B910A9003F094FC0D910C9003F016FDF4
:101400000FA908550FA8005D2A2802DD601EC4B28E
:1014100000E000BF012046490870601CC4B2142CD3
:10142000AED30120800301F060FD0920012181403D
:101430003D4A8032116000BF002718E0002412E00E
:101440000FA8015D0FAA601C105C814209DD0FA886
:10145000005D0E900FA9601C085C0855611C0E9879
:101460005054601CC4B2132CEAD3781CC7B2142F9A
:10147000E4D310A8807915B0F0BD08B52B484038EA
:10148000006BC1B2009168460078102828D008DCB3
:1014900001280DD0022811D0042815D0082837D1F2
:1014A00018E0202822D0402826D0802830D129E0FA
:1014B000002003F006FA1F4908602AE0012003F02B
:1014C00000FA1C49086024E0022003F0FAF91949E7
:1014D00008601EE0032003F0F4F91649086018E0E4
:1014E000042003F0EEF91349086012E0052003F030
:1014F000E8F9104908600CE0062003F0E2F90D4914
:10150000086006E0072003F0DCF90A49086000E003
:1015100000BF00BF00200649087008BD0C00001085
:10152000000002500000015000E100E040000240D5
:101530000F00001010000010A086010066666666AD
:1015400066660A4000FEAF4000408F400000244025
:101550004200234B99524200224B99527047014658
:1015600048001F4A105A4A001E4B9A5A904205DD05
:1015700048001A46105A4A00194B98524800184A17
:10158000105A002801D1012070470020FCE710B557
:10159000044621460820FFF7DBFF00BF0820FFF7C5
:1015A000DEFF0028FAD010BD10B5002400BF10E007
:1015B00060000B49085A002806DD6000085A401EEA
:1015C0006100074A505203E000206100044A505273
:1015D000641C0B2CECD3044802F0D8FC10BD0000B6
:1015E0008200001098000010000001400EB501209C
:1015F000000401F072FC0120400701F06EFC0120A4
:10160000000301F06AFC0298C008C000C01C0290F0
:1016100008210298884302901021029888431030D4
:10162000029020210298884302904021029888432A
:1016300002908021029888430290490002988843D2
:10164000029049000298884340180290490002988D
:10165000884302904900029888430290490002980A
:1016600088434018029004210120029A01F056FD9F
:101670000298C008C000C01C029008210120029AF4
:1016800001F04CFD02230022E1214902E64802F06C
:10169000ABFE072001218140E44A116000BF00BF7A
:1016A0003A20E3A1E74BE8A200910190E8A1F148BC
:1016B00003F0B0FC00BF0EBD00BFDB4A526852070A
:1016C000D20F002AF9D1D84A10607047EA49097848
:1016D000E94A1278521CE84B1A70091DE74A505427
:1016E000704770B5014600220020FF23E34C2370B1
:1016F000E34B1B786370E24B1B785B1CE04C237060
:10170000DD4B1B789B1CDD4CA3702346D970022057
:1017100004E0DA4B1B5C5A40431CD8B2D64B1B7812
:101720001B1D8342F5DCD44B1B78D34C2478641CFE
:10173000D14D2C701B1DD14CE254FE25CE4B1B7895
:10174000CD4C2478641CCC4E34701B1DCB4CE5541E
:10175000002011E000BFB44B5B685B07DB0F002B80
:10176000F9D1B14B1B681B0A1B02C44C245C2343F8
:10177000AD4C2360431CD8B2BF4B1B781B1D83426A
:10178000E8DC0023BC4C2370BD4B1B78FF2B02DB35
:101790000023BB4C237070BD411C402901D10021A6
:1017A00002E00146421CD0B20846704700B5002353
:1017B0000BE0B448B4490978405CFF2803D1B24833
:1017C0000078FFF7E9FF012000BD402BF1DB00208E
:1017D000FAE73EB50446AD480078002875D0AC481D
:1017E0000078030003F03BFC06041B234076B4E0C2
:1017F000FFF7DCFFA649087000BFA3480078401E31
:10180000A049085C8E218AA2A24B0092019102900D
:101810008DA2A1A1974803F0FDFB00BFC5E09A4847
:101820000078FFF7B9FF02209949087000BF95487A
:1018300095490978405CA349087008460078A24998
:10184000087003209249087000BF9E4800789B21D1
:1018500077A2904B0092019102907BA29BA18548B8
:1018600003F0D8FB00BFA0E087480078FFF794FFA3
:10187000844885490978405C9349097848409249F1
:101880000870804880490978405C9949097860541B
:1018900000BF97480078205CA42165A27D4B009290
:1018A0000191029068A293A1724803F0B3FB00BFBC
:1018B0008F480078401C8E49087082480078401E8E
:1018C0000978884202DD032001E074E004207049B9
:1018D00008706AE06C480078FFF75EFF00BF694857
:1018E00069490978405CAD2151A26A4B009201918F
:1018F000029055A287A15F4803F08CFB00BF6148AE
:1019000061490978405C7049097888420ED1052008
:101910005F49087000BFB42045A15E4B4AA2009108
:10192000019086A1534803F075FB10E00020704938
:1019300008705749087000BFBC203DA1554B42A21A
:101940000091019087A14B4803F064FB00BF2CE09D
:101950004D480078FFF720FF4A484B490978405C22
:10196000FE280BD100BFC92031A14A4B36A20091FD
:10197000019086A13F4803F04DFB0FE000BFCF2050
:101980002BA1444B30A20091019089A1394803F06A
:1019900041FB00BF0421204603F09DF8002054497C
:1019A00008703B49087000E000BF00BF374800786E
:1019B000401E364908703EBD0EB51B48C068800702
:1019C000C00F00281FD031480078401C2F490870F4
:1019D000154800682B497F4A1278885400BF084692
:1019E0007C490978405CED2111A27B4B009201916A
:1019F000029015A279A11F4803F00CFB00BF7548A7
:101A00000078FFF7C9FE0848C068C007C00F00286B
:101A100006D00548C06840084000401C0249C86024
:101A2000014802F080FD0EBD0080004000E100E0B2
:101A30002E2E5C757365725C757365725F7561726D
:101A4000742E6300F05300004445425547000000E7
:101A50005B25737C25734025732C25645D205541DF
:101A600052545F696E69742E2E2E2E2E200D0A0A96
:101A700000000000740000101B000010EE000010B9
:101A80001C000010AE00001017000010190000101C
:101A90001A000010FB5300005B25737C2573402562
:101AA000732C25645D205F5F5F5F5F5F5F756172B0
:101AB000745F6275662D3E203D20307825580D0AF2
:101AC0000A00000014000010160000105B25737C53
:101AD00025734025732C25645D20646174615F6CFF
:101AE000656E203D20307825580D0A0A0000000060
:101AF000150000105B25737C25734025732C25642D
:101B00005D20636D645F74203D20307825580D0A98
:101B10000A0000005B25737C25734025732C256427
:101B20005D2072785F586F725F7665726966795F63
:101B300074203D20307825580D0A0A005B25737CFF
:101B400025734025732C25645D2072785F586F7271
:101B50005F766572696679203D2074727565200D27
:101B60000A0A00005B25737C25734025732C2564CD
:101B70005D2072785F586F725F7665726966792052
:101B80003D2066616C7365200D0A0A005B25737C3D
:101B900025734025732C25645D20756172745F3058
:101BA000784645203D2074727565200D0A0A0000B4
:101BB0005B25737C25734025732C25645D2075613E
:101BC00072745F30784645203D2066616C736520F5
:101BD0000D0A0A00180000100A5400005B25737CEF
:101BE00025734025732C25645D2072785F627566CD
:101BF0002D3E203D20307825580D0A0A00000000B7
:101C000038B504460120000401F067F901204007BF
:101C100001F063F90120800701F05FF908210098C5
:101C200088430090102100988843103000902021B4
:101C300000988843009040210098884300908021BC
:101C4000009888430090490000988843009049001C
:101C5000009888430090490000988843009049000C
:101C60000098884300900098C008C0000090802130
:101C70000120009A01F052FA0098C008C0000090BC
:101C8000FF2101310120009A01F048FA0098C008B4
:101C9000C0000090012149020120009A01F03EFAA3
:101CA0000098C008C000009001210220009A01F0B5
:101CB00035FA0721C9010520000701F069FA012161
:101CC000F84801F065FA2007000F04282CD006DC44
:101CD000002850D0012807D0022857D114E0082846
:101CE00033D00F2852D13BE0FF21013105200007FE
:101CF00001F052FA0521C901480501F051FA01210C
:101D0000E84801F04DFA42E080210520000701F08B
:101D100043FA032109020520000701F041FA0121DD
:101D2000E04801F03DFA32E00121490205200007B8
:101D300001F032FAFF2181310520000701F030FA6D
:101D40000121D84801F02CFA21E00721C901052022
:101D5000000701F025FA0121D24801F01DFA16E032
:101D60000721C9010520000701F016FA0121CD481D
:101D700001F012FA0BE00721C9010520000701F06C
:101D80000FFA0121C74801F00BFA00E000BF00BFC5
:101D900038BD38B504460120000401F09EF801204A
:101DA000400701F09AF80120800701F096F8082119
:101DB00000988843009010210098884310300090CC
:101DC000202100988843009040210098884300908B
:101DD0008021009888430090490000988843009033
:101DE00049000098884340180090490000988843B3
:101DF000009049000098884300900098C008C000F7
:101E0000401C009080210120009A01F087F9009881
:101E1000C008C000401C0090012149020120009A26
:101E200001F07CF90098C008C000401C009001211E
:101E30000220009A01F072F90098C008C000401C0E
:101E40000090FF2101310120009A01F067F921463D
:101E50000F2001F01DFE38BD10B504462007000F0D
:101E6000030003F0FCF8106709153B216E476E2E46
:101E70006E6E6E546E6E606E20210520000701F0BC
:101E80008BF9612189010520000701F089F959E0EA
:101E900040210520000701F07FF9C12149010520FB
:101EA000000701F07DF94DE00121C902052000077E
:101EB00001F072F9832149010520000701F070F952
:101EC00040E0012109030520000701F065F94321E5
:101ED00049010520000701F063F933E06021052086
:101EE000000701F059F90321C9020520000701F09C
:101EF00057F927E0212189010520000701F04CF95D
:101F0000812149010520000701F04AF91AE0032167
:101F1000C9020520000701F03FF9602105200007F4
:101F200001F03EF90EE0C32149010520000701F050
:101F300033F907E0C32149010520000701F030F91A
:101F400000E000BF00BF10BD10B50020FFF707FB89
:101F5000002843D054480078002811D05348007816
:101F6000401C5249087008460078632814DB0020A2
:101F70004D4908704E480078401C4D4908700BE0F0
:101F80004A480078401E49490870084600780128F0
:101F900002DC012044490870464800794449097828
:101FA000884203D100204349487106E04148007946
:101FB000FF2802D100203E4908700F20FFF74CFF98
:101FC0003A480078FFF7E5FE3A4908680A2102F02E
:101FD00065FD84B221460020FFF7BAFA10BD10B5A6
:101FE0000F20FFF739FF0F20FFF70AFE10BD10B5D5
:101FF0000020FFF705FE0020FFF72EFF10BD10B5F3
:102000000020FFF7ACFA00283BD02B4800780828C6
:1020100003DA29480078002801D1012002E026488F
:1020200000784000244908700F20FFF7E9FD22489E
:102030000078FFF711FF1E490878C117890F0918AA
:1020400089101C4A1279914203D100201949487124
:1020500006E018480079FF2802D1002014490870D2
:1020600015480078082805D111480078401C10490F
:10207000087000E000BF0F48008881B20020FFF721
:1020800067FA10BD10B50020FFF769FA002847D0A5
:1020900009480078012803DD0748007808280DDD8D
:1020A00008200EE000000150230000102200001064
:1020B0002400001028000010210000108C48007837
:1020C00040108B4908700F20FFF79AFD8848007870
:1020D000FFF7C2FE87490878C117890F09188910D0
:1020E000854A1279914203D100208349487106E064
:1020F00081480079FF2802D100207E4908707C4881
:102100000078012805D17B480078401C7949087087
:1021100000E000BF7848008881B20020FFF718FA7D
:1021200010BD10B50020FFF71AFA00284ED07348F2
:102130000078002801D1012001E0704800786F4943
:1021400008706B4800780C2803DA6948007800288A
:1021500001D1032002E0664800784000644908701D
:1021600066480078FFF74CFD61480078FFF774FE81
:102170005F4800780C2812DB60480078082808DBEC
:1021800001205E4908705B480078401C594908707E
:1021900005E05A4800784006000E58490870564835
:1021A000007954490978884203D100205249487186
:1021B00006E051480079FF2802D100204D490870FF
:1021C0004D48008881B20020FFF7C2F910BD10B55C
:1021D0000020FFF7C4F9002832D048480078FFF704
:1021E0003BFE46480078FFF70BFD44480078002886
:1021F00001D0002000E00F20404908703E480079DF
:102200003C490978884203D106203B49487106E0E1
:1022100039480079FF2802D1002036490870374834
:102220000078002805D033480078401C31490870F8
:1022300000E000BF3048008881B20020FFF788F935
:1022400010BD10B52C484079030002F008FF0705C7
:102250000B0E171114081A00FFF7C1FE12E0FFF76A
:10226000C6FE0FE0FFF7B3FF0CE0FFF76DFE09E0DD
:10227000FFF7C5FE06E0FFF705FF03E0FFF751FF9C
:1022800000E000BF00BF10BD1B4949794278914270
:1022900017D04178072914DA0021194A1170174A1A
:1022A0001170134A1170134A1170164A1170417857
:1022B000114A5171C178117181780A2251430E4A35
:1022C0001160704710B5072811DA00230C4C2370F9
:1022D0000A4C2370064C2370064C2370094C237063
:1022E000054B587119710A235343034C236010BDE9
:1022F0002100001024000010280000102000001011
:1023000023000010220000100146002204E0501CAF
:10231000C2B208460A38C1B20A29F8DA1007000E1C
:1023200008437047014600BFF020084000110A230F
:10233000584302460807000F8018C0B2704770B5B6
:1023400004460D462A462146A22001F0B4F970BD8C
:1023500010B504462146A22001F0FBF910BD70B56E
:1023600004460D4616462B4632462146A22001F071
:10237000C4F970BD70B504460D46164633462A466C
:102380002146A22001F008FA70BD1CB500240020EF
:10239000FFF7DEFF044620202040002801D0DF2088
:1023A000044080202040002801D1F720044021462D
:1023B0000020FFF7C4FF00210120FFF7C0FF7F21AD
:1023C0000D20FFF7BCFF7F210E20FFF7B8FF00BFF5
:1023D000A320F2A1F54BF6A200910190F6A1FE48D0
:1023E00002F018FE00BF1CBD10B50446207A632819
:1023F00001DD00202072E0790C2801DD0120E07170
:1024000060791F2801DD01206071A079062801DDB7
:102410000120A0712079172801DD00202071E078CB
:102420003B2801DD0020E070A0783B2801DD002082
:10243000A070207AFFF768FF2072E079FFF764FF51
:10244000E0716079FFF760FF6071A079FFF75CFFD2
:10245000A0712079FFF758FF2071E078FFF754FF53
:10246000E070A078FFF750FFA070E07980218843EA
:10247000E0716079D9490870A0794870E079887076
:10248000207AC8700A4604210520FFF768FFA0786B
:10249000D2490870E0784870207988700A46032194
:1024A0000220FFF75CFF10BD10B50446CB4A0421A3
:1024B0000520FFF75FFFC94800788006800EC749F6
:1024C0000870084640784007400F487008468078FA
:1024D000C006C00E88700846C078C870C878FFF77C
:1024E00021FF2072BD498878FFF71CFFE071BB49CE
:1024F0000878FFF717FF6071B8494878FFF712FFB7
:10250000A071B64A03210220FFF734FFB3480078D8
:102510004006400EB1490870084640784006400E1B
:102520004870084680788006800E88708878FFF7AB
:10253000F9FE2071A9494878FFF7F4FEE070A74939
:102540000878FFF7EFFEA07010BD70B505460C4689
:102550000026607A3B2801DD00206072A07A1728EF
:1025600001DD0020A072E07A1F2801DD0120E07269
:10257000207B062801DD01202073607AFFF7C4FE6E
:102580006072A07AFFF7C0FEA072E07AFFF7BCFE8F
:10259000E072207BFFF7B8FE20730120FFF7D8FE22
:1025A0000646FD200640F720064031460120FFF791
:1025B000C6FE04202840002803D0E07A4006400EE2
:1025C00002E0E07A80210843E072022028400028DF
:1025D00003D0A07A4006400E02E0A07A8021084392
:1025E000A072E807C00F002803D0607A4006400EB2
:1025F00002E0607A802108436072082028400028A9
:1026000003D0207B4006400E02E0207B802108435F
:10261000207302200643F7200640607A6F49087055
:10262000A07A4870E07A8870207BC8700A4604213E
:102630000920FFF794FE31460120FFF780FE70BDB0
:1026400010B50446654A04210920FFF793FE63484C
:1026500000784006400E61490870084640788006C0
:10266000800E4870084680788006800E8870084684
:10267000C0784007400FC8708878FFF753FEE072BB
:1026800056494878FFF74EFEA07254490878FFF784
:1026900049FE60725149C878FFF744FE207310BDAF
:1026A00010B500240120FFF753FE04460C212046FC
:1026B000884304460220044321460120FFF73FFEE1
:1026C00010BD10B500240120FFF742FE04460C2186
:1026D000204688430446022120468843044621467A
:1026E0000120FFF72CFE10BD10B586B00446FFF7A1
:1026F000D7FF2179684641746178C174E1788174AB
:10270000A178017502A90320FFF71FFF02A8FFF7B8
:1027100097FF6846407C2179884217D16846807CC3
:10272000E178884212D10120FEF7D0FF2320FEF786
:10273000D8FF00BFFF20A13018A1294B1CA2009197
:10274000019028A1244802F065FC12E00020FEF769
:10275000BDFF2320FEF7C5FF00BFFF20AA300FA159
:102760001F4B13A20091019028A11B4802F052FCBC
:1027700000BF06B010BD10B586B00446617868464B
:102780000174A178C173E178417321798173617912
:102790000173A179C172E17981724BE02E2E5C75D3
:1027A0007365725C7274632E630000001B5400003A
:1027B00044454255470000005B25737C2573402546
:1027C000732C25645D205254435F696E69742E2E0C
:1027D000200D0A0A000000007400001030000010F4
:1027E000255400005B25737C25734025732C2564DC
:1027F0005D20E997B9E9929FE8AEBEE7BDAEE688F5
:1028000090E58A9F2E2E200D0A0A00005B25737C1E
:1028100025734025732C25645D20E997B9E9929FC3
:10282000E8AEBEE7BDAEE5A4B1E8B4A52E2E200DFE
:102830000A0A000002A8FFF7D7FD02A8FFF734FE3E
:102840006846C07AA17988421DD16846007B6179CB
:10285000884218D16846407BE178884213D1012034
:10286000FEF734FF2220FEF73CFF00BFFF20C830F8
:102870002249234B0A4614320091019021A12C4891
:1028800002F0C8FB13E00020FEF720FF2220FEF735
:1028900028FF00BFFF20D0301849194B0A461432D8
:1028A0000091019023A1224802F0B4FB00BF06B0C2
:1028B00010BD1FB56846FFF7F7FD6946087AFEF7B9
:1028C00005FF6946C879FEF701FF69464879FEF7BA
:1028D000FDFE69468879FEF7F9FE69460879FEF73C
:1028E000F5FE6946C878FEF7F1FE69468878FEF77E
:1028F000EDFE2420FEF7F5FE1FBD00009C27000022
:10290000355400005B25737C25734025732C2564AA
:102910005D20525443E8AEBEE7BDAEE697B6E997F8
:10292000B4E68890E58A9F2E2E200D0A0A0000004A
:10293000740000105B25737C25734025732C25647F
:102940005D20525443E8AEBEE7BDAEE697B6E997C8
:10295000B4E5A4B1E8B4A52E2E200D0A0A000000AB
:1029600010B50821B84800F01BFC1021B64800F053
:1029700017FC0021302001F08BF80020B3490870CB
:1029800000210220FEF7E4FD5621B14802F0A3F831
:1029900010BD10B50821AC4800F002FCAC4801782D
:1029A000202001F075F81021A74800F0F5FBA84899
:1029B0004178102001F06CF810BD10B51021A2482C
:1029C00000F0EEFB0021102001F062F808219E4883
:1029D00000F0E6FB9E480178202001F059F810BD78
:1029E00010B51021984800F0D7FB99484178102085
:1029F00001F04EF80821944800F0D2FB002120207D
:102A000001F046F810BD10B510218F4800F0C8FB4A
:102A10000021102001F03CF808218B4800F0BCFB9D
:102A20008B480178202001F033F810BD10B510213B
:102A3000854800F0B5FB86484178102001F028F861
:102A40000821814800F0ACFB0021202001F020F893
:102A500010BD10B510217C4800F0A2FB7C484178E5
:102A6000102001F015F80821774800F095FB784810
:102A70000178202001F00CF810BD10B50821724833
:102A800000F08EFB72480178202001F001F810213F
:102A90006D4800F085FB6E484178102000F0F8FF8B
:102AA00010BD10B50821684800F076FB6848017831
:102AB000202000F0EDFF1021634800F06DFB64481A
:102AC0004178102000F0E4FF10BD10B56048C078D8
:102AD000030002F0C4FA0906090C0F1215181B1E98
:102AE0002100FFF73DFF18E0FFF753FF15E0FFF768
:102AF000B0FF12E0FFF761FF0FE0FFF771FF0CE09E
:102B0000FFF781FF09E0FFF791FF06E0FFF7B5FF50
:102B100003E0FFF7C6FF00E000BF00BF10BD10B527
:102B200004466079FF280CD1207949498870A07843
:102B30004870E07808706078C870012043490870D8
:102B40002DE06078092806D1607941494871042058
:102B50003E49087023E06078002802D1FFF700FFAB
:102B60001DE06079FE281ADA6178607982003848C1
:102B7000801D81542179607982003548801D1018AC
:102B80004170A178607982003148801D10188170F1
:102B9000E178607982002E48801D1018C17010BD48
:102BA00010B52A48007800284DD00220FEF7D7FC47
:102BB000002848D02548007804282FD124480079DF
:102BC00081002348801D08184078214988700846F4
:102BD000007981001E48801D081880781C494870C3
:102BE0000846007981001A48801D0818C0781849E5
:102BF00008700846007981001548801D405C144922
:102C0000C870084600794979884201DB002002E05B
:102C10000F480079401C0E4908710AE00B48007803
:102C2000022803D100200A49C87002E002200749A7
:102C30000870FFF74AFF0648807819225043014682
:102C40000220FEF785FC10BD00000150340000108A
:102C5000FD000010062801DA2D4908707047704702
:102C6000704710B50121C9030520000700F098FA4C
:102C70001422FF210620FFF725FB062024490870B7
:102C800010BD10B52348007800280ED00121C903DB
:102C90000520000700F084FA00201E490870FF217B
:102CA000F5310920FEF754FC0FE00920FEF757FC30
:102CB00000280AD0012017490870C1030520000729
:102CC00000F06AFA06201249087010BD704770477C
:102CD00010B50F480078030002F0C1F90604070A96
:102CE0000D101316FFF7BBFF0FE0FFF7B9FF0CE065
:102CF000FFF7B7FF09E0FFF7C4FF06E0FFF7E6FFC5
:102D000003E0FFF7E4FF00E000BF00BF10BD0000DC
:102D1000350000103600001003480047FEE7FEE7CC
:102D2000FEE7FEE7FEE7FEE7C100000010B505483C
:102D3000816B0548006801F0B1FE0449086010BDD0
:102D400070470000408004403C0000103800001034
:102D500010B50446F748006B8007800F002804D1A7
:102D6000022C02DA0120F449C860F248806B000AA4
:102D70000002E1B20843EF498863FFF7D7FF10BDB7
:102D800010B50446EB48406B80088000401CE949C0
:102D90004863002C05D10846006B8008800008635A
:102DA00007E0032C05D1E348006BA043801CE149F8
:102DB0000863E048406B80088000DE494863FFF705
:102DC000B5FF10BD10B5DD48C06BDD49884203D1A9
:102DD0002420D849403988620020FFF7D1FF012024
:102DE000FFF7B6FF10BD002809D1D2494039496A22
:102DF000012212039143CF4A403A516209E0CD4982
:102E00004039496A0122120391438918C94A403A5C
:102E10005162704700B5030002F021F905040A066B
:102E2000080C0E00002008E0012006E0022004E06B
:102E3000032002E0042000E000BD00BFBD49803156
:102E4000496A49084900491CBA4A80325162114610
:102E5000096AC908C9004207520F1143B54A8032B6
:102E600011621146496A49084900516200BFE3E70F
:102E7000B0498031896A090A0902C2B21143AD4AD8
:102E8000803291627047AF48AF4908627047A948E5
:102E90008030806A000A0002A649803188622320BF
:102EA0000001A94908627047A849C968090A0902CE
:102EB000C2B21143A54AD1607047A449C031896BA1
:102EC0000143A24AC03291637047A049C031896B67
:102ED00081439E4AC03291637047964940310968E8
:102EE0000143944A40321160704792494031096869
:102EF0008143904A4032116070478E494039496899
:102F000081438C4A403A51601146496801435160FF
:102F1000704700BFBFF34F8F8D488E49C860BFF325
:102F20004F8F00BF00BFFEE7012807D1874909691D
:102F3000102291431031854A11610CE083490969DF
:102F400010229143814A116111460969402291433F
:102F500040317E4A1161704776484038006B7047B7
:102F6000FF2074494039086370477B48006802219C
:102F70008843794908607748006904218843754986
:102F8000086130BF704710B50A467049C0314860CB
:102F9000002A05D1096881436C4BC033196002E0F7
:102FA0006A49C0310860002101238B406B4C2360CB
:102FB00000BF10BD6A486549C0318860704710B5D0
:102FC000624BC0339B6B5B06DB0F002B0CD05F4B5F
:102FD000C0339B6B4024A3435C4CC034A36300BF4D
:102FE0001346521CFF2BFBD3584BC0331863596355
:102FF000504B5B6B9B089B005B1C4E4C63632346F2
:103000001B6B9B089B009B1C236323465B6B9B08ED
:103010009B0063634F4B1B69042423434D4C236186
:1030200030BF00BF00BF00BF00BF00BF414B5B6BA4
:103030009B089B005B1C3F4C636323461B6B9B08F8
:103040009B00236323465B6B9B089B00636310BD5F
:1030500020210140002908D03C49C031096B2022C1
:1030600091433A4AC032116308E03849C031096BD4
:10307000202291432031354AC03211633349C03197
:10308000096B082291430831304AC032116311465E
:10309000096B4022914340312C4AC03211632E49C2
:1030A000096802229143891C2B4A11602949096948
:1030B00004221143274A116130BF704701607047F5
:1030C0000822016891430160102201689143103188
:1030D0000160704710220168914301600822016875
:1030E0009143083101607047FF220132016891432A
:1030F00001607047FF220132016891438918016025
:1031000070470122D202016891438918016070471B
:103110000122D2020168914301607047F7B503466E
:10312000002000240025084F3A46DE05340E00BF7B
:1031300027E000004080044000000650C007FF1F49
:1031400055AAAA55350200000040044040810440C1
:103150000400FA0500ED00E00080034000E100E01B
:10316000FF0F00000126864035460E462E40002EF9
:1031700005D0A601F2198600B218029E1660461C00
:10318000F0B21028EEDBFEBD026A8A43026270478D
:10319000026A0A4302627047C2680A43C26070470B
:1031A00002690A430261704742690A4342617047FB
:1031B000024650680840002801D0012070470020D6
:1031C000FCE70146486880B2704702680A43026023
:1031D000704702688A43026070470146486880B2BF
:1031E000704781607047C26B0A43C26370470146F3
:1031F000886B80B27047436A8B434362036B0B4317
:103200000363002A0BD0012A02D0022A12D10DE05A
:10321000836A8B438362C36A0B43C3620BE0836A96
:103220008B438362C36A8B43C36204E0836A0B43AC
:10323000836200E000BF00BF70470000002000BFB5
:1032400006E00021F84A1154F84A1154411CC8B252
:103250000828F6DB0021F64A1170F64A1160F64A9A
:103260001160F64A1160F64A1160F64A1160F64A9A
:103270001170F64A11607047F8B504460D461646BF
:10328000FFF7DCFFF24949688907C90F49000222AC
:1032900011400846EE49496891430143EC4A5160A8
:1032A000114649688907C90F0122114349000222CA
:1032B00011400846E649496891430143E44A516098
:1032C000E349803109688906C90F01221143490188
:1032D000202211400846DE498031096891430143AC
:1032E000DB4A80321160FF20D10588617D2000011A
:1032F00068430146D748006801F0D0FB87B201203F
:1033000080070069000C0004384301218907086127
:103310007D20000168430146CE48006801F0BEFBF5
:1033200087B2012080074069000C00043843012166
:1033300089074861002C01D10846C660002C03D0E3
:1033400042204107086002E0402001060860022098
:1033500001218140C04A116000BFF8BD01218907E9
:10336000496888B27047014601208007006808401C
:10337000704701218907086070470121890788612A
:1033800070470121890788607047012080078068A5
:10339000C0B2704730B5FFF7E1FF02464B2A01D0BB
:1033A000542A09D11020FFF7E4FF0C20A04908702F
:1033B0002920FFF7E2FF30BD0120800700680221CD
:1033C0000840002870D01D2189011046884302461C
:1033D000D0B2102837D004DC012807D00B286FD1D9
:1033E00042E0142875D01D28F9D1AEE09548006858
:1033F000012813D1002093490860904908608A4948
:103400000978491CC8B2FFF7BCFF8D480068401C12
:103410008B4908602920FFF7B0FF13E0002088499E
:103420000860864908600120FFF7A3FF7E490878FD
:10343000FFF7A7FF82480068401C814908602820E8
:10344000FFF79BFFB5E000207C4908607C490B68D2
:103450000968491C7A4C21607349C85CFFF791FFE9
:103460002820FFF78AFFA4E0012080070068C0073A
:10347000C00F002819D070480068012806D110201C
:10348000FFF777FF07206A49087009E06C490B686D
:103490000968491C6A4C21606349C85CFFF771FFE9
:1034A0000820FFF76AFF13E084E064480068401CCE
:1034B00060490968884205D20420FFF75AFF04E0FA
:1034C00070E006E00420FFF758FF2820FFF755FFC3
:1034D0006FE05B4800685849096888420AD2584939
:1034E0000B680968491C564C21604F49C85CFFF7BE
:1034F00048FF26E04F48006800281CD000205149B2
:1035000008604E49086050480078002809D04649B4
:103510000978491CC8B2FFF734FF2020FFF729FFC4
:1035200005E041490978491CC8B2FFF72AFF092084
:10353000FFF723FF3DE01020FFF71BFF0C203C4965
:1035400008700820FFF719FF33E0FFF71EFF3B4923
:103550000B680968491C394C21603449C85420461D
:103560000068401C33490968884206D20420FFF7EE
:1035700000FF0820FFF701FF13E00120800700682B
:1035800004210840042803D10C20FFF7F6FE08E0D0
:103590000C20274908701020FFF7EBFE0820FFF7EA
:1035A000ECFE06E00A20224908700820FFF7E5FE3D
:1035B00000BF7EE00023FF200130104000284DD0E6
:1035C00000201F4908601D490860FFF7DEFE034622
:1035D00001208007C068984203D100201B49086081
:1035E00019E001208007006A984203D101201749A1
:1035F000086010E001208007406A984203D1022051
:103600001249086007E001208007806A984202D1D1
:1036100003200E4908600420FFF7ABFEFF200130B5
:103620008105886141E00000400000104800001062
:103630005000001054000010580000105C000010F2
:103640006000001064000010680000106C000010A2
:10365000008004403800001000E100E0012040023A
:10366000104000280FD0012080078068C1B2814837
:1036700004680068401C7F4D28607F480155042085
:10368000FFF777FE11E001208002104000280CD0E7
:103690007A48007801218907886078480078401CC2
:1036A000764908700420FFF764FE2820C10688616F
:1036B00000BF00BF7FE630B503460C466E4803707E
:1036C0004470827000206E4908706E4908600320C3
:1036D0006D4908602020FFF74CFE00206B49087000
:1036E00000BF6A4800780C28FBD1FF2500BF2846A0
:1036F000691ECDB20028FAD130BDF0B504460D46A2
:1037000016465D4804704570002205E0B05C5A49D9
:10371000971CC855501CC2B29A42F7DB002058498A
:10372000087058490860981C574908602020FFF726
:1037300020FE00205549087000BF544800780C282E
:10374000FBD1FF2200BF1046511ECAB20028FAD199
:10375000F0BD10B502460B46474802704370022088
:103760004949086001204749086045490870202000
:10377000FFF7FFFD00204549087000BF434800786F
:103780000C28FBD1FF2400BF2046611ECCB20028CC
:10379000FAD13F48007810BD70B505460E46144674
:1037A0003548057046700220374908603548046086
:1037B0000120334908702020FFF7DBFD002033494A
:1037C000087000BF314800780C28FBD1002204E0CB
:1037D0002F48805C9854501CC2B2A242F8DBFF22F2
:1037E00000BF1046511ECAB20028FAD170BD10B5F4
:1037F00002460B46204802704370002020490870A2
:10380000204908600220204908602020FFF7B1FD10
:1038100000201E49087000BF1C4800780C28FBD10E
:10382000FF2400BF2046611ECCB20028FAD110BD93
:1038300000B5024610480270012013490860114982
:1038400008600F490870134908602020FFF791FDB8
:1038500000200E49087000BF0C4800780C28FBD1EE
:10386000FF2300BF1846591ECBB20028FAD10848E2
:10387000007800BD600000104000001070000010D3
:103880006800001054000010580000105000001094
:103890004800001064000010F8B506460C461546B6
:1038A0001F46FE4800680121490488434018FB492F
:1038B0000860FB4800686021884361016022114074
:1038C0000843F7490860F648403080680221884381
:1038D0006900022211400843F149403188600846DE
:1038E000806804218843A900042211400843EC4960
:1038F000403188600846806808218843E900082232
:1039000011400843E64940318860084680684915FF
:103910008843E34940318860084680682021884315
:10392000DF49403188600846806809158843DC49D2
:10393000403188600846806840218843D84940313A
:10394000886008468068C9148843D549403188603A
:103950000846806880218843D14940318860084604
:103960008068910288437903920211400843CC4950
:1039700040318860012F10D10120A04070430146E2
:10398000C848006801F08AF8C549486108460068DF
:10399000C9148843C249086011E00120A040704367
:1039A0000146C048006801F079F84008BC49486108
:1039B00008460068C91488434018B9490860B848E7
:1039C0004030006A40084000401CB5494031086260
:1039D0000846006A02218843801CB14940310862D0
:1039E0000846006A04218843001DAD494031086241
:1039F0000846006A082188430830A9494031086216
:103A00000846006A10218843A549403108620846EB
:103A1000006A20218843A24940310862A04800681A
:103A20008021884380309E490860084600688915D7
:103A3000884340189A490860084600684915884339
:103A400040189749086096484030406A000C0004CE
:103A50009349403148629248006802218843801CA3
:103A60008F490860F8BD8D480068012149048843EA
:103A70008A49086070478A4909680F2212039143F6
:103A800002030F231B031A401143854A116070473C
:103A9000F8B507460C4600254CE00120A840064634
:103AA0003E40002E44D02B0001F0D9FA06040E1837
:103AB000222C36407A49496961430846642100F066
:103AC000EDFF7749886132E07549496961430846ED
:103AD000642100F0E3FF7249C86128E07049496938
:103AE00061430846642100F0D9FF6D4908621EE079
:103AF0006B49496961430846642100F0CFFF68497A
:103B0000486214E06649496961430846642100F04F
:103B1000C5FF634988620AE0614949696143084613
:103B2000642100F0BBFF5E49C86200E000BF00BF37
:103B3000681CC5B2062DB0DB5948006802218843D5
:103B4000801C57490860F8BD14214143544A9163D1
:103B5000704714214143524AD163704730B5002861
:103B600004D0012816D002283ED128E04C4B5B68D7
:103B70005B085B00CC07E40F2343494C636023469A
:103B80005B680224A343540002252C402343444C89
:103B900063602AE0424B5B680424A3438C00042545
:103BA0002C4023433E4C636023465B680824A343B8
:103BB000D40008252C402343394C636015E0384B72
:103BC0005B681024A3430C0110252C402343344C84
:103BD000636023465B682024A343540120252C40C6
:103BE00023432F4C636000E000BF00BF30BD2C4872
:103BF000806840084000401C294988600846806869
:103C000002218843801C2649886008468068042178
:103C10008843001D22498860704721480068400899
:103C20004000401C1E4908601D484030C0684021CB
:103C300088431B494031C8600846C06880218843DA
:103C400017494031C8600846C0688915884314493F
:103C50004031C8600846C068491588431049403162
:103C6000C8600846C068091588430D494031C860DE
:103C70000846C068C914884309494031C8600848EB
:103C800000688904884340180549086008460068B0
:103C90000121490688434018014905E0808004401D
:103CA00000C0044038000010086008460068012188
:103CB0008906884340187D4908600846006801214C
:103CC000C906884340187949086008460068012100
:103CD00009078843401875490860084600680121B3
:103CE000490788434018714908607048403040696E
:103CF0001021884310306D49403148616B4800689D
:103D000002218843801C6949086070476748006841
:103D1000400840006549086064484030C068402160
:103D20008843403061494031C8600846C0688021FE
:103D3000884380305D494031C8600846C0688915B5
:103D40008843401859494031C8600846C068491541
:103D50008843401855494031C8600846C068091575
:103D60008843401851494031C8600846C068C914AA
:103D7000884340184D494031C8604C480068890468
:103D800088434A490860084600680121490688437B
:103D9000464908600846006801218906884343496E
:103DA0000860084600680121C90688433F49086049
:103DB000084600680121090788433C490860084615
:103DC0000068012149078843384908603748403076
:103DD00040691021884335494031486133480068C3
:103DE00002218843801C3149086070472F490968C7
:103DF0000822914308312D4A116011460968D214F6
:103E00009143C2020123DB021A401143274A116089
:103E1000704700B50146002045E0012282400A407B
:103E2000002A3ED0030001F01AF906040D161F28DF
:103E3000313A1E4A126801231B069A43D2181B4BC3
:103E40001A602DE0194A126801235B069A43D218C2
:103E5000164B1A6024E0154A126801239B069A4308
:103E6000D218124B1A601BE0104A12680123DB06BD
:103E70009A43D2180D4B1A6012E00C4A12680123C3
:103E80001B079A43D218094B1A6009E0074A1268C7
:103E900001235B079A43D218044B1A6000E000BF6D
:103EA00000BF421CD0B20628B7DB00BD00C00440F2
:103EB00070B504460D46F948844217D1F8480068A9
:103EC000802188438030F6490860F5488038406892
:103ED00020218843F2498039486008464068202103
:103EE00088432030EE49803948601BE0ED48844229
:103EF00017D1EB480068A11588434018E8490860CD
:103F0000E7488038406840218843E5498039486067
:103F100008464068402188434030E1498039486084
:103F200000E070BDE0480068854201D9DE480568C0
:103F30002946DD48006800F0B1FD86B2E068000C5B
:103F400000043043E060E16888B2E168090C0904CC
:103F50000143E16000BFE4E710B583691B0C1B045B
:103F60004C1EA4B223438361426110BD0269120C4E
:103F700012048BB21A43026170470169090C0904EB
:103F8000016170470146086980B2704701684908BD
:103F90004900491C01607047416949084900491CB2
:103FA000416170474169490849004161704770B5F6
:103FB00004460D46BD48844217D1B94800686115D2
:103FC00088434018B6490860B54880384068802169
:103FD0008843B34980394860084640688021884357
:103FE0008030AF49803948601BE0B148844217D126
:103FF000AB480068211588434018A9490860A848C3
:104000008038406889158843A5498039486008464A
:104010004068891588434018A1498039486000E00C
:1040200070BDA1480068854201D99F4805682946AE
:104030009D48006800F032FD86B2E068000C000484
:104040003043E06000BFEBE7026FD208D2004B07BD
:104050005B0F1A430267704730B5036FF024A34328
:104060004C01F0252C4023430367002A0AD1046F3A
:104070002406240F641C24012C402346046FAC4307
:104080001C430467036F0824A3430833036730BD50
:1040900010B5026F0F231B029A430B020F24240258
:1040A00023401A43026710BD30B5036F0F24240369
:1040B000A3430C030F252D032C4023430367036FF9
:1040C00001242404A343140401252D042C4023437C
:1040D000036730BD70B58469240C24044D1EADB255
:1040E0002C4384614469E408E40055076D0F2C43B8
:1040F0004461C46B3025AC431D01302635402C4350
:10410000C463C46B64086400641CC46370BD70B590
:10411000C469240C24048DB22C43C461446938253D
:10412000AC435507AD0E2C434461C46BC025AC4372
:104130009D01C02635402C43C463C46B0225AC43AB
:10414000A41CC46370BD70B5046A240C24048DB231
:104150002C4304624469FF25C135AC435507ED0D7E
:104160002C434461C46B03252D02AC431D0203267E
:10417000360235402C43C463C46B0425AC43241D74
:10418000C46370BD70B5C469240C24048DB22C4383
:10419000C461446907256D02AC4355072D0D2C43BE
:1041A0004461C46B0325AD02AC439D020326B602F5
:1041B00035402C43C463C46B0825AC430834C46346
:1041C00070BD10B500290ED0012902D002291FD1DF
:1041D00013E0836A5B085B005B1C8362836A0224D2
:1041E000A343836215E0836A5B085B008362836A92
:1041F0000224A3439B1C83620BE0836A5B085B0081
:104200005B1C8362836A0224A3439B1C836200E0DD
:1042100000BF00BF042A05D1836A0424A3431B1DE9
:10422000836203E0836A0424A343836210BD10B554
:1042300000290ED0012902D002291FD113E0836A80
:104240000824A34308338362836A1024A343836250
:1042500015E0836A0824A3438362836A1024A3437E
:10426000103383620BE0836A0824A343083383621C
:10427000836A1024A3431033836200E000BF00BFB1
:10428000042A05D1836A2024A3432033836203E0F8
:10429000836A2024A343836210BD00000000014014
:1042A0008080044000400140380000100080014040
:1042B00000C0014010B500290ED0012902D002290A
:1042C0001FD113E0836A4024A34340338362836A8F
:1042D0008024A343836215E0836A4024A34383625E
:1042E000836A8024A343803383620BE0836A402483
:1042F000A34340338362836A8024A3438033836271
:1043000000E000BF00BF042A05D1836A9401A343E3
:104310001B19836204E0836AFF240134A343836290
:1043200010BD10B500290FD0012902D0022922D1D9
:1043300015E0836A01246402A3431B198362836A24
:104340006400A343836217E0836A01246402A343E9
:104350008362836A6400A3431B1983620CE0836A4F
:1043600001246402A3431B198362836A6400A3438C
:104370001B19836200E000BF00BF042A05D1836AD5
:104380005402A3431B19836204E0836A0124E402FC
:10439000A343836210BD0146C86A80B270470146DC
:1043A000086B80B270470146486B80B27047014687
:1043B000886B80B270478268120C12048BB21A4369
:1043C00082607047416802229143891C41604168C4
:1043D0009143416070470146886880B27047FF2171
:1043E0000160704770477047FFB581B004461646BC
:1043F0001D46B148844220D1072000F055F9AF484E
:104400000068A11488434018AC49086008468069D8
:10441000000A0002401C8861A848803840680421D6
:104420008843A6498039486008464068042188438B
:10443000001DA2498039486025E0A148844220D16E
:10444000082000F031F99D48006861148843401845
:104450009A4908600846C069000A0002401CC86109
:1044600096488038406808218843944980394860DC
:1044700008464068082188430830904980394860E0
:1044800001E005B0F0BD8F480299006800F006FB1E
:1044900007033F0B2069000D000538432061022E01
:1044A0000AD1A068F10188434018A060A0684900C3
:1044B00088434018A06010E0012E09D1A0683102A5
:1044C0008843A060A068490088434018A06004E0C9
:1044D000A068012149028843A060022D05D1A0688F
:1044E00002218843801CA0600EE0202D05D1A06829
:1044F000202188432030A06006E0082D04D1A06868
:10450000082188430830A060A0680121C9058843BC
:104510004018A060A068491088434018A060FF20A0
:10452000606100BFADE7C168FF221143C160704701
:104530008168090A09028160704710B504465E4827
:10454000844209D1072000F0AFF85C480068A1144C
:1045500088435A4908600DE05948844209D108202F
:1045600000F0A2F855480068611488435349086078
:1045700000E010BD2046FFF7DBFF2046FFF7D3FF2A
:1045800000BFF6E7024650688007C00F002803D03E
:1045900010680870002070470120FCE730B5002348
:1045A00004E004680C70491C5C1CE3B24468A40776
:1045B000E40F002C04D015786C1E1470002DF0D17F
:1045C000137030BD024600BF50684007C00F00287E
:1045D000FAD11068000A0002CBB218431060002024
:1045E000704770B50346002400BF0EE000BF586856
:1045F0004007C00F0028FAD10878491C1D682D0A11
:104600002D0205431D60601CC4B29442EED300200D
:1046100070BD30B50CE000BF43685B07DB0F002BBB
:10462000FAD10B78491C0468240A24021C43046054
:104630001346521E002BEED130BD08E000BF426889
:104640005207D20F002AFAD10A780260491C0A7870
:10465000002AF3D1704710B50A4600BF1107090FB1
:10466000092903DD0B463733D9B202E00B4630335C
:10467000D9B200BF43685B07DB0F002BFAD1036898
:104680001B0A1B02CCB2234303601309002BE5D0A5
:1046900010BD82680A438260704701464868C0B214
:1046A0007047FF2141617047C206D20E012191403F
:1046B000054A11607047000000800040808004407F
:1046C00000C000403C00001080E100E070B50546ED
:1046D0009948806B10218843974988639748006800
:1046E0000121890388434018944908609348803821
:1046F0004068012109038843904980394860084691
:10470000406801210903884340188C49803948607A
:104710008B48854200D905462D0129468948006805
:1047200000F0BCF90446204668438649096888427F
:1047300006D08548604383490968884200D2641CDA
:1047400082480068FF21090288432102FF221202E9
:10475000114008437D490860FF2600BF3046761EA1
:104760000028FBD179480068012149078843401897
:104770007649086070BD00207449C860401E086317
:104780006D48806B1021884310306B4988636B48FB
:10479000006801218903884368490860704730B583
:1047A0006A4B1B6801242404A343040401252D043F
:1047B0002C402343654C2360012807D123461B6806
:1047C0000F242406A343614C236016E05F4B1B6853
:1047D0000F242406A3430C060F252D062C4023434B
:1047E0005A4C236023461B68E402A34314070125A7
:1047F0002D072C402343554C236030BD10B5534A40
:10480000526B120B120303051B0D1A434F4B5A63D5
:104810001A46526B07231B039A430B0307242403F6
:1048200023401A43494B5A6310BD10B5474A526B97
:10483000474B1A400304464CE44323401A43434B7E
:104840005A631A46526B07231B079A430B07072428
:10485000240723401A433D4B5A6310BD10B53B4A11
:10486000926B120B120303051B0D1A43374B9A630D
:104870001A46926B07231B039A430B030724240356
:1048800023401A43314B9A6310BD10B52F4A926BE7
:104890002F4B1A4003042E4CE44323401A432B4B66
:1048A0009A631A46926B07231B079A430B07072448
:1048B000240723401A43254B9A6310BD2349C8603F
:1048C00070470146214810308B00C2581005000D7A
:1048D000704710B51D4A926884000F23A3409A4385
:1048E0001A4B9A601A46926884000B46A3401A43FA
:1048F000164B9A6010BD154A12680243D1B2134A92
:104900001268120A12020A43104B1A6070470F4ACB
:1049100012688243D1B20D4A1268120A12020A4387
:104920000A4B1A60704700BF0848006B8002C00F36
:104930000028F9D0704700000082044080800440C5
:1049400040420F00380000100024F4000000024034
:10495000FFFF00F04E4800680121C903884340185A
:104960004B49086070474A4800680121C9038843E1
:10497000474908607047474A5269920A9202830584
:104980009B0D1A43434B5A610902090AFF2900D8BB
:104990009915404A9269120E12060B021B0A1A431D
:1049A0003C4B9A6170473B488068000A0002AA307D
:1049B0003849886008468068000A000255308860DF
:1049C0007047FF21F531334A5268120E1206030276
:1049D0001B0A1A432F4B5A6000BF0A46491E002A81
:1049E000FBD1704770B504460025FF26F5362848F0
:1049F0008038406AC004C00F002801D0B50101E032
:104A0000254805682146694308467D21C90000F014
:104A100045F885081F484068000E00062902090A6B
:104A200008431C49486000BF3046761E0028FBD171
:104A300070BD184800680221884316490860704715
:104A40001448006804218843124908600846006839
:104A50000821884308300F49086070470D48C06836
:104A600070470C48006820218843203009490860BD
:104A700008460068402188434030064908600846DF
:104A80000068802188438030024908607047000038
:104A900080800440004000403C00001030B50B46D0
:104AA000014600202022012409E00D46D5409D4208
:104AB00005D31D469540491B25469540401915468E
:104AC000521E002DF1DC30BDD2B201E00270401C5C
:104AD000491EFBD270470022F6E710B513460A467E
:104AE00004461946FFF7F0FF204610BDF0B5074613
:104AF0000846584087B0C00F049048000E46590041
:104B000040084908BC1A884105D2384631461E463D
:104B100017460B4602465800400810434CD0300D53
:104B2000039040055900400D490D0590401A029030
:104B3000402872DA18030121000B0905084301908F
:104B400004980092002805D0019952420020884123
:104B500000920190029840210A1A0199009800F0F1
:104B6000B3F905460C466B4607CB00F0CEF9C019E9
:104B70007141039A0E0D0023D71756401A467A400A
:104B8000164344D0049A002A2DD0029A012A039A8F
:104B900015DC1205C01A914101263605001C714131
:104BA000D20F059ED2070093019202962A46234611
:104BB00000F0CBF907B0F0BD38463146FAE71605EC
:104BC000224A0F46B218C01AB74101210905001C3C
:104BD0004F4100187F41114618187941E20F1043E8
:104BE0006D19644113E0E2076D0815436408C207BC
:104BF0001443039A01261205C01A91413605001C80
:104C00007141CE07400830434908C01851412A4637
:104C1000234600F08DF9CDE7FFE70498012240001C
:104C2000C117121A00238B4104983146C417381A51
:104C3000A141EEE730B40124E407634030BC55E7FE
:104C400030B40124E407614030BC4FE70000E0FFCE
:104C5000F0B51FB488B00B99099800244840099911
:104C6000C00F490049080991C0070B9900904900FD
:104C700049080B9109990898A64608431CD00B993E
:104C80000A98084318D0099801244000420D4800B2
:104C9000410D099824050003000B204309900B984F
:104CA0000003000B20430B9050181C4940180022B1
:104CB00001901446104605E0002001460DB0F0BDFD
:104CC000032801DA034600E003239C46C11A0AAE1A
:104CD0000AE05F0008ADED5B4F00F75B7D43002706
:104CE000AA187C41491C5B1E6145F2DD410004AB02
:104CF0005A522104120C0A43240C401C0828DFDB02
:104D0000019802900099704601910090059B049AC9
:104D10000799069800F019F9D0E700000DFCFFFF95
:104D2000F0B50C465C4085B0E40FE40703944C00FA
:104D30000026640859009446490802460296224318
:104D400021D062460A431ED06200570D4A000E036E
:104D50002303550D012402462C492405781B1B0B07
:104D6000360B401823432643614600901C46501AD8
:104D7000B44103D30098401C009002E092180098C0
:104D80005B41002803DA0020014605B0F0BD002099
:104D9000012109050746864611E064461D46141B9D
:104DA000B54106D36546521BB341744607430C43D5
:104DB000A646CD0740084908284392185B4105469E
:104DC0000D43EAD11046184313D0604619465040AF
:104DD0007140084306D06046101AB34106D2012242
:104DE000002306E000220123DB0702E00122D24378
:104DF0005310009874460105381C6141029C039DC4
:104E00000019694100F094F8BFE70000FD030000BD
:104E10000EB505490291002100910A460B46019109
:104E200000F093F803B000BD330400004A0009030A
:104E30000123090B1B051943094B10B5520D9A426A
:104E400001DA002010BD064B34339A4203DC9A1A73
:104E500000F04AF810BD03495118884010BD000009
:104E6000FF030000CDFBFFFFF0B51FB40646002096
:104E700082B005464024019100901BE00199224632
:104E80000F46304600F030F8049A059B801A99418D
:104E900010D310461946224600F016F8361A8F41F4
:104EA0000197224601200021009F00F00DF83818DC
:104EB0004D4100902046641E0028DFDC019B0098D5
:104EC0002946324607B0F0BD10B5202A04DB014662
:104ED000203A9140002010BD914020239C1A0346A7
:104EE000E3401943904010BD10B5202A04DB08466A
:104EF000203AD040002110BD0B46D340D0402024A2
:104F0000A21A91400843194610BD10B5202A06DBAD
:104F1000CB170846203A1041C1170B4306E00B4659
:104F20001341D0402024A21A91400843194610BDD5
:104F300010B5002B08DA0024401C614192185B4137
:104F40001A4301D14008400010BDF0B51FB482B033
:104F500005460C0003D0084600F06AF802E000F0B5
:104F600067F820300246009021462846FFF7ACFF44
:104F7000049B059A04460F4618431143084314D076
:104F8000184610431BD0009840210A1A184605996C
:104F9000FFF7AAFF05460E46009A05990498FFF709
:104FA00093FF084305D0012004E02046394607B0AE
:104FB000F0BD0020C11705430E432C433743009931
:104FC0000E986305401A7905E40A00220C43FD0A95
:104FD0000A3002D500200146E9E7010510196941B0
:104FE0000C9C0D9D00196941FFF7A2FFDFE700004F
:104FF000064C0125064E05E0E36807CC2B430C3C2C
:1050000098471034B442F7D3FBF75EF844540000DD
:10501000645400000FB410B5024604A9034B039872
:1050200000F03AF810BC08BC04B01847B9160000EC
:105030002021020C01D010211046020A01D0104696
:105040000839020901D01046091F820801D0104614
:10505000891E420801D0881E7047081A704730B474
:105060007446641E2578641CAB4204D3635D5B0008
:10507000E31830BC18471D46F8E702E008C8121FC5
:1050800008C1002AFAD170477047002001E001C131
:10509000121F002AFBD17047FFB58FB00F460446A0
:1050A000002606E025280AD0129A11999047641C20
:1050B000761C20780028F5D1304613B0F0BD0025CD
:1050C0000121A14A009500E00543641C23780846AD
:1050D000203B98401042F7D120782E2815D104208B
:1050E00005436078641C2A280AD101CF641C009013
:1050F0000BE000990A22514330394018641C00909B
:105100002078014630390929F3D920786C280ED04F
:1051100004DC4C2813D06A2812D104E074280ED085
:105120007A280DD10BE001204005054307E001215D
:10513000090562780D43824201D16D18641C641C1C
:105140002078864669284AD008DC0028B4D0582840
:105150006DD0632810D0642808D140E070286BD04F
:10516000732812D0752860D0782860D0129A7046C3
:1051700011999047761CE5E038786946087200205E
:10518000487202A80190012003E0386801900020D5
:10519000C0433F1D69070CD5002500E06D1C009938
:1051A0008D420FDA8542F9DB0199495D0029F5D17D
:1051B00008E0002500E06D1C8542FCDB0199495D9B
:1051C0000029F8D1761907E0019801990078491C67
:1051D0000191129A119990476D1EF5D2B2E00A2002
:1051E000029000216802400F039102280CD001CFE9
:1051F000C117844600290DDA624608465242002152
:10520000814194462D2008E0FF1DFF08FF0003CFD9
:105210008446EFE7280504D52B206A461074012048
:105220003CE0E8073AD02020F7E70A2000E0102011
:1052300000210391029007E0102002900021042039
:1052400005430820039100906802400F022810D007
:1052500001CF0021844600200D9028071FD57046FD
:1052600070280CD0029A1020039B42401A430CD0A5
:1052700015E0FF1DFF08FF0003CF8446EBE7402049
:105280006A46107401200D900CE06046084306D079
:1052900030206A4610747046507402200D9070469B
:1052A000582804D029A001900DA80E900DE02CA044
:1052B000F9E76046039B029AFFF7D6FD019B8446FF
:1052C0009B5C0E9A521E0E92137060460843F0D1FA
:1052D0000E9805A9081A20300190680701D500989A
:1052E00001E0012000900199884203DD0146019808
:1052F000081A00E000200025009006E004A8129A99
:10530000405D119990476D1C761C0D988542F5DB28
:1053100004E0129A302011999047761C0099481E9B
:1053200000900029F5DC08E00E980E990078491CE1
:105330000E91129A11999047761C0199481E01907E
:105340000029F1DC641CB4E6092801003031323355
:1053500034353637383961626364656600000000B1
:10536000303132333435363738394142434445469B
:10537000000000006B61725F6F6666006B61725FB8
:105380006F6E00706F7765725F6B65795F657665CC
:105390006E7400706F7765725F4F46465F4F4E00C8
:1053A00048616E646C65725F6576656E74006765F2
:1053B000745F6B61725F72756E5F737461746500A8
:1053C000657863657074696F6E5F6D6F6E69746F19
:1053D00072696E67006261745F6D6F6E69746F727F
:1053E000696E67006770696F5F696E69745F7400EA
:1053F00055415254305F496E697400756172745F33
:105400006765745F636D645F740055415254305F2B
:1054100049525148616E646C6572005254435F5347
:1054200074617274005365745F416C61726D5F43A7
:105430006C6F636B005365745F646174655F74695E
:105440006D657200645400000000001078000000D8
:105450007A500000DC54000078000010E0020000E8
:105460008A50000002040600000000000000000056
:10547000000000010000000000000000000000002B
:10548000000000000000000000000000000000001C
:10549000000000000000000000060100006CDC02BB
:1054A000006CDC02000000000000000000000000B2
:1054B00000000000000000000000000000000000EC
:1054C00000000000000000000000000000000000DC
:0C54D000000000000000000000000000D0
:04000005000000C136
:00000001FF
