:020000040000FA
:100000003804001065310000693100006B310000D8
:1000100000000000000000000000000000000000E0
:100020000000000000000000000000006D31000032
:1000300000000000000000006F310000713100007E
:10004000B5180000733100000D380000DB19000006
:10005000F52F000073310000733100003F1D0000D8
:10006000733100000F18000073310000733100007D
:10007000E715000059160000BB15000073310000A1
:100080007331000073310000000000000000000028
:100090000000000000000000000000000000000060
:1000A0000000000000000000000000000000000050
:1000B0000000000000000000000000000000000040
:1000C0000348854605F07AFA00480047430E0000D1
:1000D00038040010FD4948608860C8600861886184
:1000E000C861086248628862C862086348638863BE
:1000F000F6494031086048608860C860086148611E
:100100008861C861F1498031086048608860C860D2
:1001100070471CB502F001F902F0E2FDEC480068FE
:1001200040084000EA490860EA4804F072FCE948E7
:1001300004F06AFC0020FFF7CDFF0021212003F02E
:1001400052F9E54803F0F7F801F0CCF92120DF4936
:1001500008600021282003F06BF901F0A1F902F0FA
:1001600063FC002803D01020DC49088002E008204E
:10017000DA49088000BFA52001F0C3FC4F20D8A1B8
:10018000DB4BDCA200910190DCA1E54805F038FAD8
:10019000AA2001F0B6FC00BF1CBD1CB50220E1493D
:1001A0000870E149087081030520000703F03CFA5C
:1001B00000BFA52001F0A5FC6720C9A1DB4BCDA2A3
:1001C00000910190DAA1D64805F01AFAAA2001F0B0
:1001D00098FC00BFFFF79DFF1CBD1CB5E1480078EF
:1001E0000A2807DC012109030520000703F024FA8F
:1001F000002820D00121C9030520000703F010FAD0
:100200001422FF21042002F0F6F900BFA52001F01E
:1002100078FC8120B2A1D44BB6A200910190D3A169
:10022000BF4805F0EDF9AA2001F06BFC00BF0020EB
:10023000BC49087018E008220321012002F0DBF914
:1002400000BFA52001F05DFC8C20A5A1C64BA9A292
:1002500000910190CEA1B24805F0D2F9AA2001F098
:1002600050FC00BFFFF755FF1CBD0EB5052001F087
:100270007CFB002852D0042001F0A2FB01210520C4
:10028000000703F0D9F9002849D1CA480088401C6A
:10029000C849088008460088642817D10020C6494C
:1002A000087000BFA52001F02CFCC2480088B221D4
:1002B0008BA2C24B0092019102908EA2C0A19848DD
:1002C00005F09EF9AA2001F01CFC23E0B948008843
:1002D0007D21090188421DDD0220B74908700020F8
:1002E000B44908807D480088082188437B490880FC
:1002F00000BFA52001F005FCBC2079A1AF4B7DA279
:1003000000910190B9A1864805F07AF9AA2001F080
:10031000F8FB00BF0121052001F020FB44E0A548C7
:100320000088002803D0A348008864281ADB002036
:10033000A0490880694800880821884367490880E7
:1003400000BFA52001F0DDFBC72065A19B4B69A282
:1003500000910190AEA1724805F052F9AA2001F077
:10036000D0FB21E09348008864281DDA01209249DF
:10037000087000208F490880584800880821884369
:100380005649088000BFA52001F0BBFBD02054A136
:100390008A4B58A200910190A5A1614805F030F95F
:1003A000AA2001F0AEFB00BF0EBD1CB5824800784C
:1003B000002806D001284CD0022873D0032872D11F
:1003C00072E059480078002809D0012828D0022876
:1003D0003CD1FFF702FF06207749087037E00F2273
:1003E000FF21012002F007F9002001F07FFB20200F
:1003F00001F087FB00BFA52001F083FBF62038A1A8
:10040000934B3CA20091019092A1454805F0F8F869
:10041000AA2001F076FB00BF06206749087016E0AD
:1004200001206549087000BFA52001F06AFBFD208E
:100430002BA1874B2FA2009101908FA1384805F086
:10044000DFF8AA2001F05DFB00BF00E000BF00BFA5
:1004500063E135480078012823D100203149087034
:10046000012189030520000703F0DAF8FF21F531A7
:10047000062001F073FA03204F49087000BFA52041
:1004800001F03FFBFF20113015A1714B19A2009123
:10049000019082A1224805F0B3F8AA2001F031FBB7
:1004A00000BF3AE121E137E1062001F05EFA0028C1
:1004B0000BD0012189030520000703F0B5F80620C1
:1004C0003D49087000BFA520FCE00DE1004004405C
:1004D0000040004000800040F0FFFFDF10000010EF
:1004E0002E2E5C757365725C6D61696E2E63000003
:1004F0005058000044454255470000005B25737C7E
:1005000025734025732C25645D202065786974204F
:10051000736C656570206D6F64650D0A0A000000DC
:100520008400001001000010000000106A58000054
:100530005B25737C25734025732C25645D20205337
:1005400068757420646F776E20616C6C206F662014
:10055000746865207065726970686572616C73207B
:100560000D0A0A0006000010725800005B25737C1B
:1005700025734025732C25645D20706F776572208C
:100580004F4E2E2E2E2E2E2E200D0A0A0000000079
:100590005B25737C25734025732C25645D204C6F8F
:1005A0007720656E657267792E2E2E2E2E2E200DE9
:1005B0000A0A000004000010020000107958000030
:1005C0005B25737C25734025732C25645D204C4F7F
:1005D0004E475F50524553532D2D6B65795F7469BB
:1005E0006D65723D2564200D0A0A00005B25737C51
:1005F00025734025732C25645D2053544152545F6C
:1006000052455345542E2E2E2E2E200A0000000057
:100610005B25737C25734025732C25645D20204564
:100620007869745F4B65792E2E0D0A0A0000000070
:100630005B25737C25734025732C25645D20205336
:10064000484F52545F50524553532E2E0D0A0A0004
:10065000895800005B25737C25734025732C256425
:100660005D20706F776572206F66662E2E2E2E2E9F
:100670002E200D0A0A0000005B25737C257340259F
:10068000732C25645D202057616B65207570202ECA
:100690002E2E2E2E2E200D0A0A0000005B25737CC4
:1006A00025734025732C25645D2077616B6573206D
:1006B0007570207374617274202E2E2E2E2E2E20B3
:1006C0000D0A0A0001F01DFAFF201D30EC49ED4B28
:1006D0000A46143200910190EBA1F64804F090FF15
:1006E000AA2001F00EFA00BF17E000BFA52001F01C
:1006F00008FAFF202630E249E24B0A461432009104
:100700000190EDA1EB4804F07BFFAA2001F0F9F97C
:1007100000BF02F024FE00E000BF00BF1CBD0EB50C
:10072000EE480078C007C00F00282ED0EC480078B3
:10073000002807D10821EB4802F076FF0120E849A4
:10074000087006E00821E74802F06AFF0020E4494B
:100750000870E248008840084000E049088000BF77
:10076000A52001F0CEF9DE480078FF215031C44ABF
:10077000DD4B0092019102901432DCA1CD4804F0CF
:100780003FFFAA2001F0BDF900BFD4480088022134
:10079000084000281BD002F0A3FAD04800880221AC
:1007A0008843CE49088000BFA52001F0AAF9FF20A8
:1007B0005D30B349CC4B0A46143200910190D4A16C
:1007C000BC4804F01DFFAA2001F09BF900BFC348FC
:1007D00000880421084000281AD0C04800888843B7
:1007E000BE49088002F07CFA00BFA52001F089F91B
:1007F000FF206730A249BC4B0A4614320091019099
:10080000CEA1AC4804F0FCFEAA2001F07AF900BFAA
:10081000B24800881021084000282ED0D248007825
:10082000002807D0012806D0022808D10020CF498F
:10083000087005E004E00120CC49087000E000BF2A
:1008400000BFA648008810218843A449088000BF43
:10085000A52001F056F9C5480078FF217F31884A6C
:10086000A14B0092019102901432C1A1914804F071
:10087000C7FEAA2001F045F900BF98480088202152
:100880000840002827D0B8480078002809D1022065
:1008900001F02CF9BF48007801F028F9252001F07B
:1008A00030F98E480088202188438C49088000BF99
:1008B000A52001F026F9FF208D3071498A4B0A46A8
:1008C000143200910190B4A17A4804F099FEAA2054
:1008D00001F017F900BF814800880821084000286E
:1008E00001D0FFF7C2FC7D48008840210840002865
:1008F00009D000F0C7FEA749087078480088402159
:100900008843764908800EBD3EB5044660780028CD
:1009100006D001280DD0022808D0032813D10EE0FC
:10092000002091490870A54908700CE0FFF735FCDC
:1009300009E001208C490870A049087003E00320F9
:1009400002F0AEFB00BF00BF00BFA52001F0D9F848
:100950009A480078FF21C331494A994B009201918E
:100960000290143297A1534804F04AFEAA2001F0E5
:10097000C8F800BF00BFA52001F0C3F87A4800788E
:10098000FF21C4313E4A8E4B0092019102901432F5
:1009900098A1484804F034FEAA2001F0B2F800BF44
:1009A0003EBD1CB50A2000F0E0FF002866D0012003
:1009B000800302F0B8FC092001218140974A1160B0
:1009C00000BF9748006840084000401C94490860F8
:1009D00094480088002827D1C8209249088092486E
:1009E0000078002805D090480078401E8E49087095
:1009F00000E000BF8D480078002805D08B480078C3
:100A0000401E8A49087000E000BF8948007800282D
:100A100005D087480078401E8549087000E000BF77
:100A200001208449087004E07E480088401E7D490A
:100A3000088058480078052821DA4B4800780028BB
:100A40001DD1012109030520000702F0F5FD002852
:100A500014D14649087000BFA52001F052F8FF20CC
:100A6000F6300749744B0A4614320091019073A185
:100A7000104804F0C5FDAA2001F043F85EE1EDE066
:100A8000E0040000895800005B25737C2573402535
:100A9000732C25645D204B41522077616B65732078
:100AA00075702073797374656D2E2E2E2E2E2E2068
:100AB0000D0A0A00840000105B25737C2573402515
:100AC000732C25645D204D43552072657365742039
:100AD000202E2E2E2E2E2E200D0A0A001000001081
:100AE0001200001000000250965800005B25737C35
:100AF00025734025732C25645D204452565F45566E
:100B0000454E5453203D2564200D0A0A0000000084
:100B10005B25737C25734025732C25645D204D4F28
:100B2000544F5F444554315F4556454E5453206DF4
:100B30006F746F5F5028293B0D0A0A005B25737C98
:100B400025734025732C25645D204D4F544F5F4421
:100B50004554325F4556454E5453206D6F746F5F58
:100B60005028293B0D0A0A00000000100200001066
:100B70005B25737C25734025732C25645D205254BE
:100B8000435F494E545F4556454E5453203D2564BE
:100B90000D0A0A00060000105B25737C25734025B2
:100BA000732C25645D205553425F4445545F455680
:100BB000454E5453200D0A0A0000000001000010A9
:100BC000A45800005B25737C25734025732C256495
:100BD0005D206578697420206B61725F7374617445
:100BE000655F7420202D3E20203D2564200D0A0ADB
:100BF000000000005B25737C25734025732C256461
:100C00005D20206B61725F7374617465202D3E20DE
:100C1000203D2564200D0A0A0000000000E100E0EC
:100C2000400002400A000010080000100C000010F4
:100C30000D00001007000010B65800005B25737C03
:100C400025734025732C25645D20656E6572677978
:100C5000204C4F572035200D0A0A000084480078A8
:100C600005280DDA83480078012809D10103052001
:100C7000000702F0E1FC002860D1FFF78EFA5DE08A
:100C80007B4800780F2827DA7B480078002823D19A
:100C90007848007800281FD1012000F027FF744811
:100CA000007800F023FF252000F02BFF062072497A
:100CB000087000BFA52000F024FF70487049714BF8
:100CC0000A461432009101906FA1794804F098FC13
:100CD000AA2000F016FF31E076480078002810D0F6
:100CE0006448007800280CD100F000FF60480078CC
:100CF00000F0FCFE252000F004FF00206D49087084
:100D00001CE05C480078012809D16B480078002875
:100D100005D1FFF742FAB420674908700EE0674832
:100D2000007800280AD053480078012806D064488B
:100D30000078002802D10A20614908701CBD1FB547
:100D4000604800F070FF5D480078002874D15D486D
:100D50000078052853D008DC01280FD002282FD0B6
:100D6000032832D0042865D151E006284BD007284B
:100D700051D00F2828D025285CD14FE00C2000F05E
:100D8000B5FE112000F0B2FE012000F0BAFE00BF57
:100D9000A52000F0B6FE07200121384A2B32384B3F
:100DA0000093019202910390474B354A143247A1B8
:100DB0003F4804F025FCAA2000F0A3FE00BF3AE063
:100DC0004048FFF7A1FD36E035E03E4801F0F5FB75
:100DD00000BFA52000F095FE3A48407827493C31F5
:100DE000274A394B009201910290143242A13048B7
:100DF00004F006FCAA2000F084FE00BF1BE031488E
:100E000001F022FE17E02F4802F05EF813E02D48B3
:100E100001F0A6FE0FE001F000FF0CE0002000F062
:100E200065FE1348007800F061FE252000F069FEA1
:100E300001E001E000BF00BF0A21224804F0DFF812
:100E40001FBD00F009FBFFF764F90FE0FFF777FF24
:100E5000FFF7A7FDFFF763FCFFF7A7FA01F08AFB96
:100E600002F073F802F05AF904F01DF8EEE7000002
:100E7000060000100000001008000010060200002C
:100E8000E0040000B65800005B25737C2573402504
:100E9000732C25645D20616C61726D20656E6572D6
:100EA0006779204C4F57203130200D0A0A0000008E
:100EB00084000010070000100C000010010000105A
:100EC0000D00001088000010CB5800005B25737CDB
:100ED00025734025732C25645D204649524D5741AA
:100EE00052455F56455253494F4E3D205625642E7C
:100EF00025640D0A0A0000005B25737C25734025DC
:100F0000732C25645D204C45445F737461746520C7
:100F10003D2025640D0A0A0010B5002819DAFE4AA2
:100F200003071B0F083B9B089B00D2588307DC0E6E
:100F3000FF23A3409A438B071B0E8407E40EA340B4
:100F40001A43F54B0407240F083CA408A4001A51C7
:100F500018E0F24A03231B02D21883089B00D258E0
:100F60008307DC0EFF23A3409A438B071B0E8407E5
:100F7000E40EA3401A43E94B032424021B198408FE
:100F8000A4001A5110BDFFB581B00F4615460120CF
:100F9000000402F0C8F90B98012809D10821009833
:100FA000884300901021009888431030009014E08E
:100FB0000B98002809D10821009888430830009038
:100FC000102100988843009007E00821009888438A
:100FD00000901021009888430090202100988843B9
:100FE0000090402100988843009080210098884319
:100FF0000090490000988843009049000098884379
:1010000040180090490000988843009049000098DB
:10101000884300900198012804D002280AD00428AF
:1010200014D10DE0052424070C260120400702F00E
:101030007AF90CE0BA4C0D26A00302F074F906E030
:10104000B84C0E26A00302F06EF900E000BF00BF0E
:101050000098C008C0006907490F0843009039464E
:10106000009A019802F0B5FAF0202840002800D03C
:101070000025002D2CD10498012811D13946204695
:1010800002F0CAFA0A98012803D1E0683843E06008
:101090001EE00A9800281BD120693843206117E020
:1010A000304600F052FA3946204602F0B1FA0A986A
:1010B000012805D101223946204602F0D8FA04E081
:1010C00000223946204602F0D2FA304600F036FAC5
:1010D00005B0F0BDF8B505460F4616461C46012D75
:1010E00004D0022D07D0042D0FD109E001204007C4
:1010F00002F019F90AE00120800702F014F905E076
:101100000120C00702F00FF900E000BF00BF012C72
:1011100009D1082100988843009010210098884345
:101120001030009013E0002C09D10821009888436A
:1011300008300090102100988843009007E00821B3
:101140000098884300901021009888430090202147
:1011500000988843009040210098884300908021A7
:101160000098884300904900009888430090490007
:1011700000988843401800904900009888430090E8
:1011800049000098884300900098C008C00071078B
:10119000490F0843009039462846009A02F019FA90
:1011A000F8BD1CB501210C20FFF7B6FE0120009010
:1011B00000231A46C1020190FFF7E5FE012000213D
:1011C000034611220091019008210420FFF7DBFE65
:1011D000012000210B460A46009101900146FFF7CD
:1011E000D2FE012002210346002200910190C1039A
:1011F000FFF7C9FE012000210B460A46009101902D
:101200002021FFF7C0FE01231A4640210220FFF7EC
:1012100061FF01231A4680210220FFF75BFF0120B6
:10122000002103460A460091019020210220FFF789
:10123000AAFE0120002103460A46009101900146C2
:101240000420FFF7A0FE0120002103460A4600917A
:10125000019002210420FFF796FE012000210346A1
:101260000A460091019010210220FFF78CFE002019
:101270000121034602460091019009030120FFF776
:1012800082FE0120002103460A460091019081025E
:10129000FFF779FE0120002103460A4600910190E4
:1012A00002210846FFF76FFE0120002103460A468F
:1012B0000091019008210220FFF765FE032302221E
:1012C00011460120FFF706FF0323062240210120DB
:1012D000FFF700FF0021302002F016FE0323052255
:1012E00010210120FFF7F6FE1CBD08B500200123E8
:1012F0001A46014600900A2002F00AFD012002F081
:101300005FFE012002F061FE00220121104602F082
:1013100061FE02F0BEFE08BD1CED00E000E100E051
:10132000000001500000025010B50120800301F0C0
:10133000FAFF03F093FC642003F034FC522003F026
:101340005BFD0121084603F03EFD0421084603F041
:101350003AFD0621084603F036FD00220121104621
:1013600003F090FC522003F023FD03F05DFD092003
:1013700000F0E4F810BD10B50120C00301F0D3FF68
:101380007649774802F0D0FF754803F032F8022220
:101390006421734803F01CF8714803F039F8012107
:1013A0000320FFF7B9FD032000F0C8F86C4840683F
:1013B00040084000401C6A49486010BD10B501203B
:1013C000C00301F0B0FF6749674802F0ADFF66480F
:1013D00003F00FF802226421634802F0F9FF62482B
:1013E00003F016F802210420FFF796FD042000F018
:1013F000A5F85D484068400840005B49486010BD62
:1014000010B50446032001F014FF5849002003F0F2
:1014100032FD7D21C9006143084603F063FD544855
:10142000006802218843524908600846006880210C
:1014300088434F490860FF20F53009684908490092
:10144000491C4B4A116000BF0146421E90B2002960
:10145000FAD103F028FD10BD10B501F0D9FE05202A
:10146000FFF7CEFFFFF79DFE00F0D8FAFFF73DFF34
:10147000FFF75AFFFFF77FFFFFF7A0FFA022FF2132
:101480009131012002F034F901F019F900F074F8FB
:101490001E22FF21062001F0AEF801F021FC10BD54
:1014A00010B501F0B5FE0520FFF7AAFFFFF779FEA2
:1014B00000F0B4FAFFF719FFFFF736FFFFF75BFF05
:1014C000FFF77CFFA022FF219131012002F010F9EB
:1014D00000F052F81E22FF21062001F08CF801F0E6
:1014E000FFFB10BD10B502F04DFE1D4840684008DE
:1014F00040001B494860032000F027F8184802F01C
:101500008DFF0120400701F016FF0120C00701F008
:1015100012FF0120800701F00EFF0120C00301F03F
:101520000AFF0120000401F006FF0120000301F082
:1015300002FF0120800301F0FEFE10BDC206D20EA4
:10154000012191400B4A11607047C206D20E012161
:101550009140084A8032116070470000A086010067
:101560000000014040420F0000400140FFFFFF002B
:101570000040004000E100E0D348008840084000FF
:10158000D14908800846008804218843CE49088054
:101590000846008802218843CB4908800846008815
:1015A00010218843C84908807047C26B0A43C26350
:1015B00070470146886B80B2704700B5C348FFF79B
:1015C000F8FF012802D0022802D100E001E000E08B
:1015D00000BF00BFBD48FFF7ECFF03461946BB48FC
:1015E000FFF7E3FF00BD00B505200007FFF7E1FFAF
:1015F000012808D020280DD00121C902401A10D09E
:10160000401A1CD114E0B048008808210843AE49B4
:10161000088015E0AC48008810210843AA490880DA
:101620000EE0A948008801210843A749088007E087
:10163000A548008820210843A349088000E000BF96
:1016400000BF05200007FFF7B4FF03461946052039
:101650000007FFF7AAFF00BD00B59D48FFF7A9FFEF
:10166000012802D0202802D100E001E000E000BF04
:1016700000BF9748FFF79DFF034619469448FFF7C0
:1016800094FF00BDF0B587B00120800301F053FE48
:101690000920012181408F4A116000BF8E480068F7
:1016A00000287AD08C4909688C4A5143084603F0D7
:1016B0006DFE05468A4A8B4B03F080FD00228A4B63
:1016C0000191009003F0E2FD0022884B039102900B
:1016D00003F0DCFD0591049003F098FE04462146DA
:1016E000834803F0AFFE07D200218248006803F070
:1016F00091FC8049086013E07D49204603F0DBFC43
:1017000007467D4903F01CFD06467C4903F0DBFCDF
:10171000054678480168284603F07CFC7549086056
:1017200032210A2000F01AF900206B490860744841
:101730000078401C7249087008460078062835D1A8
:101740000846007803F01AFE0546294669480068F5
:1017500003F0F6FC674908600846006869490860BC
:1017600000206749087065496648006803F06AFE12
:1017700002D262486349086000BFA52000F0C1F9A9
:101780006048006803F010FEC5B289205EA1634B7B
:1017900063A202950091019000E007E062A16A480F
:1017A00003F02EFFAA2000F0ACF900BF55480068F6
:1017B00003F0FAFDC0B207B0F0BD70B586B00024EA
:1017C0006248006800281FD060490968434A5143B5
:1017D000084603F0DBFD0546414A424B03F0EEFCB0
:1017E0000022414B0191009003F050FD00223F4B3D
:1017F0000391029003F04AFD0591049003F0E8FD87
:101800000446002051490860204606B070BD08B566
:101810004F48006BC1B2009168460078102828D06C
:1018200008DC01280DD0022811D0042815D0082882
:101830003DD118E0202828D040282CD0802836D14F
:101840002FE0002003F0B7FA2349086030E00120C0
:1018500003F0B1FA3F4908602AE0022003F0ABFA36
:101860001D49086024E0032003F0A5FA1A49086026
:101870001EE0042003F09FFA174908601248008810
:10188000402108431049088012E0052003F093FA34
:10189000114908600CE0062003F08DFA2B4908601E
:1018A00006E0072003F087FA0B49086000E000BF5C
:1018B00000BF08BD10B5002001218140264A1160FB
:1018C00000BF01F0B0FD10BD10000010000002507C
:1018D0000000015080E100E01400001040420F00C1
:1018E0006666666666660A4000FEAF4000408F404E
:1018F00000C0DA44240000100000AF430000C842DA
:1019000020000010280000102E2E5C757365725C9C
:10191000757365725F69742E63000000D75800000C
:1019200044454255470000005B25737C25734025E4
:10193000732C25645D206164635F6461745F742D42
:101940003E3D25640D0A0A00840000101C000010B2
:10195000000002401800001080E200E042002C4B22
:10196000995242002B4B9952704701464800284A31
:10197000105A4A00274B9A5A904205DD48001A46F1
:10198000105A4A00224B98524800214A105A002807
:1019900001D1012070470020FCE7014648001C4AA5
:1019A000105A4A001B4B9A5A904205DD48001A46CD
:1019B000105A4A00164B98524800154A105A704760
:1019C00010B5044621460820FFF7C8FF00BF0820D5
:1019D000FFF7CBFF0028FAD010BD10B5002400BFE0
:1019E00010E060000A49085A002806DD6000085A25
:1019F000401E6100064A505203E000206100044A84
:101A00005052641C0C2CECD3034802F0FBFC10BDBC
:101A100092000010AA0000100000014008B501204B
:101A2000000401F080FC0120400701F07CFC012053
:101A3000000301F078FC08210098884300901021F1
:101A4000009888431030009020210098884300902F
:101A5000402100988843009080210098884300909E
:101A60004900009888430090490000988843401836
:101A700000904900009888430090490000988843EE
:101A80000090490000988843401800900098C008D2
:101A9000C000C01C009004210120009A01F099FDB3
:101AA0000098C008C000C01C009008210120009AC6
:101AB00001F08FFD02230022E1214902D04802F00B
:101AC000FFFE0021072000F063F90720012181407B
:101AD000CC4A116000BF08BD00BFC94A5268520716
:101AE000D20F002AF9D1C64A10607047C649C97D95
:101AF000C54AD27D521CC44BDA75091DDA1C5054FC
:101B0000704770B5014600220020FF23BE4CE370F1
:101B100023465C781C715B785B1CBB4C637023466E
:101B2000DB7D9B1CDCB2B84B5C719971022005E037
:101B3000B54BDB1C1B5C5A40431CD8B2B24BDB7D5F
:101B40001B1D8342F4DCB04BDB7DAF4CE47D641C99
:101B5000AD4DEC751B1DEC1CE254FE25E31EDB7D38
:101B6000E41EE47D641CA84EF4751B1DF41CE554B2
:101B7000002012E000BFA24B5B685B07DB0F002B6D
:101B8000F9D19F4B1B681B0A1B029F4CE41C245C71
:101B900023439B4C2360431CD8B29B4BDB7D1B1D16
:101BA0008342E7DC0023984CE37523465B78FF2BE8
:101BB00001DB0023637070BD0146481CFF2801D182
:101BC000002000E0481CC0B2704770B505468F4841
:101BD0000188401D405CFF280BD18C480088801C88
:101BE0008A49491D085CC01CC4B2A54207DD2046D5
:101BF00070BD86490878FFF7DFFF84490880002020
:101C0000F6E710B581480188401D445C0021401F63
:101C10000288401D8154411F0878FFF7CDFF7B49A2
:101C20000880204610BDF0B585B006467749498842
:101C3000FF31764A1288881AFF2103F0C5F9CDB228
:101C4000062D7ADD2846FFF7C0FF0546002D74D02B
:101C5000E81EC5B22F46FFF7D4FFFFF7D2FF03906F
:101C6000FFF7CFFF002466E0FFF7CBFF3055601C85
:101C7000A8425CD1305DB84221D1FFF7C2FFFE28F7
:101C80001DD100BFA520FFF73CFF982160A203985B
:101C9000644B00920191029063A265A1714803F028
:101CA000AFFCAA20FFF72DFF00BF0398FFF71EFF30
:101CB0000020FFF71BFF0E20FFF723FF39E0305D08
:101CC000B84211D100BFA520FFF71BFFA42050A1EF
:101CD000544B55A20091019063A1624803F090FC1F
:101CE000AA20FFF70EFF13E000BFA520FFF709FFB2
:101CF000A52147A203984B4B0092019102904AA262
:101D000061A1584803F07CFCAA20FFF7FAFE00BF4F
:101D10000398FFF7EBFE0120FFF7E8FE0E20FFF728
:101D2000F0FE0421304603F06AF902E005E0305D80
:101D30004740601CC4B2AC4296DB05B0F0BD10B5A4
:101D40002F48C068C007C00F002806D02C48C068C4
:101D500040084000401C2A49C8602948C0688007E4
:101D6000C00F002813D026480068C1B22748428817
:101D7000401D8154411F8878FFF71EFF234948808A
:101D80001F48C06802218843801C1D49C86010BDDF
:101D900010B5002819DA4A4A03071B0F083B9B08B5
:101DA0009B00D2588307DC0EFF23A3409A438B0786
:101DB0001B0E8407E40EA3401A43414B0407240F73
:101DC000083CA408A4001A5118E00E4A03231B0281
:101DD000D21883089B00D2588307DC0EFF23A34050
:101DE0009A438B071B0E8407E40EA3401A43054B4E
:101DF000032424021B198408A4001A5110BD0000FA
:101E00000080004000E100E0C2000010DA00001095
:101E10002E2E5C757365725C757365725F75617289
:101E2000742E6300E5580000444542554700000009
:101E30005B25737C25734025732C25645D20586FCA
:101E4000725F7665726966797465205452554520D3
:101E5000207061636B65745F6E756D203D20256435
:101E60000D0A0A00840000105B25737C2573402551
:101E7000732C25645D202D3E207461696CE5A4B14E
:101E8000E8B4A50D0A0A00005B25737C2573402584
:101E9000732C25645D20586F725F76657269667970
:101EA00074652046414C534520207061636B657416
:101EB0005F6E756D203D2025640D0A0A000000004C
:101EC0001CED00E038B504460120000401F02BFAB7
:101ED0000120400701F027FA0120800701F023FAD2
:101EE0000821009888430090102100988843103002
:101EF000009020210098884300904021009888435A
:101F00000090802100988843009049000098884301
:101F10000090490000988843009049000098884349
:101F2000009049000098884300900098C008C000C5
:101F3000009080210120009A01F04BFB0098C0081E
:101F4000C0000090FF2101310120009A01F041FB07
:101F50000098C008C0000090012149020120009AA9
:101F600001F037FB0098C008C0000090012102205A
:101F7000009A01F02EFB0721C9010520000701F09E
:101F80004BFB0121FE4801F047FB2007000F04280E
:101F90002CD006DC002850D0012807D0022857D1C9
:101FA00014E0082833D00F2852D13BE0FF21013143
:101FB0000520000701F034FB0521C901480501F0A7
:101FC00033FB0121EE4801F02FFB42E08021052088
:101FD000000701F025FB032109020520000701F09D
:101FE00023FB0121E64801F01FFB32E001214902F9
:101FF0000520000701F014FBFF21813105200007B7
:1020000001F012FB0121DE4801F00EFB21E0072167
:10201000C9010520000701F007FB0121D84801F0A4
:10202000FFFA16E00721C9010520000701F0F8FAC0
:102030000121D34801F0F4FA0BE00721C901052082
:10204000000701F0F1FA0121CD4801F0EDFA00E0BE
:1020500000BF00BF38BD38B504460120000401F0C0
:1020600062F90120400701F05EF90120800701F0CC
:102070005AF908210098884300901021009888435D
:102080001030009020210098884300904021009853
:102090008843009080210098884300904900009870
:1020A00088430090490000988843401800904900F8
:1020B0000098884300904900009888430090009859
:1020C000C008C000401C009080210120009A01F04F
:1020D00080FA0098C008C000401C0090012149020D
:1020E0000120009A01F075FA0098C008C000401C59
:1020F000009001210220009A01F06BFA0098C008BC
:10210000C000401C0090FF2101310120009A01F025
:1021100060FA21460F2001F0F7FE38BD10B50446E5
:102120002007000F030003F090FA1091091A4D2BBD
:10213000A25EA23CA2A2A26FA2A280A220219048ED
:1021400001F06EFA01218F4801F06EFA02218D48EC
:1021500001F06AFA10218A4801F066FA88E001214C
:10216000884801F05DFA2021854801F05DFA0221DE
:10217000844801F059FA1021814801F055FA77E0BE
:102180000221804801F04CFA20217D4801F04CFAF0
:1021900001217C4801F048FA1021794801F044FA05
:1021A00066E01021764801F03BFA2021744801F0E6
:1021B0003BFA0121734801F037FA0221714801F01E
:1021C00033FA55E020216E4801F02AFA01216D48CA
:1021D00001F026FA02216B4801F026FA1021684826
:1021E00001F022FA44E00121664801F019FA0221C7
:1021F000644801F015FA2021614801F015FA102118
:102200005F4801F011FA33E002215E4801F008FA5C
:1022100010215B4801F004FA2021594801F004FA2A
:102220000121584801F000FA22E02021544801F031
:10223000F7F90121534801F0F3F90221514801F067
:10224000EFF910214E4801F0EBF911E020214C4844
:1022500001F0EAF901214B4801F0E6F90221494871
:1022600001F0E2F91021464801F0DEF900E000BF7C
:1022700000BF10BD10B50020FFF777FB002843D04A
:1022800041480078002811D040480078401C3F4960
:10229000087008460078632814DB00203A4908706B
:1022A0003B480078401C3A4908700BE037480078FA
:1022B000401E3649087008460078012802DC0120DB
:1022C000314908703348007931490978884203D18F
:1022D00000203049487106E02E480079FF2802D1DD
:1022E00000202B4908700F20FFF718FF27480078BF
:1022F000FFF7B1FE274908680A2102F04FFE84B2B9
:1023000021460020FFF72AFB10BD10B50F20FFF774
:1023100005FF0F20FFF7D6FD10BD10B50020FFF719
:10232000D1FD0020FFF7FAFE10BD10B50020FFF729
:102330001CFB00284AD018480078082803DA164801
:102340000078002801D1012002E013480078400005
:10235000114908700F20FFF7B5FD0F480078FFF70F
:10236000DDFE0B490878C117890F09188910094A41
:102370001279914212D100200649487115E00000FF
:1023800000000150000002502F0000102E0000102D
:1023900030000010340000102D000010A14800791A
:1023A000FF2802D10020A0490870A0480078082822
:1023B00005D19D480078401C9B49087000E000BF93
:1023C0009848008881B20020FFF7C8FA10BD10B508
:1023D0000020FFF7CAFA00283BD094480078012873
:1023E00003DD92480078082801DD082002E08F48CC
:1023F000007840108D4908700F20FFF763FD8B486F
:102400000078FFF78BFE88490878C117890F0918F3
:102410008910844A1279914203D100208149487180
:1024200006E080480079FF2802D100207E4908702C
:102430007E480078012805D17B480078401C7A4905
:10244000087000E000BF7748008881B20020FFF7E5
:1024500085FA10BD10B50020FFF787FA00284ED08E
:1024600073480078002801D1012001E0704800780D
:102470006F4908706D4800780C2803DA6B480078C3
:10248000002801D1032002E0684800784000674935
:10249000087067480078FFF715FD64480078FFF77B
:1024A0003DFE624800780C2812DB6148007808285D
:1024B00008DB01205E4908705B480078401C5A49DF
:1024C000087005E05A4800784006000E5849087028
:1024D0005448007954490978884203D10020514971
:1024E000487106E04F480079FF2802D100204E498C
:1024F00008704C48008881B20020FFF72FFA10BD09
:1025000010B50020FFF731FA002832D04848007893
:10251000FFF704FE46480078FFF7D4FC44480078F3
:10252000002801D0002000E00F20414908703D48FC
:1025300000793D490978884203D10620394948711C
:1025400006E038480079FF2802D10020364908709B
:1025500037480078002805D033480078401C3249BD
:10256000087000E000BF2F48008881B20020FFF70C
:10257000F5F910BD10B52B484079030003F065F85C
:1025800007050B0E171114081A00FFF7BEFE12E024
:10259000FFF7C3FE0FE0FFF7B3FF0CE0FFF76AFEA3
:1025A00009E0FFF7C2FE06E0FFF711FF03E0FFF7C7
:1025B00051FF00E000BF00BF10BD1A4949794278C1
:1025C000914217D04178072914DA0021194A117075
:1025D000174A1170154A1170134A1170164A11707A
:1025E0004178104A5171C178117181780A225143A2
:1025F0000C4A1160704710B5072811DA00230D4C02
:1026000023700B4C2370094C2370074C23700A4C29
:102610002370044B587119710A235343014C2360F2
:1026200010BD000034000010300000102D0000101C
:102630002C0000102F0000102E0000100146002278
:1026400004E0501CC2B208460A38C1B20A29F8DABE
:102650001007000E08437047014600BFF0200840F5
:1026600000110A23584302460807000F8018C0B221
:10267000704770B504460D462A462146A22001F057
:1026800056FA70BD10B504462146A22001F09DFA0D
:1026900010BD70B504460D4616462B4632462146FF
:1026A000A22001F066FA70BD70B504460D461646CC
:1026B00033462A462146A22001F0AAFA70BD1CB575
:1026C00000240020FFF7DEFF0446202020400028E1
:1026D00001D0DF20044080202040002801D1F720D5
:1026E000044021460020FFF7C4FF00210120FFF72E
:1026F000C0FF7F210D20FFF7BCFF7F210E20FFF7D9
:10270000B8FF00BFA520FFF7FCF9A320F2A1F64B0C
:10271000F6A200910190F7A1FE4802F071FFAA20F5
:10272000FFF7EFF900BF1CBD10B50446207A6328FF
:1027300001DD00202072E0790C2801DD0120E0712C
:1027400060791F2801DD01206071A079062801DD74
:102750000120A0712079172801DD00202071E07888
:102760003B2801DD0020E070A0783B2801DD00203F
:10277000A070207AFFF762FF2072E079FFF75EFF1A
:10278000E0716079FFF75AFF6071A079FFF756FF9B
:10279000A0712079FFF752FF2071E078FFF74EFF1C
:1027A000E070A078FFF74AFFA070E07980218843AD
:1027B000E0716079D8490870A0794870E079887034
:1027C000207AC8700A4604210520FFF762FFA0782E
:1027D000D1490870E0784870207988700A46032152
:1027E0000220FFF756FF10BD10B50446CA4A042167
:1027F0000520FFF759FFC84800788006800EC649BB
:102800000870084640784007400F487008468078B6
:10281000C006C00E88700846C078C870C878FFF738
:102820001BFF2072BC498878FFF716FFE071BA4998
:102830000878FFF711FF6071B7494878FFF70CFF80
:10284000A071B54A03210220FFF72EFFB24800789D
:102850004006400EB0490870084640784006400ED9
:102860004870084680788006800E88708878FFF768
:10287000F3FE2071A8494878FFF7EEFEE070A64904
:102880000878FFF7E9FEA07010BD70B505460C464C
:102890000026607A3B2801DD00206072A07A1728AC
:1028A00001DD0020A072E07A1F2801DD0120E07226
:1028B000207B062801DD01202073607AFFF7BEFE31
:1028C0006072A07AFFF7BAFEA072E07AFFF7B6FE58
:1028D000E072207BFFF7B2FE20730120FFF7D2FEEB
:1028E0000646FD200640F720064031460120FFF74E
:1028F000C0FE04202840002803D0E07A4006400EA5
:1029000002E0E07A80210843E0720220284000289B
:1029100003D0A07A4006400E02E0A07A802108434E
:10292000A072E807C00F002803D0607A4006400E6E
:1029300002E0607A80210843607208202840002865
:1029400003D0207B4006400E02E0207B802108431C
:10295000207302200643F7200640607A6E49087013
:10296000A07A4870E07A8870207BC8700A460421FB
:102970000920FFF78EFE31460120FFF77AFE70BD79
:1029800010B50446644A04210920FFF78DFE624811
:1029900000784006400E604908700846407880067E
:1029A000800E4870084680788006800E8870084641
:1029B000C0784007400FC8708878FFF74DFEE0727E
:1029C00055494878FFF748FEA07253490878FFF749
:1029D00043FE60725049C878FFF73EFE207310BD79
:1029E00010B500240120FFF74DFE04460C212046BF
:1029F000884304460220044321460120FFF739FEA4
:102A000010BD10B500240120FFF73CFE04460C2148
:102A10002046884304460221204688430446214636
:102A20000120FFF726FE10BD10B500240120FFF79E
:102A300029FE0446FFF7E5FF08202040002801D0CA
:102A4000012010BD0020FCE710B586B00446FFF75A
:102A5000C7FF2179684641746178C174E178817457
:102A6000A178017502A90320FFF70FFF02A8FFF765
:102A700087FF6846407C217988421DD16846807C6A
:102A8000E178884218D10120FFF730F82320FFF7C2
:102A900038F800BFA520FFF734F8FF20AB300EA1B7
:102AA0001E4B12A2009101901DA11A4802F0A8FD30
:102AB000AA20FFF726F851E00020FFF717F823209F
:102AC000FFF71FF800BFA520FFF71BF8FF20B43069
:102AD00001A1124B05A237E02E2E5C757365725C66
:102AE0007274632E63000000F358000044454255A1
:102AF000470000005B25737C25734025732C2564FB
:102B00005D205254435F696E69742E2E200D0A0AAF
:102B100000000000840000103C000010FD58000080
:102B20005B25737C25734025732C25645D20E99714
:102B3000B9E9929FE8AEBEE7BDAEE68890E58A9F10
:102B40002E2E200D0A0A00000091019045A14F4849
:102B500002F056FDAA20FEF7D4FF00BF06B010BD5C
:102B600010B586B00446617868460174A178C173D7
:102B7000E17841732179817361790173A179C1721F
:102B8000E179817202A8FFF7CFFD02A8FFF72CFEC2
:102B90006846C07AA179884223D16846007B617972
:102BA00088421ED16846407BE178884219D10120D5
:102BB000FEF79CFF2220FEF7A4FF00BFA520FEF732
:102BC000A0FFFF20D2303249324B0A461432009126
:102BD000019031A12D4802F013FDAA20FEF791FFCC
:102BE00019E00020FEF782FF2220FEF78AFF00BFD7
:102BF000A520FEF786FFFF20DA302549254B0A463F
:102C00001432009101902DA1204802F0F9FCAA2075
:102C1000FEF777FF00BF06B010BD1FB56846FFF78F
:102C2000E3FD6946087AFEF761FF6946C879FEF759
:102C30005DFF69464879FEF759FF69468879FEF7D6
:102C400055FF69460879FEF751FF6946C878FEF7D7
:102C50004DFF69468878FEF749FF2420FEF751FFB3
:102C60001FBD00005B25737C25734025732C2564F4
:102C70005D20E997B9E9929FE8AEBEE7BDAEE5A455
:102C8000B1E8B4A52E2E200D0A0A00008400001021
:102C9000D82A00000D5900005B25737C2573402560
:102CA000732C25645D205254435F5345545F545246
:102CB00055452E2E200D0A0A000000005B25737C6E
:102CC00025734025732C25645D205254435F534582
:102CD000545F46414C53452E2E200D0A0A00000039
:102CE00010B5E848406840084000E649486049148B
:102CF0000520000700F098FC0221E34800F094FC56
:102D0000012189020520000700F08EFC0821DE4821
:102D100000F08AFC0020DD49087000210220FEF747
:102D20001DFE5621DA4802F06AF910BD10B50221E5
:102D3000D54800F079FC012149030520000700F087
:102D400073FCD048406840084000401CCD494860B2
:102D500010BD10B50221CC4800F062FC01214903EE
:102D60000520000700F05CFC0020C9494870C548F8
:102D7000406840084000401CC249486010BD10B582
:102D80000221C14800F050FC012149030520000741
:102D900000F046FC0020BE494870BA484068400830
:102DA0004000401CB749486010BD10B50221B6482C
:102DB00000F036FC012149030520000700F034FC37
:102DC0000020B3494870AF48406840084000401CAC
:102DD000AC49486010BD10B50221AB4800F020FCA2
:102DE000012149030520000700F01AFC0020A84932
:102DF0000870A448406840084000401CA149486051
:102E000010BD10B50221A04800F00AFC01214903C1
:102E10000520000700F008FC9A4840684008400080
:102E2000401C9849486010BD10B501214903052098
:102E3000000700F0F5FB0221934800F0F1FB9148F8
:102E4000406840084000401C8E49486010BD10B5E5
:102E5000012149030520000700F0E6FB02218A4812
:102E600000F0E2FB8748406840084000401C85496C
:102E7000486010BD10B58648C078030002F0E5FB3D
:102E80000906090C0F1215181B1E2100FFF728FF59
:102E900018E0FFF74BFF15E0FFF7B3FF12E0FFF775
:102EA00058FF0FE0FFF76BFF0CE0FFF77EFF09E034
:102EB000FFF791FF06E0FFF7B7FF03E0FFF7C7FF5B
:102EC00000E000BF00BF10BD10B504466079FF28C8
:102ED0000CD120796E498870A0784870E07808702D
:102EE0006078C8700120694908702DE06078092871
:102EF00006D160796649487104206449087023E06E
:102F00006078002802D1FFF7EBFE1DE06079FE2813
:102F10001ADA6178607982005D48801D81542179D8
:102F2000607982005A48801D10184170A17860793C
:102F300082005748801D10188170E1786079820006
:102F40005348801D1018C17010BD10B54F4800784F
:102F500000284ED00220FEF708FD002849D04B483B
:102F60000078042830D14A48007981004848801D03
:102F7000081840784649887008460079810044481E
:102F8000801D081880784249487008460079810001
:102F90003F48801D0818C0783D49087008460079F0
:102FA00081003B48801D405C3949C8700846007963
:102FB000401C4979884201D1002002E03448007960
:102FC000401C334908710AE030480078022803D1D8
:102FD00000202F49C87002E002202C490870FFF73A
:102FE00049FF2B4880781922504301460220FEF702
:102FF000B5FC10BD70B527480088401C0A2801D1D7
:10300000002002E023480088401C2249088008462E
:10301000008802F0B3F904461F49204602F090F8F8
:1030200005461E4902F04FF804461949487802F057
:10303000A5F90546214602F005FA04D208211248F6
:1030400000F0EEFA03E008210F4800F0EDFA104915
:10305000087802F093F90546214602F0F3F906D20A
:10306000012189020520000700F0DAFA05E00121BC
:1030700089020520000700F0D7FA024801F0C2F9E2
:1030800070BD0000004001400000015040000010F1
:10309000DE01001042000010000020410000C84284
:1030A000062801DA2D49087070477047704710B53F
:1030B0000121C9030520000700F0B6FA1422FF2100
:1030C0000620FFF798FA06202449087010BD10B5B5
:1030D0002348007800280ED00121C90305200007ED
:1030E00000F0A2FA00201E490870FF21F5310920E6
:1030F000FEF734FC0FE00920FEF737FC00280AD069
:10310000012017490870C1030520000700F088FA64
:1031100006201249087010BD7047704710B50F485F
:103120000078030002F091FA0604070A0D10131646
:10313000FFF7BBFF0FE0FFF7B9FF0CE0FFF7B7FFAA
:1031400009E0FFF7C4FF06E0FFF7E6FF03E0FFF743
:10315000E4FF00E000BF00BF10BD0000440000100D
:103160004500001003480047FEE7FEE7FEE7FEE7E4
:10317000FEE7FEE7C100000010B50548816B054879
:10318000006801F00BFF0449086010BD70470000A3
:10319000408004404C0000104800001010B5044668
:1031A000F948006B8007800F002804D1022C02DA56
:1031B0000120F649C860F448806B000A0002E1B2C1
:1031C0000843F1498863FFF7D7FF10BD10B50446E7
:1031D000ED48406B80088000401CEB494863002CA0
:1031E00005D10846006B80088000086307E0032CC7
:1031F00005D1E548006BA043801CE3490863E24821
:10320000406B80088000E0494863FFF7B5FF10BDC0
:1032100010B5DF48C06BDF49884203D12420DA496A
:10322000403988620020FFF7D1FF0120FFF7B6FF89
:1032300010BD002809D1D4494039496A012212033E
:103240009143D14A403A516209E0CF494039496A35
:103250000122120391438918CB4A403A51627047C8
:1032600000B5030002F0F1F905040A06080C0E008F
:10327000002008E0012006E0022004E0032002E034
:10328000042000E000BD00BFBF498031496A490801
:103290004900491CBC4A803251621146096AC9087A
:1032A000C9004207520F1143B74A803211621146DA
:1032B000496A49084900516200BFE3E7B2498031D9
:1032C000896A090A0902C2B21143AF4A8032916287
:1032D0007047B148B14908627047AB488030806A96
:1032E000000A0002A8498031886223200001AB490E
:1032F00008627047AA49C968090A0902C2B21143A3
:10330000A74AD1607047A649C031896B0143A44ADE
:10331000C03291637047A249C031896B8143A04A92
:10332000C032916370479849403109680143964A19
:103330004032116070479449403109688143924A94
:1033400040321160704790494039496881438E4A44
:10335000403A51601146496801435160704700BFCF
:10336000BFF34F8F8F489049C860BFF34F8F00BFA6
:1033700000BFFEE7012807D189490969102291435E
:103380001031874A11610CE0854909691022914387
:10339000834A116111460969402291434031804AB4
:1033A0001161704778484038006B7047FF207649BC
:1033B00040390863704700207C4909680222914324
:1033C0007A4A11607849096904229143764A116169
:1033D00030BF6D494039886A00216B4A403A91629A
:1033E00011468862704710B50A466D49C031486081
:1033F000002A05D109688143694BC033196002E096
:103400006749C03108606649C031096801231B045F
:103410009943634BC0331960002101238B40644CF6
:10342000236000BF10BD63485D49C03188607047AC
:1034300010B55B4BC0339B6B5B06DB0F002B0CD0D6
:10344000574BC0339B6B4024A343554CC034A363FC
:1034500000BF1346521CFF2BFBD3514BC0331863E4
:103460005963494B5B6B9B089B005B1C464C636339
:1034700023461B6B9B089B009B1C236323465B6BB3
:103480009B089B006363484B1B6904242343464C01
:10349000236130BF00BF00BF00BF00BF00BF3A4B79
:1034A0005B6B9B089B005B1C374C636323461B6B69
:1034B0009B089B00236323465B6B9B089B00636315
:1034C000314B403B9A6A00232F4C403CA362234679
:1034D0009A6210BD20210140002908D03049C03136
:1034E000096B202291432E4AC032116308E02C4917
:1034F000C031096B202291432031294AC032116327
:103500002749C031096B082291430831244AC0324F
:1035100011631146096B402291434031204AC03269
:1035200011632249096802229143891C1F4A1160D4
:103530001D490969042211431B4A116130BF7047BC
:103540000160704708220168914301601022016800
:10355000914310310160704710220168914301606E
:10356000082201689143083101607047FF2201324F
:103570000168914301607047FF2201320168914365
:103580008918016070470000408004400000065028
:10359000C007FF1F55AAAA5535020000004004408D
:1035A000408104400400FA0500ED00E00080034083
:1035B00000E100E0FF0F00000122D2020168914308
:1035C0008918016070470122D202016891430160AD
:1035D0007047F7B503460020002400250B4F3A46FC
:1035E000DE05340E00BF0EE00126864035460E464D
:1035F0002E40002E05D0A601F2198600B218029EB8
:103600001660461CF0B21028EEDBFEBD0040044000
:10361000026A8A4302627047026A0A430262704782
:10362000C2680A43C260704702690A430261704778
:1036300042690A43426170470246506808400028C8
:1036400001D0012070470020FCE70146486880B2A5
:10365000704702680A430260704702688A4302604A
:1036600070470146486880B2704781607047436A7E
:103670008B434362036B0B430363002A0BD0012A85
:1036800002D0022A12D10DE0836A8B438362C36A9F
:103690000B43C3620BE0836A8B438362C36A8B4331
:1036A000C36204E0836A0B43836200E000BF00BF93
:1036B00070470000002000BF06E00021F84A1154C6
:1036C000F84A1154411CC8B20828F6DB0021F64A1A
:1036D0001170F64A1160F64A1160F64A1160F64A16
:1036E0001160F64A1160F64A1170F64A116070478F
:1036F000F8B504460D461646FFF7DCFFF249496867
:103700008907C90F4900022211400846EE4949685D
:1037100091430143EC4A5160114649688907C90F3A
:10372000012211434900022211400846E649496836
:1037300091430143E44A5160E349803109688906B5
:10374000C90F012211434901202211400846DE49D8
:103750008031096891430143DB4A80321160FF20C8
:10376000D10588617D20000168430146D748006883
:1037700001F014FC87B2012080070069000C0004EE
:1037800038430121890708617D2000016843014613
:10379000CE48006801F002FC87B201208007406932
:1037A000000C00043843012189074861002C01D135
:1037B0000846C660002C03D042204107086002E0A2
:1037C000402001060860022001218140C04A1160AA
:1037D00000BFF8BD01218907496888B270470146DA
:1037E00001208007006808407047012189070860B0
:1037F0007047012189078861704701218907886026
:103800007047012080078068C0B2704730B5FFF76D
:10381000E1FF02464B2A01D0542A09D11020FFF7BC
:10382000E4FF0C20A04908702920FFF7E2FF30BD1B
:1038300001208007006802210840002870D01D2167
:103840008901104688430246D0B2102837D004DCE4
:10385000012807D00B286FD142E0142875D01D280D
:10386000F9D1AEE095480068012813D100209349B2
:103870000860904908608A490978491CC8B2FFF776
:10388000BCFF8D480068401C8B4908602920FFF769
:10389000B0FF13E0002088490860864908600120D5
:1038A000FFF7A3FF7E490878FFF7A7FF824800686B
:1038B000401C814908602820FFF79BFFB5E00020ED
:1038C0007C4908607C490B680968491C7A4C216076
:1038D0007349C85CFFF791FF2820FFF78AFFA4E037
:1038E000012080070068C007C00F002819D0704869
:1038F0000068012806D11020FFF777FF07206A49EA
:10390000087009E06C490B680968491C6A4C216021
:103910006349C85CFFF771FF0820FFF76AFF13E0F7
:1039200084E064480068401C60490968884205D208
:103930000420FFF75AFF04E070E006E00420FFF7E0
:1039400058FF2820FFF755FF6FE05B480068584993
:10395000096888420AD258490B680968491C564CC4
:1039600021604F49C85CFFF748FF26E04F480068D8
:1039700000281CD00020514908604E49086050487A
:103980000078002809D046490978491CC8B2FFF7D9
:1039900034FF2020FFF729FF05E041490978491C41
:1039A000C8B2FFF72AFF0920FFF723FF3DE01020F0
:1039B000FFF71BFF0C203C4908700820FFF719FF98
:1039C00033E0FFF71EFF3B490B680968491C394C7F
:1039D00021603449C85420460068401C33490968B6
:1039E000884206D20420FFF700FF0820FFF701FFFE
:1039F00013E001208007006804210840042803D157
:103A00000C20FFF7F6FE08E00C2027490870102074
:103A1000FFF7EBFE0820FFF7ECFE06E00A20224944
:103A200008700820FFF7E5FE00BF7EE00023FF20BE
:103A30000130104000284DD000201F4908601D496A
:103A40000860FFF7DEFE034601208007C068984249
:103A500003D100201B49086019E001208007006A9B
:103A6000984203D101201749086010E00120800727
:103A7000406A984203D102201249086007E0012001
:103A80008007806A984202D103200E490860042012
:103A9000FFF7ABFEFF2001308105886141E00000A7
:103AA000500000105800001060000010640000106A
:103AB000680000106C00001070000010740000100E
:103AC000780000107C0000100080044048000010C6
:103AD00000E100E001204002104000280FD001204A
:103AE00080078068C1B2814804680068401C7F4D2F
:103AF00028607F4801550420FFF777FE11E0012080
:103B00008002104000280CD07A48007801218907F3
:103B1000886078480078401C764908700420FFF7D8
:103B200064FE2820C106886100BF00BF7FE630B573
:103B300003460C466E4803704470827000206E4944
:103B400008706E49086003206D4908602020FFF767
:103B50004CFE00206B49087000BF6A4800780C28B2
:103B6000FBD1FF2500BF2846691ECDB20028FAD13F
:103B700030BDF0B504460D4616465D4804704570EC
:103B8000002205E0B05C5A49971CC855501CC2B2CF
:103B90009A42F7DB00205849087058490860981C81
:103BA000574908602020FFF720FE00205549087083
:103BB00000BF544800780C28FBD1FF2200BF1046FC
:103BC000511ECAB20028FAD1F0BD10B502460B460C
:103BD0004748027043700220494908600120474964
:103BE0000860454908702020FFF7FFFD0020454987
:103BF000087000BF434800780C28FBD1FF2400BFA9
:103C00002046611ECCB20028FAD13F48007810BD92
:103C100070B505460E4614463548057046700220BC
:103C20003749086035480460012033490870202076
:103C3000FFF7DBFD00203349087000BF31480078F2
:103C40000C28FBD1002204E02F48805C9854501CC3
:103C5000C2B2A242F8DBFF2200BF1046511ECAB218
:103C60000028FAD170BD10B502460B4620480270FC
:103C70004370002020490870204908600220204934
:103C800008602020FFF7B1FD00201E49087000BF2A
:103C90001C4800780C28FBD1FF2400BF2046611E81
:103CA000CCB20028FAD110BD00B50246104802700F
:103CB000012013490860114908600F490870134931
:103CC00008602020FFF791FD00200E49087000BF1A
:103CD0000C4800780C28FBD1FF2300BF1846591E62
:103CE000CBB20028FAD10848007800BD700000105F
:103CF00050000010800000107800001064000010D8
:103D000068000010600000105800001074000010DF
:103D1000F8B506460C4615461F46FE4800680121C8
:103D2000490488434018FB490860FB48006860214B
:103D300088436101602211400843F7490860F64852
:103D40004030806802218843690002221140084304
:103D5000F149403188600846806804218843A90001
:103D6000042211400843EC494031886008468068CD
:103D700008218843E900082211400843E649403100
:103D800088600846806849158843E3494031886067
:103D90000846806820218843DF4940318860084612
:103DA000806809158843DC4940318860084680688E
:103DB00040218843D8494031886008468068C9144A
:103DC0008843D5494031886008468068802188430F
:103DD000D149403188600846806891028843790360
:103DE000920211400843CC4940318860012F10D124
:103DF0000120A04070430146C848006801F0CEF899
:103E0000C549486108460068C9148843C24908602A
:103E100011E00120A04070430146C048006801F055
:103E2000BDF84008BC49486108460068C914884389
:103E30004018B9490860B8484030006A400840005E
:103E4000401CB549403108620846006A0221884397
:103E5000801CB149403108620846006A0421884349
:103E6000001DAD49403108620846006A08218843B8
:103E70000830A949403108620846006A1021884389
:103E8000A549403108620846006A20218843A249BA
:103E900040310862A04800688021884380309E49F4
:103EA0000860084600688915884340189A490860E8
:103EB00008460068491588434018974908609648A5
:103EC0004030406A000C00049349403148629248F7
:103ED000006802218843801C8F490860F8BD8D4826
:103EE00000680121490488438A49086070478A496B
:103EF00009680F221203914302030F231B031A4088
:103F00001143854A11607047F8B507460C460025F5
:103F10004CE00120A84006463E40002E44D02B0035
:103F200001F093FB06040E18222C36407A494969A9
:103F300061430846642101F031F87749886132E035
:103F40007549496961430846642101F027F87249BF
:103F5000C86128E07049496961430846642101F05D
:103F60001DF86D4908621EE06B49496961430846C6
:103F7000642101F013F86849486214E06649496910
:103F800061430846642101F009F8634988620AE048
:103F90006149496961430846642100F0FFFF5E49B9
:103FA000C86200E000BF00BF681CC5B2062DB0DBD0
:103FB0005948006802218843801C57490860F8BDB1
:103FC00014214143544A9163704714214143524A9A
:103FD000D163704730B5002804D0012816D00228DC
:103FE0003ED128E04C4B5B685B085B00CC07E40FDC
:103FF0002343494C636023465B680224A343540077
:1040000002252C402343444C63602AE0424B5B680A
:104010000424A3438C0004252C4023433E4C6360BE
:1040200023465B680824A343D40008252C4023437F
:10403000394C636015E0384B5B681024A3430C01D6
:1040400010252C402343344C636023465B682024B6
:10405000A343540120252C4023432F4C636000E0F0
:1040600000BF00BF30BD2C48806840084000401CA5
:10407000294988600846806802218843801C2649B7
:1040800088600846806804218843001D22498860B2
:1040900070472148006840084000401C1E490860E5
:1040A0001D484030C068402188431B494031C860EA
:1040B0000846C0688021884317494031C8600846D7
:1040C000C0688915884314494031C8600846C068F3
:1040D0004915884310494031C8600846C068091531
:1040E00088430D494031C8600846C068C9148843F8
:1040F00009494031C860084800688904884340186D
:1041000005490860084600680121490688434018AF
:10411000014905E08080044000C0044048000010D0
:1041200008600846006801218906884340187D49D7
:104130000860084600680121C9068843401879498B
:10414000086008460068012109078843401875493E
:1041500008600846006801214907884340187149F2
:1041600008607048403040691021884310306D4924
:10417000403148616B48006802218843801C6949CE
:10418000086070476748006840084000654908605B
:1041900064484030C0684021884340306149403124
:1041A000C8600846C0688021884380305D4940313E
:1041B000C8600846C068891588434018594940318D
:1041C000C8600846C06849158843401855494031C1
:1041D000C8600846C06809158843401851494031F5
:1041E000C8600846C068C914884340184D4940312A
:1041F000C8604C480068890488434A4908600846FA
:10420000006801214906884346490860084600685D
:104210000121890688434349086008460068012156
:10422000C90688433F49086008460068012109071C
:1042300088433C49086008460068012149078843D3
:104240003849086037484030406910218843354973
:10425000403148613348006802218843801C31495D
:10426000086070472F4909680822914308312D4A98
:10427000116011460968D2149143C2020123DB0286
:104280001A401143274A1160704700B501460020CB
:1042900045E0012282400A40002A3ED0030001F09E
:1042A000D4F906040D161F28313A1E4A126801235C
:1042B0001B069A43D2181B4B1A602DE0194A12684C
:1042C00001235B069A43D218164B1A6024E0154A64
:1042D000126801239B069A43D218124B1A601BE006
:1042E000104A12680123DB069A43D2180D4B1A605C
:1042F00012E00C4A126801231B079A43D218094B9B
:104300001A6009E0074A126801235B079A43D21832
:10431000044B1A6000E000BF00BF421CD0B2062868
:10432000B7DB00BD00C0044070B504460D46F94837
:10433000844217D1F8480068802188438030F649CC
:104340000860F5488038406820218843F249803968
:10435000486008464068202188432030EE49803973
:1043600048601BE0ED48844217D1EB480068A11576
:1043700088434018E8490860E74880384068402191
:104380008843E549803948600846406840218843B1
:104390004030E1498039486000E070BDE048006885
:1043A000854201D9DE4805682946DD48006800F0ED
:1043B000F5FD86B2E068000C00043043E060E1687F
:1043C00088B2E168090C09040143E16000BFE4E739
:1043D00010B583691B0C1B044C1EA4B223438361DC
:1043E000426110BD0269120C12048BB21A430261C1
:1043F00070470169090C09040161704701460869A9
:1044000080B27047016849084900491C0160704743
:10441000416949084900491C41617047416949089F
:1044200049004161704770B504460D46BD4884425D
:1044300017D1B9480068611588434018B64908602B
:10444000B5488038406880218843B3498039486046
:1044500008464068802188438030AF4980394860F1
:104460001BE0B148844217D1AB480068211588434E
:104470004018A9490860A8488038406889158843D1
:10448000A549803948600846406889158843401826
:10449000A1498039486000E070BDA14800688542AC
:1044A00001D99F48056829469D48006800F076FDBF
:1044B00086B2E068000C00043043E06000BFEBE728
:1044C000026FD208D2004B075B0F1A430267704796
:1044D00030B5036FF024A3434C01F0252C40234357
:1044E0000367002A0AD1046F2406240F641C2401E8
:1044F0002C402346046FAC431C430467036F08241D
:10450000A3430833036730BD10B5026F0F231B02AE
:104510009A430B020F24240223401A43026710BD62
:1045200030B5036F0F242403A3430C030F252D0381
:104530002C4023430367036F01242404A343140482
:1045400001252D042C402343036730BD70B58469D9
:10455000240C24044D1EADB22C4384614469E4084C
:10456000E40055076D0F2C434461C46B3025AC4308
:104570001D01302635402C43C463C46B64086400BD
:10458000641CC46370BD70B5C469240C24048DB26E
:104590002C43C46144693825AC435507AD0E2C4308
:1045A0004461C46BC025AC439D01C02635402C43FB
:1045B000C463C46B0225AC43A41CC46370BD70B556
:1045C000046A240C24048DB22C4304624469FF2540
:1045D000C135AC435507ED0D2C434461C46B032535
:1045E0002D02AC431D020326360235402C43C46322
:1045F000C46B0425AC43241DC46370BD70B5C4698D
:10460000240C24048DB22C43C461446907256D0237
:10461000AC4355072D0D2C434461C46B0325AD02FB
:10462000AC439D020326B60235402C43C463C46BE1
:104630000825AC430834C46370BD10B500290ED002
:10464000012902D002291FD113E0836A5B085B00B5
:104650005B1C8362836A0224A343836215E0836A3E
:104660005B085B008362836A0224A3439B1C836212
:104670000BE0836A5B085B005B1C8362836A022435
:10468000A3439B1C836200E000BF00BF042A05D146
:10469000836A0424A3431B1D836203E0836A04240A
:1046A000A343836210BD10B500290ED0012902D0AA
:1046B00002291FD113E0836A0824A34308338362CD
:1046C000836A1024A343836215E0836A0824A3430A
:1046D0008362836A1024A343103383620BE0836AEE
:1046E0000824A34308338362836A1024A34310334E
:1046F000836200E000BF00BF042A05D1836A202442
:10470000A3432033836203E0836A2024A3438362AC
:1047100010BD0000000001408080044000400140C6
:10472000480000100080014000C0014010B5002981
:104730000ED0012902D002291FD113E0836A402440
:10474000A34340338362836A8024A343836215E0DA
:10475000836A4024A3438362836A8024A343803313
:1047600083620BE0836A4024A34340338362836AFD
:104770008024A3438033836200E000BF00BF042A8B
:1047800005D1836A9401A3431B19836204E0836A01
:10479000FF240134A343836210BD10B500290FD05C
:1047A000012902D0022922D115E0836A0124640282
:1047B000A3431B198362836A6400A343836217E0E7
:1047C000836A01246402A3438362836A6400A3436F
:1047D0001B1983620CE0836A01246402A3431B1942
:1047E0008362836A6400A3431B19836200E000BFF5
:1047F00000BF042A05D1836A5402A3431B198362B4
:1048000004E0836A0124E402A343836210BD0146ED
:10481000C86A80B270470146086B80B27047014693
:10482000486B80B270470146886B80B270478268DF
:10483000120C12048BB21A43826070474168022244
:104840009143891C41604168914341607047014632
:10485000886880B27047FF210160704742690A434F
:104860004261704742698A434261704770B5049C57
:1048700085692D0C2D0496B235438561C5692D0CD3
:104880002D049EB23543C561056A2D0C2D04A6B2D8
:1048900035430562456A2D0C2D048EB235434562C1
:1048A000456F6D086D006D1C4567456F0226B54369
:1048B000AD1C4567456F0426B5432D1D456770BD8A
:1048C000FFB581B0044616461D46B148844220D14A
:1048D000072000F055F9AF480068A114884340183C
:1048E000AC49086008468069000A0002401C8861E3
:1048F000A8488038406804218843A6498039486028
:104900000846406804218843001DA2498039486058
:1049100025E0A148844220D1082000F031F99D48CB
:1049200000686114884340189A4908600846C069C5
:10493000000A0002401CC86196488038406808217F
:104940008843944980394860084640680821884374
:10495000083090498039486001E005B0F0BD8F48CB
:104960000299006800F01AFB07033F0B2069000D55
:10497000000538432061022E0AD1A068F101884366
:104980004018A060A068490088434018A06010E06B
:10499000012E09D1A06831028843A060A0684900B7
:1049A00088434018A06004E0A068012149028843C0
:1049B000A060022D05D1A06802218843801CA06060
:1049C0000EE0202D05D1A068202188432030A06072
:1049D00006E0082D04D1A068082188430830A060B3
:1049E000A0680121C90588434018A060A06849104B
:1049F00088434018A060FF20606100BFADE7C16838
:104A0000FF221143C16070478168090A0902816071
:104A1000704710B504465E48844209D1072000F073
:104A2000AFF85C480068A11488435A4908600DE05B
:104A30005948844209D1082000F0A2F8554800687E
:104A4000611488435349086000E010BD2046FFF719
:104A5000DBFF2046FFF7D3FF00BFF6E702465068B2
:104A60008007C00F002803D010680870002070472E
:104A70000120FCE730B5002304E004680C70491CF9
:104A80005C1CE3B24468A407E40F002C04D0157842
:104A90006C1E1470002DF0D1137030BD024600BFA3
:104AA00050684007C00F0028FAD11068000A0002C1
:104AB000CBB2184310600020704770B50346002445
:104AC00000BF0EE000BF58684007C00F0028FAD1B1
:104AD0000878491C1D682D0A2D0205431D60601CC5
:104AE000C4B29442EED3002070BD30B50CE000BFDC
:104AF00043685B07DB0F002BFAD10B78491C046875
:104B0000240A24021C4304601346521E002BEED1DB
:104B100030BD08E000BF42685207D20F002AFAD128
:104B20000A780260491C0A78002AF3D1704710B550
:104B30000A4600BF1107090F092903DD0B46373369
:104B4000D9B202E00B463033D9B200BF43685B07ED
:104B5000DB0F002BFAD103681B0A1B02CCB22343E4
:104B600003601309002BE5D010BD82680A43826000
:104B7000704701464868C0B27047FF2141617047E5
:104B8000C206D20E01219140054A11607047000013
:104B9000008000408080044000C000404C000010B5
:104BA00080E100E070B50546A348806B1021884382
:104BB000A1498863A14800680121890388434018FE
:104BC0009E4908609D488038406801210903884358
:104BD0009A498039486008464068012109038843A2
:104BE00040189649803948609548854200D9054665
:104BF0002D0129469348006800F0D0F9044620466C
:104C0000684390490968884206D08F4860438D49BF
:104C10000968884200D2641C8C480068FF210902A0
:104C200088432102FF22120211400843874908608D
:104C3000FF2600BF3046761E0028FBD1834800685F
:104C400001214907884340188049086000BF7F4818
:104C5000006B8002C00F0028F9D070BD00207B4996
:104C6000C860401E08637448806B10218843103070
:104C700071498863714800680121890388436F493D
:104C80000860704730B5714B1B6801242404A343AE
:104C9000040401252D042C4023436C4C236001287F
:104CA00007D123461B680F242406A343674C2360C7
:104CB00016E0664B1B680F242406A3430C060F2541
:104CC0002D062C402343614C236023461B68E402DD
:104CD000A343140701252D072C4023435B4C23607D
:104CE00000BF5A4B1B6B9B02DB0F002BF9D030BD72
:104CF00010B5564A526B120B120303051B0D1A43D3
:104D0000524B5A631A46526B07231B039A430B03F9
:104D10000724240323401A434C4B5A6310BD10B59B
:104D20004A4A526B4A4B1A400304494CE44323401D
:104D30001A43464B5A631A46526B07231B079A4382
:104D40000B070724240723401A43404B5A6310BD26
:104D500010B53E4A926B120B120303051B0D1A434A
:104D60003A4B9A631A46926B07231B039A430B0331
:104D70000724240323401A43344B9A6310BD10B513
:104D8000324A926B324B1A400304314CE4432340C5
:104D90001A432E4B9A631A46926B07231B079A43BA
:104DA0000B070724240723401A43284B9A6310BD9E
:104DB0002649C86070470146244810308B00C2580D
:104DC0001005000D704710B5204A926884000F232B
:104DD000A3409A431D4B9A601A46926884000B4682
:104DE000A3401A43194B9A6000BF184A126B9202F3
:104DF000D20F002AF9D010BD144A12680243D1B272
:104E0000124A1268120A12020A43104B1A607047C3
:104E10000E4A12688243D1B20C4A1268120A120278
:104E20000A430A4B1A60704700BF0848006B8002B3
:104E3000C00F0028F9D070470082044080800440F1
:104E400040420F00480000100024F400000002401F
:104E5000FFFF00F04E4800680121C9038843401855
:104E60004B49086070474A4800680121C9038843DC
:104E7000474908607047474A5269920A920283057F
:104E80009B0D1A43434B5A610902090AFF2900D8B6
:104E90009915404A9269120E12060B021B0A1A4318
:104EA0003C4B9A6170473B488068000A0002AA3078
:104EB0003849886008468068000A000255308860DA
:104EC0007047FF21F531334A5268120E1206030271
:104ED0001B0A1A432F4B5A6000BF0A46491E002A7C
:104EE000FBD1704770B504460025FF26F5362848EB
:104EF0008038406AC004C00F002801D0B50101E02D
:104F0000254805682146694308467D21C90000F00F
:104F100045F885081F484068000E00062902090A66
:104F200008431C49486000BF3046761E0028FBD16C
:104F300070BD184800680221884316490860704710
:104F40001448006804218843124908600846006834
:104F50000821884308300F49086070470D48C06831
:104F600070470C48006820218843203009490860B8
:104F700008460068402188434030064908600846DA
:104F80000068802188438030024908607047000033
:104F900080800440004000404C00001030B50B46BB
:104FA000014600202022012409E00D46D5409D4203
:104FB00005D31D469540491B254695404019154689
:104FC000521E002DF1DC30BD70B5002425460028AE
:104FD00001DA01244042002901DA01254942FFF7A4
:104FE000DDFFAC4200D04042002C00D0494270BDF1
:104FF000D2B201E00270401C491EFBD27047002271
:10500000F6E710B513460A4604461946FFF7F0FFC7
:10501000204610BDF8B502464A40D40F42004B006E
:1050200052085B089A4202D20246084611464A00DC
:1050300023D0C30D4A00DDB2120EAD1A202D35DA91
:1050400049020126490AF6058A19002C00D052426D
:1050500020214F1B1146B9402A411018C20D9A4217
:1050600021D0002C17D0012D08DCDA05801AD20FD0
:105070008019D207DBB200F008FAF8BDDA05801A11
:10508000012340001B06C01880185A428018CA0F1E
:105090001043490007E04908C2071143DA05801AA6
:1050A00080194008801800F0E8F9F8BD610001227D
:1050B000511A001BF7E70122D2075140AAE701224B
:1050C000D2075040A6E7024670B54A40D30FDB072F
:1050D00040002DD04A002AD0010E140E0002120208
:1050E0000919400A520A8418E50104465443000A8B
:1050F000120A2E045043A4194219200CC543AA18C1
:10510000120C0125AD03521C521912047F392404DC
:1051100000D0521C104301D44000491EC2B20C06FC
:10512000C0092018401C4008802A02D003E000205B
:1051300070BD40084000002900DA0020184370BD0F
:1051400070B502464A40D50F40004A00ED074008BE
:105150005208002814D0002A12D0C40DD30D4102E9
:105160000120C0055202490A520AE41A091812180D
:105170007D34914201D3641C00E04900002C01DA27
:10518000002070BD0023914201D3891A03434008D7
:1051900049000028F7D100290AD0914202D101210B
:1051A000C90705E0914201D2012101E00121C94373
:1051B000E005C018401900F060F970BDF0B51FB4EB
:1051C00088B00B990998002448400999C00F4900FC
:1051D00049080991C0070B990090490049080B91B3
:1051E00009990898A64608431CD00B990A980843C9
:1051F00018D0099801244000420D4800410D09983B
:1052000024050003000B204309900B980003000BBA
:1052100020430B9050181C4940180022019014465E
:10522000104605E0002001460DB0F0BD032801DA6C
:10523000034600E003239C46C11A0AAE0AE05F0061
:1052400008ADED5B4F00F75B7D430027AA187C415A
:10525000491C5B1E6145F2DD410004AB5A5221043A
:10526000120C0A43240C401C0828DFDB0198029032
:105270000099704601910090059B049A0799069841
:1052800000F049F9D0E700000DFCFFFFF0B50C4637
:105290005C4085B0E40FE40703944C0000266408EA
:1052A00059009446490802460296224321D062469C
:1052B0000A431ED06200570D4A000E032303550D0A
:1052C000012402462C492405781B1B0B360B401881
:1052D00023432643614600901C46501AB44103D331
:1052E0000098401C009002E0921800985B41002852
:1052F00003DA0020014605B0F0BD002001210905B8
:105300000746864611E064461D46141BB54106D388
:105310006546521BB341744607430C43A646CD076E
:1053200040084908284392185B4105460D43EAD1DD
:105330001046184313D06046194650407140084348
:1053400006D06046101AB34106D20122002306E0BF
:1053500000220123DB0702E00122D2435310009810
:1053600074460105381C6141029C039D0019694186
:1053700000F0C4F8BFE70000FD03000010B50022F4
:105380009623114600F081F810BD00000EB50549C6
:105390000291002100910A460B46019100F0BBF8F2
:1053A00003B000BD33040000410040020122400A66
:1053B000D205090E80187F2901DA0020704796294E
:1053C00003DC9622511AC8407047963988407047CE
:1053D0004A0009030123090B1B051943094B10B5AA
:1053E000520D9A4201DA002010BD064B34339A4226
:1053F00003DC9A1A00F030F810BD034951188840B8
:1054000010BD0000FF030000CDFBFFFFCB0FDB074B
:10541000490010B5490802460A4307D00A0D07247F
:105420000903E401090B121B002A01DC002010BD56
:10543000C900440F0C43C100E018D205801800F0E9
:105440001CF810BD0122D207002800DB101A002929
:1054500000DB511A8842704710B5202A04DB084649
:10546000203AD040002110BD0B46D340D04020242C
:10547000A21A91400843194610BD002904DA401CC5
:10548000490001D140084000704770B40024050C69
:1054900005D11024000402D1002921D01124050EC9
:1054A00001D100020834050F01D10001241D850F30
:1054B00001D18000A41C002801DB4000641C0029ED
:1054C00008D020252E1B0D46F540A14000D001211B
:1054D0002943084301061B1B000ADB1D02D50020DF
:1054E00070BC7047DB05181880180029F8DA401CDA
:1054F0004900F5D170BC40084000704710B5002B42
:1055000008DA0024401C614192185B411A4301D122
:105510004008400010BDF0B51FB482B005460C0035
:1055200003D0084600F07AF802E000F077F8203067
:10553000024600902146284600F052F8049B059A46
:1055400004460F4618431143084314D0184610432D
:105550001BD0009840210A1A18460599FFF77CFFD6
:1055600005460E46009A0599049800F039F808435C
:1055700005D0012004E02046394607B0F0BD0020E8
:10558000C11705430E432C43374300990E9863051A
:10559000401A7905E40A00220C43FD0A0A3002D5BC
:1055A00000200146E9E70105101969410C9C0D9D99
:1055B00000196941FFF7A2FFDFE70000064C012553
:1055C000064E05E0E36807CC2B430C3C98471034AB
:1055D000B442F7D3FAF778FD1C5900003C5900009B
:1055E00010B5202A04DB0146203A9140002010BD6E
:1055F000914020239C1A0346E3401943904010BD7C
:105600000FB410B5024604A9034B039800F03AF812
:1056100010BC08BC04B01847D91A00002021020CA5
:1056200001D010211046020A01D0104608390209A3
:1056300001D01046091F820801D01046891E420879
:1056400001D0881E7047081A704730B47446641E33
:105650002578641CAB4204D3635D5B00E31830BC67
:1056600018471D46F8E702E008C8121F08C1002AC3
:10567000FAD170477047002001E001C1121F002AD3
:10568000FBD17047FFB58DB00F460546002606E0FA
:1056900025280AD0109A0F9990476D1C761C2878FF
:1056A0000028F5D1304611B0F0BD00240121674A31
:1056B000009400E004436D1C2B780846203B984082
:1056C0001042F7D128782E2815D104200443687899
:1056D0006D1C2A280AD101CF6D1C00900BE00099A7
:1056E0000A225143303940186D1C00902878014639
:1056F00030390929F3D92878692843D006DC0028F5
:10570000D0D063280BD0642804D13BE073280FD09D
:1057100075284CD0109A0F999047761C94E03878F1
:10572000694608720020487202A80190012003E037
:10573000386801900020C0433F1D61070CD500244C
:1057400000E0641C00998C420FDA8442F9DB019975
:10575000095D0029F5D108E0002400E0641C8442C2
:10576000FCDB0199095D0029F8D1361907E00198A1
:1057700001990078491C0191109A0F999047641E75
:10578000F5D261E00A20019001CF002802DA404200
:105790002D2102E0210504D52B216A461172012139
:1057A00003E0E10701D02021F7E70C9104E00A2093
:1057B000019001CF00210C910BA90B9108E00199F8
:1057C000FFF7ECFB0A460B993032491E0B910A7029
:1057D0000028F4D10B9803A9081A20300190600723
:1057E00001D5009801E0012000900199884203DD75
:1057F00001460198081A00E000200024009006E00D
:1058000002A8109A005D0F999047641C761C0C98B2
:105810008442F5DB04E0109A30200F999047761C03
:105820000099481E00900029F5DC08E00B980B99C0
:105830000078491C0B91109A0F999047761C01999A
:10584000481E01900029F1DC6D1C28E709280100A1
:105850004C6F77506F776572436F6E73756D7074B0
:10586000696F6E436F6E666967006B61725F6F662A
:1058700066006B61725F6F6E00706F7765725F6B51
:1058800065795F6576656E7400706F7765725F4FDE
:1058900046465F4F4E0048616E646C65725F657688
:1058A000656E74006765745F6B61725F72756E5FC1
:1058B00073746174650073746174655F72756E5F93
:1058C0006D6F6E69746F72696E67006B61725F6392
:1058D0006F6E6E656374006765745F6164635F76A5
:1058E000616C75650075617274305F6765745F63C4
:1058F0006D64005254435F53746172740053657455
:105900005F416C61726D5F436C6F636B00536574D4
:105910005F646174655F74696D6572003C59000075
:10592000000000108800000066560000C459000006
:1059300088000010B0030000765600000204060044
:1059400000006401000000000003000000000000EF
:105950000000000000000000000000000000000047
:10596000000000000000C84200000000000000002D
:105970000000000000000000000000000000000027
:1059800006010000006CDC02006CDC02000000007C
:105990000000000000000000000000000000000007
:1059A00000000000000000000000000000000000F7
:1059B00000000000000000000000000000000000E7
:0459C00000000000E3
:04000005000000C136
:00000001FF
