:020000040000FA
:10000000400300104122000045220000472200006A
:1000100000000000000000000000000000000000E0
:100020000000000000000000000000004922000065
:1000300000000000000000004B2200004D220000E4
:100040004F2200004F220000BD280000110F0000C9
:100050004F2200004F2200004F22000049110000F3
:100060004F220000E30D00004F2200004F2200004D
:100070003B0C0000890C0000F70B00004F22000031
:100080004F2200004F22000000000000000000008E
:100090000000000000000000000000000000000060
:1000A0000000000000000000000000000000000050
:1000B0000000000000000000000000000000000040
:1000C0000348854604F0F8F9004800476B06000035
:1000D0004003001008B5FB4803F0C3FCF94803F0E7
:1000E000BBFC00200123024604210090184600F0CA
:1000F000EFFA00200123024608210090184600F084
:10010000E7FA08BD08B5002001230322042100906E
:10011000184600F0DDFA0020012303220821009098
:10012000184600F0D5FA02230022E1214902E548F1
:1001300003F0EEFB072001218140E34A116000BF7C
:1001400008BD10B5052000F0BEFE002844D00420F4
:1001500000F0D1FE01210520000702F0BDFA0028C1
:1001600019D1DA480088401CD84908800846008820
:10017000642803D10020D649087007E0D3480088DE
:10018000D449884202DD0220D149087001210520AE
:1001900000F092FE20E0CD480088002803D0CB4834
:1001A0000088642809DB0020C8490880CA48008804
:1001B00008218843C84908800EE0C44800886428A4
:1001C0000ADA0120C149088000200880C24800885E
:1001D00008218843C049088010BD10B5BC4800788C
:1001E000002806D001284ED0022872D0032877D1EB
:1001F0005BE0BA48007800282CD001283CD00228C7
:100200003ED1B7480078232807DC012149030520A7
:10021000000702F061FA002813D0FFF773FF0020F7
:10022000AE4908700121C9030520000702F048FA11
:100230000020AC4908701422FF21042001F098FB33
:1002400004E008220321012001F092FB0620A049CE
:10025000087016E00F22FF21012001F089FB002029
:1002600000F0DCFE202000F0E5FE02209D49087031
:1002700006209749087004E001209549087000E0C5
:1002800000BF00BF2DE09548007801280CD1810304
:100290000520000702F014FAFF21F531062000F0D6
:1002A0000BFE03208A4908701BE0062000F00BFEBD
:1002B00000280BD0012189030520000702F004FA71
:1002C00006208349087001208649087009E000E093
:1002D00006E001208449087006207D49087000E08E
:1002E00000BF00BF10BD10B57B480078C007C00F2D
:1002F000002818D07D480078002807D108217C48C4
:1003000002F0E2F901207949087006E008217848F6
:1003100002F0D6F90020754908706F48008840083F
:1003200040006D4908806C48008802210840002880
:1003300007D001F0A9FD684800880221884366497A
:1003400008806548008804210840002806D06248DB
:10035000008888436049088001F096FD5E48008867
:1003600010210840002818D05C480078002807D0E9
:10037000012806D0022808D100205549087005E060
:1003800004E001205249087000E000BF00BF52485D
:10039000008810218843504908804F480088202158
:1003A000084000280FD0022000F038FE4C480078AA
:1003B00000F034FE252000F03DFE47480088202153
:1003C000884345490880444800880821084000289F
:1003D00004D0FFF7B6FE00204649087010BD10B5E6
:1003E00045484078002806D0012816D0022808D0B9
:1003F00003281DD115E00020384908703D490870D8
:1004000016E00121C9030520000702F05DF9FFF79E
:1004100061FE0220314908700AE001202F4908706E
:1004200006E0032001F0AAFE00202E49087000BF5C
:1004300000BF10BD10B504466078002801D001202F
:1004400000E000202D490870A0784870012000F0DD
:10045000E5FD072000F0EEFD10BD10B5072000F00F
:1004600032FD002867D01F480078022810D12148AB
:100470000078142850DD022001F080FE0220174988
:10048000087000201B49087004201649087043E0DA
:1004900014480078002804D118480078002800D0BB
:1004A00000BF1048007801282AD11248007814288B
:1004B00032DD032001F062FE00200E490870094978
:1004C000087029E00080004000E100E00600001014
:1004D00002000010140500001000001000000010C1
:1004E0000A000010010000100C00001012000010A3
:1004F00000000250090000107000001004000010FD
:1005000069480078002804D168480078002800D0A5
:1005100000BF00206649087065480078FE2800DBAF
:1005200004E063480078401C614908707D21C900DF
:10053000072000F0C1FC10BD10B50A2000F0C3FC7C
:1005400000283FD0002000F0BBFB5A490870084645
:10055000007822280EDA5448007800280AD10121B8
:1005600049030520000702F0B7F800281BD15249C3
:10057000087018E04F480078232814DA4F480078B4
:10058000002810D14848007800280CD1012000F044
:1005900045FD4848007800F041FD252000F04AFD67
:1005A00006204649087045480078002805D0434891
:1005B0000078401E4149087000E000BF40490A2011
:1005C00000F07AFC10BD10B53E4800F097FD3D48A4
:1005D0000078052827D008DC01280FD0022817D082
:1005E00003281CD0042839D125E006281FD007286D
:1005F00025D00F2812D0252830D124E0122000F079
:100600000DFD122000F00AFD012000F013FD26E090
:10061000FFF7E5FE04202C49087020E01FE0294880
:1006200001F088F91BE0274801F0A8FB17E02548F6
:1006300001F009FD13E0234801F0CCFB0FE0214855
:10064000FFF7F8FE0BE0002000F0E8FC1948007806
:1006500000F0E4FC252000F0EDFC00E000BF00BF4E
:100660001421184803F0CBFC10BD022000F0B5F9AE
:1006700000F0E5F9FFF760FF15E0FFF7A4FFFFF7D3
:1006800032FEFFF7AAFD01F032F901F01DFDFFF780
:10069000E4FE01F0B1FDFFF74FFF0C4800780028A1
:1006A00001D103F014FCE8E7000000100400001082
:1006B000090000100A000010020000100B000010DA
:1006C0008813000070000010010000100C000010E2
:1006D000FFB581B00E4615460120000401F091FEE1
:1006E000082100988843009010210098884310301A
:1006F0000090202100988843009040210098884372
:100700000090802100988843009049000098884319
:1007100000904900009888434018009049000098D4
:100720008843009049000098884300900198012870
:1007300004D002280AD0042814D10DE0052424078F
:100740000C270120400701F05CFE0CE0E24C0D2775
:10075000A00301F056FE06E0E04C0E27A00301F0D6
:1007600050FE00E000BF00BF0098C008C00069074D
:10077000490F08430090052D06D02807000F0128D7
:100780000AD14003864207D108210098884300908F
:1007900010210098884300903146009A019801F09A
:1007A00051FFF0202840002800D00025002D29D13D
:1007B000049800280ED03146204601F07DFF0A98AB
:1007C000002803D0E0683043E0601BE0206930433C
:1007D000206117E0384600F076F93146204601F0F6
:1007E00067FF0A98002805D001223146204601F013
:1007F00096FF04E000223146204601F090FF384683
:1008000000F05AF905B0F0BD08B5012000231A46E2
:10081000022100900420FFF75BFF0020012311223A
:10082000082100900420FFF753FF0020012311222C
:10083000990300901846FFF74BFF01200023112277
:1008400041030090FFF744FF0020034602460121C8
:1008500000900846FFF73CFF002001230246D90321
:1008600000901846FFF734FF00200346024620217F
:1008700000900220FFF72CFF0020034601224021B8
:1008800000900220FFF724FF002003460122802170
:1008900000900220FFF71CFF0020012302462021C8
:1008A00000901846FFF714FF002001230246402164
:1008B00000901846FFF70CFF002001230246D902E2
:1008C00000901846FFF704FF002001230246190399
:1008D00000901846FFF7FCFE00200346012291021B
:1008E00000901046FFF7F4FE00200346012202218B
:1008F00000900846FFF7ECFE002001230246082185
:1009000000900220FFF7E4FE0020012302461021A0
:1009100000900220FFF7DCFE0021302002F04CFBAB
:10092000002003460522102100900120FFF7D0FE91
:1009300008BD08B5002001231A46014600900A2090
:1009400002F03EFA012002F093FB012002F095FB39
:1009500000220121104602F095FB02F0F2FB08BDD7
:1009600010B50120800301F04CFD03F098F96420DC
:1009700003F040F9102003F052FA0421084603F076
:100980003CFA00220121104603F09DF9102003F0EB
:1009900029FA03F05CFA092000F095F8092000F02C
:1009A0008BF810BD10B54E494E4802F015FD4D486C
:1009B00002F077FD022264214A4802F061FD4948B5
:1009C00002F07EFD032000F077F8464840684008BA
:1009D0004000401C4349486010BD10B5044601F07A
:1009E00085FC0120C00301F00CFD032001F08FFC09
:1009F0003D49002003F053FA7D21C90061430846B8
:100A000003F084FA394800680221884337490860B6
:100A1000084600688021884334490860FF20F5308B
:100A2000096849084900491C304A116000BF014665
:100A3000421E90B20029FAD103F049FA10BD10B558
:100A400001F054FC00F086FAFFF7DEFE28A003F068
:100A500045FD2CA003F042FD2EA003F03FFDFFF763
:100A600068FF31A003F03AFDFFF77AFF33A003F0EF
:100A700035FDFFF797FF36A003F030FDA022FF21E0
:100A80009131012001F08CFE00F0D5FF36A003F07B
:100A900025FD00F097F839A003F020FD1E22FF216C
:100AA000062000F065FF3BA003F018FD01F0ECF913
:100AB0003DA003F013FD10BDC206D20E01219140EE
:100AC0003F4A11607047C206D20E012191403C4A54
:100AD0008032116070470000000001500000025099
:100AE000A086010000000140FFFFFF000040004021
:100AF000554152545F496E69745F747275650D0A91
:100B0000000000005744545F496E69745F74727549
:100B1000650D0A004750494F5F496E69745F7472F2
:100B200075652E0D0A00000050574D5F496E6974BF
:100B30005F747275652E2E0D0A0000004144435FFC
:100B4000496E69745F747275652E2E2E0D0A000051
:100B500054494D45525F496E69745F747275652ED4
:100B60002E2E2E0D0A0000005254435F496E697408
:100B70005F747275652E2E2E2E0D0A00636C6561F2
:100B8000725F616C6C5F6576656E742E2E2E2E2EF4
:100B90002E0D0A00636C6F73655F4C45442E2E2E3C
:100BA0002E2E2E2E0D0A0000636C6F73655F4D4F65
:100BB000544F2E2E2E2E2E2E2E2E0D0A000000000B
:100BC00000E100E0AF48008840084000AD490880DF
:100BD0000846008804218843AA49088008460088FE
:100BE00002218843A74908800846008810218843CD
:100BF000A4490880704710B5A34801F08CFD012876
:100C000002D002280ED106E09E4800880421084345
:100C10009C49088007E09B480088012108439949C6
:100C2000088000E000BF00BF974801F074FD044653
:100C30002146954801F06BFD10BD10B50520000759
:100C400001F069FD012804D001214903401A0ED1A9
:100C500006E08C480088082108438A49088007E09C
:100C600088480088202108438649088000E000BFAA
:100C700000BF0520000701F04EFD04462146052077
:100C8000000701F044FD10BD10B5804801F043FDA0
:100C9000012802D0202808D100E007E07948008828
:100CA000102108437749088000E000BF00BF774863
:100CB00001F031FD04462146744801F028FD10BDC5
:100CC000F1B594B014210FA803F099F900200E900B
:100CD0000120800301F095FB0920012181406C4A2D
:100CE000116000BF00244EE06A48006840084000E0
:100CF000401C6849086000BF674800780028FBD1A5
:100D0000149803F019FB0791069064490968644A36
:100D10005143084603F010FB0546624A624B03F05C
:100D20002BFA0022614B0191009003F08DFA002212
:100D30005F4B0391029003F087FA05910490079BA3
:100D4000069A03F00BFA002201239B0709910890F1
:100D500003F012FA0022574B0B910A9003F074FA39
:100D60000D910C9003F0F6FA0FA908550FA8005D3D
:100D70002A2802DD601EC4B200E000BF01204649FF
:100D80000870601CC4B2142CAED30120800301F0A3
:100D900040FB0920012181403D4A8032116000BFA3
:100DA000002718E0002412E00FA8015D0FAA601CC4
:100DB000105C814209DD0FA8005D0E900FA9601C38
:100DC000085C0855611C0E985054601CC4B2132C6A
:100DD000EAD3781CC7B2142FE4D310A8807915B0D9
:100DE000F0BD08B52B484038006BC1B20091684691
:100DF0000078102828D008DC01280DD0022811D056
:100E0000042815D0082837D118E0202822D04028FF
:100E100026D0802830D129E0002002F0E6FF1F49CB
:100E200008602AE0012002F0E0FF1C49086024E08D
:100E3000022002F0DAFF194908601EE0032002F0E8
:100E4000D4FF1649086018E0042002F0CEFF1349D1
:100E5000086012E0052002F0C8FF104908600CE0AD
:100E6000062002F0C2FF0D49086006E0072002F0EC
:100E7000BCFF0A49086000E000BF00BF002006492F
:100E8000087008BD10000010000002500000015062
:100E900000E100E0400002401300001014000010C8
:100EA000A08601006666666666660A4000FEAF4080
:100EB00000408F40000024404200234B99524200E2
:100EC000224B99527047014648001F4A105A4A0067
:100ED0001E4B9A5A904205DD48001A46105A4A00A5
:100EE000194B98524800184A105A002801D1012085
:100EF00070470020FCE710B5044621460820FFF7A4
:100F0000DBFF00BF0820FFF7DEFF0028FAD010BD8E
:100F100010B5002400BF10E060000B49085A0028FB
:100F200006DD6000085A401E6100074A505203E087
:100F300000206100044A5052641C0B2CECD304487E
:100F400002F0B8FA10BD0000840000109A000010F2
:100F50000000014008B50120000401F052FA012010
:100F6000400701F04EFA0120000301F04AFA009810
:100F7000C008C000C01C0090082100988843009061
:100F80001021009888431030009020210098884359
:100F90000090402100988843009080210098884369
:100FA00000904900009888430090490000988843C9
:100FB000401800904900009888430090490000982C
:100FC000884300904900009888434018009004210D
:100FD0000120009A01F036FB0098C008C000C01C38
:100FE000009008210120009A01F02CFB022300222E
:100FF000E1214902AA4802F08BFC0720012181402F
:10100000A84A116000BF08BD00BFA54A5268520738
:10101000D20F002AF9D1A24A10607047A249C97CB8
:10102000A14AD27C521CD3B29F4AD374091D521ECE
:101030005054704770B5014600220020FF239A4C9F
:10104000203CE37723465C7A1F335C701F3B5B7A5E
:101050005B1C954C203C6372934BDB7C9B1CDCB28D
:10106000914B5B1E9C70D970022005E08E4B5B1E7D
:101070001B5C5A40431CD8B28B4BDB7C1B1D83424C
:10108000F4DC894BDB7C884CE47C641CE5B2864C48
:10109000E5741B1D641EE254FE25631CDB7C641C8E
:1010A000E47C641CE6B2804CE6741B1D641EE554AF
:1010B000002012E000BF7A4B5B685B07DB0F002B60
:1010C000F9D1774B1B681C0A2402774B5B1E1B5C13
:1010D0001C43734B1C60431CD8B2734BDB7C1B1D41
:1010E0008342E7DC0024704BDC74203B5B7AFF2BEF
:1010F00003DB00236C4C203C637270BD70B5054669
:10110000002469482038006800281CD000BF05E092
:1011100065481538005D2855601CC4B26248203807
:101120008079A042F4DC604820388079A04201DD5B
:10113000012000E000205C492039086014215A4851
:10114000153802F05CFF70BD70B500240025002644
:101150005348C0688007C00F00287AD05048006804
:10116000C4B2514820384079030003F0D8F906048E
:101170000D151C315D85FF2C01D1012000E0002000
:1011800049492039487178E04748203804720220E4
:1011900045492039487170E0601E43492039887103
:1011A0000320487169E040482038C179C079401C6B
:1011B0003D4A203AD07110460B3044540B388079A8
:1011C0001146C979884202D104201146487154E081
:1011D000002605E034481538805D4540701CC6B2D5
:1011E000314820388079B042F4DC2F4820388079AB
:1011F000401C6840C5B2A54204D105202A492039C7
:10120000487110E028492039087AFFF707FF0120CC
:10121000FFF704FF0E20FFF70DFF002022492039C1
:101220004871C871086028E0FE2C13D11E4920398E
:10123000087AFFF7F3FE0020FFF7F0FE0E20FFF71D
:10124000F9FE0020184920394871C8710120086052
:1012500011E013E014492039087AFFF7DFFE03207C
:10126000FFF7DCFE0E20FFF7E5FE00200E492039D7
:101270004871C871086000E000BF00BF0848C0683E
:10128000C007C00F002806D00548C06840084000CD
:10129000401C0349C860024802F0D9FB70BD000041
:1012A0000080004000E100E0D000001038B50446A6
:1012B0000120000401F0A5F80120400701F0A1F889
:1012C0000120800701F09DF80821009888430090D4
:1012D0001021009888431030009020210098884306
:1012E0000090402100988843009080210098884316
:1012F0000090490000988843009049000098884376
:101300000090490000988843009049000098884365
:1013100000900098C008C000009080210120009A31
:1013200001F090F90098C008C0000090FF21013141
:101330000120009A01F086F90098C008C0000090D2
:10134000012149020120009A01F07CF90098C008AF
:10135000C000009001210220009A01F073F90721DA
:10136000C9010520000701F0A7F90121F84801F0A3
:10137000A3F92007000F04282CD006DC002850D049
:10138000012807D0022857D114E0082833D00F28AD
:1013900052D13BE0FF2101310520000701F090F917
:1013A0000521C901480501F08FF90121E84801F044
:1013B0008BF942E080210520000701F081F903212B
:1013C00009020520000701F07FF90121E04801F042
:1013D0007BF932E0012149020520000701F070F994
:1013E000FF2181310520000701F06EF90121D84865
:1013F00001F06AF921E00721C9010520000701F089
:1014000063F90121D24801F05BF916E00721C90117
:101410000520000701F054F90121CD4801F050F9F1
:101420000BE00721C9010520000701F04DF901215A
:10143000C74801F049F900E000BF00BF38BD38B52A
:1014400004460120000400F0DCFF0120400700F00A
:10145000D8FF0120800700F0D4FF082100988843BE
:1014600000901021009888431030009020210098AF
:101470008843009040210098884300908021009884
:1014800088430090490000988843009049000098E4
:101490008843401800904900009888430090490014
:1014A0000098884300900098C008C000401C00903D
:1014B00080210120009A01F0C5F80098C008C00002
:1014C000401C0090012149020120009A01F0BAF865
:1014D0000098C008C000401C009001210220009A22
:1014E00001F0B0F80098C008C000401C0090FF2137
:1014F00001310120009A01F0A5F821460F2001F0EA
:101500005BFD38BD10B504462007000F030003F053
:1015100006F8106709153B216E476E2E6E6E6E54ED
:101520006E6E606E20210520000701F0C9F8612170
:1015300089010520000701F0C7F859E04021052086
:10154000000701F0BDF8C12149010520000701F0A5
:10155000BBF84DE00121C9020520000701F0B0F8F9
:10156000832149010520000701F0AEF840E0012188
:1015700009030520000701F0A3F8432149010520D4
:10158000000701F0A1F833E060210520000701F019
:1015900097F80321C9020520000701F095F827E01C
:1015A000212189010520000701F08AF881214901E4
:1015B0000520000701F088F81AE00321C902052080
:1015C000000701F07DF860210520000701F07CF89C
:1015D0000EE0C32149010520000701F071F807E082
:1015E000C32149010520000701F06EF800E000BFAB
:1015F00000BF10BD10B50020FFF765FC002843D0E8
:1016000054480078002811D053480078401C5249B3
:10161000087008460078632814DB00204D490870E4
:101620004E480078401C4D4908700BE04A4800784D
:10163000401E4949087008460078012802DC012054
:10164000444908704648007944490978884203D1E2
:1016500000204349487106E041480079FF2802D143
:1016600000203E4908700F20FFF74CFF3A480078F1
:10167000FFF7E5FE3A4908680A2102F0A3FC84B2AC
:1016800021460020FFF718FC10BD10B50F20FFF712
:1016900039FF0F20FFF70AFE10BD10B50020FFF73D
:1016A00005FE0020FFF72EFF10BD10B50020FFF74C
:1016B0000AFC00283BD02B480078082803DA294888
:1016C0000078002801D1012002E02648007840007F
:1016D000244908700F20FFF7E9FD22480078FFF742
:1016E00011FF1E490878C117890F091889101C4A73
:1016F0001279914203D100201949487106E0184837
:101700000079FF2802D1002014490870154800789C
:10171000082805D111480078401C1049087000E0E5
:1017200000BF0F48008881B20020FFF7C5FB10BD45
:1017300010B50020FFF7C7FB002847D00948007804
:10174000012803DD0748007808280DDD08200EE099
:10175000000001501B0000101A0000101C000010B7
:1017600020000010190000108C48007840108B49B0
:1017700008700F20FFF79AFD88480078FFF7C2FE37
:1017800087490878C117890F09188910854A127985
:10179000914203D100208349487106E081480079D5
:1017A000FF2802D100207E4908707C48007801287B
:1017B00005D17B480078401C7949087000E000BFE3
:1017C0007848008881B20020FFF776FB10BD10B585
:1017D0000020FFF778FB00284ED0734800780028DF
:1017E00001D1012001E0704800786F4908706B4812
:1017F00000780C2803DA69480078002801D103201A
:1018000002E0664800784000644908706648007845
:10181000FFF74CFD61480078FFF774FE5F480078E1
:101820000C2812DB60480078082808DB01205E499C
:1018300008705B480078401C5949087005E05A4818
:1018400000784006000E58490870564800795449FF
:101850000978884203D100205249487106E0514876
:101860000079FF2802D100204D4908704D480088BA
:1018700081B20020FFF720FB10BD10B50020FFF75C
:1018800022FB002832D048480078FFF73BFE46484C
:101890000078FFF70BFD44480078002801D00020B5
:1018A00000E00F20404908703E4800793C49097823
:1018B000884203D106203B49487106E03948007947
:1018C000FF2802D1002036490870374800780028E8
:1018D00005D033480078401C3149087000E000BF53
:1018E0003048008881B20020FFF7E6FA10BD10B53D
:1018F0002C484079030002F012FE07050B0E171169
:1019000014081A00FFF7C1FE12E0FFF7C6FE0FE051
:10191000FFF7B3FF0CE0FFF76DFE09E0FFF7C5FE30
:1019200006E0FFF705FF03E0FFF751FF00E000BF0F
:1019300000BF10BD1B4949794278914217D04178C8
:10194000072914DA0021194A1170174A1170134A35
:101950001170134A1170164A11704178114A517171
:10196000C178117181780A2251430E4A1160704783
:1019700010B5072811DA00230C4C23700A4C237091
:10198000064C2370064C2370094C2370054B58718C
:1019900019710A235343034C236010BD1900001032
:1019A0001C00001020000010180000101B00001088
:1019B0001A0000100146002204E0501CC2B2084682
:1019C0000A38C1B20A29F8DA1007000E0843704736
:1019D000014600BFF020084000110A235843024688
:1019E0000807000F8018C0B2704770B504460D4656
:1019F0002A462146A22001F0F2F870BD10B5044637
:101A00002146A22001F039F910BD70B504460D46FB
:101A100016462B4632462146A22001F002F970BD3F
:101A200070B504460D46164633462A462146A22086
:101A300001F046F970BD10B500240020FFF7DEFF6D
:101A4000044620202040002801D0DF2004408020D0
:101A50002040002801D1F720044021460020FFF754
:101A6000C4FF00210120FFF7C0FF7F210D20FFF7F9
:101A7000BCFF7F210E20FFF7B8FF10BD10B5044654
:101A8000207A632801DD00202072E0790C2801DD36
:101A90000120E07160791F2801DD01206071A079CB
:101AA000062801DD0120A0712079172801DD002022
:101AB0002071E0783B2801DD0020E070A0783B2811
:101AC00001DD0020A070207AFFF774FF2072E0791A
:101AD000FFF770FFE0716079FFF76CFF6071A0792C
:101AE000FFF768FFA0712079FFF764FF2071E078AD
:101AF000FFF760FFE070A078FFF75CFFA070E0796F
:101B000080218843E0716079DE490870A0794870CF
:101B1000E0798870207AC8700A4604210520FFF712
:101B200074FFA078D7490870E078487020798870F1
:101B30000A4603210220FFF768FF10BD10B50446D6
:101B4000D04A04210520FFF76BFFCE4800788006BD
:101B5000800ECC490870084640784007400F487016
:101B600008468078C006C00E88700846C078C870E5
:101B7000C878FFF72DFF2072C2498878FFF728FF49
:101B8000E071C0490878FFF723FF6071BD494878CC
:101B9000FFF71EFFA071BB4A03210220FFF740FFA1
:101BA000B84800784006400EB649087008464078AC
:101BB0004006400E4870084680788006800E887087
:101BC0008878FFF705FF2071AE494878FFF700FFDE
:101BD000E070AC490878FFF7FBFEA07010BD70B54F
:101BE00005460C460026607A3B2801DD0020607225
:101BF000A07A172801DD0020A072E07A1F2801DDFD
:101C00000120E072207B062801DD01202073607A2C
:101C1000FFF7D0FE6072A07AFFF7CCFEA072E07AE8
:101C2000FFF7C8FEE072207BFFF7C4FE207301209F
:101C3000FFF7E4FE0646FD200640F7200640314649
:101C40000120FFF7D2FE04202840002803D0E07ACC
:101C50004006400E02E0E07A80210843E072022054
:101C60002840002803D0A07A4006400E02E0A07A67
:101C700080210843A072E807C00F002803D0607AD3
:101C80004006400E02E0607A80210843607208201E
:101C90002840002803D0207B4006400E02E0207B35
:101CA00080210843207302200643F7200640607A13
:101CB00074490870A07A4870E07A8870207BC870F8
:101CC0000A4604210920FFF7A0FE31460120FFF754
:101CD0008CFE70BD10B504466A4A04210920FFF746
:101CE0009FFE684800784006400E66490870084626
:101CF00040788006800E4870084680788006800E06
:101D000088700846C0784007400FC8708878FFF791
:101D10005FFEE0725B494878FFF75AFEA0725949AE
:101D20000878FFF755FE60725649C878FFF750FEF5
:101D3000207310BD10B500240120FFF75FFE04469C
:101D40000C212046884304460220044321460120FA
:101D5000FFF74BFE10BD10B500240120FFF74EFE2B
:101D600004460C212046884304460221204688432D
:101D7000044621460120FFF738FE10BD1FB504467A
:101D8000FFF7D8FF2179684641726178C172E17826
:101D90008172A178017369460320FFF720FF68462E
:101DA000FFF798FF6846407A217988420BD1684650
:101DB000807AE178884206D10120FFF72FF92320AD
:101DC000FFF738F905E00020FFF728F92320FFF797
:101DD00031F91FBD1FB50446617868460172A178CC
:101DE000C171E17841712179817161790171A179C4
:101DF000C170E1798170FFF741FE6846FFF79EFEF2
:101E00006846C078A179884210D168460079617926
:101E100088420BD168464079E178884206D101209A
:101E2000FFF7FCF82220FFF705F905E00020FFF797
:101E3000F5F82220FFF7FEF81FBD1FB56846FFF733
:101E40007DFE6946087AFFF7E9F86946C879FFF729
:101E5000E5F869464879FFF7E1F869468879FFF7C0
:101E6000DDF869460879FFF7D9F86946C878FFF7C1
:101E7000D5F869468878FFF7D1F82420FFF7DAF81B
:101E80001FBD00002800001010B50821B84800F060
:101E90001BFC1021B64800F017FC0021302001F097
:101EA0008BF80020B349087000210220FFF704F8E6
:101EB0005621B14802F0A3F810BD10B50821AC4876
:101EC00000F002FCAC480178202001F075F81021E8
:101ED000A74800F0F5FBA8484178102001F06CF805
:101EE00010BD10B51021A24800F0EEFB002110201B
:101EF00001F062F808219E4800F0E6FB9E48017858
:101F0000202001F059F810BD10B51021984800F0BC
:101F1000D7FB99484178102001F04EF808219448E9
:101F200000F0D2FB0021202001F046F810BD10B5D2
:101F300010218F4800F0C8FB0021102001F03CF870
:101F400008218B4800F0BCFB8B480178202001F071
:101F500033F810BD10B51021854800F0B5FB864858
:101F60004178102001F028F80821814800F0ACFBEE
:101F70000021202001F020F810BD10B510217C4870
:101F800000F0A2FB7C484178102001F015F80821F0
:101F9000774800F095FB78480178202001F00CF894
:101FA00010BD10B50821724800F08EFB7248017810
:101FB000202001F001F810216D4800F085FB6E48EB
:101FC0004178102000F0F8FF10BD10B508216848D6
:101FD00000F076FB68480178202000F0EDFF10212A
:101FE000634800F06DFB64484178102000F0E4FF86
:101FF00010BD10B56048C078030002F090FA0906E1
:10200000090C0F1215181B1E2100FFF73DFF18E0E9
:10201000FFF753FF15E0FFF7B0FF12E0FFF761FF96
:102020000FE0FFF771FF0CE0FFF781FF09E0FFF71A
:1020300091FF06E0FFF7B5FF03E0FFF7C6FF00E002
:1020400000BF00BF10BD10B504466079FF280CD159
:10205000207949498870A0784870E07808706078E5
:10206000C8700120434908702DE06078092806D126
:1020700060794149487104203E49087023E0607846
:10208000002802D1FFF700FF1DE06079FE281ADA70
:102090006178607982003848801D815421796079A7
:1020A00082003548801D10184170A1786079820047
:1020B0003148801D10188170E178607982002E48C7
:1020C000801D1018C17010BD10B52A480078002876
:1020D0004DD00220FEF7F7FE002848D025480078B2
:1020E00004282FD12448007981002348801D081836
:1020F0004078214988700846007981001E48801D7B
:10210000081880781C4948700846007981001A48F0
:10211000801D0818C07818490870084600798100A9
:102120001548801D405C1449C870084600794979FB
:10213000884201DB002002E00F480079401C0E4974
:1021400008710AE00B480078022803D100200A49F0
:10215000C87002E0022007490870FFF74AFF0648EE
:1021600080781922504301460220FEF7A5FE10BDDB
:10217000000001502C000010E4000010062801DAD5
:102180002D49087070477047704710B50121C90389
:102190000520000700F098FA1422FF210620FFF71F
:1021A000E7FB06202449087010BD10B523480078CD
:1021B00000280ED00121C9030520000700F084FA91
:1021C00000201E490870FF21F5310920FEF774FE3A
:1021D0000FE00920FEF777FE00280AD001201749FA
:1021E0000870C1030520000700F06AFA06201249B2
:1021F000087010BD7047704710B50F480078030095
:1022000002F08DF90604070A0D101316FFF7BBFF45
:102210000FE0FFF7B9FF0CE0FFF7B7FF09E0FFF7AA
:10222000C4FF06E0FFF7E6FF03E0FFF7E4FF00E08E
:1022300000BF00BF10BD00002D0000102E000010D8
:1022400003480047FEE7FEE7FEE7FEE7FEE7FEE79E
:10225000C100000010B50548816B0548006801F019
:10226000B1FE0449086010BD704700004080044082
:10227000340000103000001010B50446F748006B21
:102280008007800F002804D1022C02DA0120F449D3
:10229000C860F248806B000A0002E1B20843EF49CF
:1022A0008863FFF7D7FF10BD10B50446EB48406BBD
:1022B00080088000401CE9494863002C05D108468D
:1022C000006B80088000086307E0032C05D1E34819
:1022D000006BA043801CE1490863E048406B800824
:1022E0008000DE494863FFF7B5FF10BD10B5DD483B
:1022F000C06BDD49884203D12420D8494039886227
:102300000020FFF7D1FF0120FFF7B6FF10BD002826
:1023100009D1D2494039496A012212039143CF4A77
:10232000403A516209E0CD494039496A012212031D
:1023300091438918C94A403A5162704700B5030079
:1023400002F0EDF805040A06080C0E00002008E073
:10235000012006E0022004E0032002E0042000E067
:1023600000BD00BFBD498031496A49084900491C88
:10237000BA4A803251621146096AC908C900420747
:10238000520F1143B54A803211621146496A490819
:102390004900516200BFE3E7B0498031896A090A08
:1023A0000902C2B21143AD4A803291627047AF4810
:1023B000AF4908627047A9488030806A000A00026D
:1023C000A6498031886223200001A949086270472C
:1023D000A849C968090A0902C2B21143A54AD160D5
:1023E0007047A449C031896B0143A24AC03291634E
:1023F0007047A049C031896B81439E4AC0329163C6
:1024000070479649403109680143944A403211604F
:1024100070479249403109688143904A40321160C7
:1024200070478E494039496881438C4A403A51602F
:102430001146496801435160704700BFBFF34F8F99
:102440008D488E49C860BFF34F8F00BF00BFFEE7C5
:10245000012807D187490969102291431031854A23
:1024600011610CE08349096910229143814A11618D
:10247000114609694022914340317E4A11617047FB
:1024800076484038006B7047FF2074494039086334
:1024900070477B4800680221884379490860774883
:1024A0000069042188437549086130BF704710B541
:1024B0000A467049C0314860002A05D10968814345
:1024C0006C4BC033196002E06A49C03108600021DA
:1024D00001238B406B4C236000BF10BD6A486549E7
:1024E000C0318860704710B5624BC0339B6B5B0690
:1024F000DB0F002B0CD05F4BC0339B6B4024A343FE
:102500005C4CC034A36300BF1346521CFF2BFBD3AB
:10251000584BC03318635963504B5B6B9B089B004F
:102520005B1C4E4C636323461B6B9B089B009B1CF0
:10253000236323465B6B9B089B0063634F4B1B69C4
:10254000042423434D4C236130BF00BF00BF00BFB4
:1025500000BF00BF414B5B6B9B089B005B1C3F4C6B
:10256000636323461B6B9B089B00236323465B6BC3
:102570009B089B00636310BD20210140002908D007
:102580003C49C031096B202291433A4AC032116361
:1025900008E03849C031096B202291432031354A87
:1025A000C03211633349C031096B082291430831AD
:1025B000304AC03211631146096B402291434031C9
:1025C0002C4AC03211632E49096802229143891CAA
:1025D0002B4A11602949096904221143274A1161D4
:1025E00030BF704701607047082201689143016065
:1025F0001022016891431031016070471022016878
:1026000091430160082201689143083101607047DD
:10261000FF2201320168914301607047FF220132BD
:10262000016891438918016070470122D202016854
:1026300091438918016070470122D20201689143D9
:1026400001607047F7B50346002000240025084FBD
:102650003A46DE05340E00BF27E00000408004400B
:1026600000000650C007FF1F55AAAA5535020000FA
:1026700000400440408104400400FA0500ED00E001
:102680000080034000E100E0FF0F000001268640CB
:1026900035460E462E40002E05D0A601F2198600C2
:1026A000B218029E1660461CF0B21028EEDBFEBD8A
:1026B000026A8A4302627047026A0A4302627047F2
:1026C000C2680A43C260704702690A4302617047E8
:1026D00042690A4342617047024650680840002838
:1026E00001D0012070470020FCE70146486880B215
:1026F000704702680A430260704702688A430260BA
:1027000070470146486880B2704781607047C26B6D
:102710000A43C26370470146886B80B27047436AC0
:102720008B434362036B0B430363002A0BD0012AE4
:1027300002D0022A12D10DE0836A8B438362C36AFE
:102740000B43C3620BE0836A8B438362C36A8B4390
:10275000C36204E0836A0B43836200E000BF00BFF2
:1027600070470000002000BF06E00021F84A115425
:10277000F84A1154411CC8B20828F6DB0021F64A79
:102780001170F64A1160F64A1160F64A1160F64A75
:102790001160F64A1160F64A1170F64A11607047EE
:1027A000F8B504460D461646FFF7DCFFF2494968C6
:1027B0008907C90F4900022211400846EE494968BD
:1027C00091430143EC4A5160114649688907C90F9A
:1027D000012211434900022211400846E649496896
:1027E00091430143E44A5160E34980310968890615
:1027F000C90F012211434901202211400846DE4938
:102800008031096891430143DB4A80321160FF2027
:10281000D10588617D20000168430146D7480068E2
:1028200001F0D0FB87B2012080070069000C000492
:1028300038430121890708617D2000016843014672
:10284000CE48006801F0BEFB87B2012080074069D6
:10285000000C00043843012189074861002C01D194
:102860000846C660002C03D042204107086002E001
:10287000402001060860022001218140C04A116009
:1028800000BFF8BD01218907496888B27047014639
:10289000012080070068084070470121890708600F
:1028A0007047012189078861704701218907886085
:1028B0007047012080078068C0B2704730B5FFF7CD
:1028C000E1FF02464B2A01D0542A09D11020FFF71C
:1028D000E4FF0C20A04908702920FFF7E2FF30BD7B
:1028E00001208007006802210840002870D01D21C7
:1028F0008901104688430246D0B2102837D004DC44
:10290000012807D00B286FD142E0142875D01D286C
:10291000F9D1AEE095480068012813D10020934911
:102920000860904908608A490978491CC8B2FFF7D5
:10293000BCFF8D480068401C8B4908602920FFF7C8
:10294000B0FF13E000208849086086490860012034
:10295000FFF7A3FF7E490878FFF7A7FF82480068CA
:10296000401C814908602820FFF79BFFB5E000204C
:102970007C4908607C490B680968491C7A4C2160D5
:102980007349C85CFFF791FF2820FFF78AFFA4E096
:10299000012080070068C007C00F002819D07048C8
:1029A0000068012806D11020FFF777FF07206A4949
:1029B000087009E06C490B680968491C6A4C216081
:1029C0006349C85CFFF771FF0820FFF76AFF13E057
:1029D00084E064480068401C60490968884205D268
:1029E0000420FFF75AFF04E070E006E00420FFF740
:1029F00058FF2820FFF755FF6FE05B4800685849F3
:102A0000096888420AD258490B680968491C564C23
:102A100021604F49C85CFFF748FF26E04F48006837
:102A200000281CD00020514908604E4908605048D9
:102A30000078002809D046490978491CC8B2FFF738
:102A400034FF2020FFF729FF05E041490978491CA0
:102A5000C8B2FFF72AFF0920FFF723FF3DE010204F
:102A6000FFF71BFF0C203C4908700820FFF719FFF7
:102A700033E0FFF71EFF3B490B680968491C394CDE
:102A800021603449C85420460068401C3349096815
:102A9000884206D20420FFF700FF0820FFF701FF5D
:102AA00013E001208007006804210840042803D1B6
:102AB0000C20FFF7F6FE08E00C20274908701020D4
:102AC000FFF7EBFE0820FFF7ECFE06E00A202249A4
:102AD00008700820FFF7E5FE00BF7EE00023FF201E
:102AE0000130104000284DD000201F4908601D49CA
:102AF0000860FFF7DEFE034601208007C0689842A9
:102B000003D100201B49086019E001208007006AFA
:102B1000984203D101201749086010E00120800786
:102B2000406A984203D102201249086007E0012060
:102B30008007806A984202D103200E490860042071
:102B4000FFF7ABFEFF2001308105886141E0000006
:102B50003800001040000010480000104C00001029
:102B60005000001054000010580000105C000010CD
:102B7000600000106400001000800440300000106D
:102B800000E100E001204002104000280FD00120A9
:102B900080078068C1B2814804680068401C7F4D8E
:102BA00028607F4801550420FFF777FE11E00120DF
:102BB0008002104000280CD07A4800780121890753
:102BC000886078480078401C764908700420FFF738
:102BD00064FE2820C106886100BF00BF7FE630B5D3
:102BE00003460C466E4803704470827000206E49A4
:102BF00008706E49086003206D4908602020FFF7C7
:102C00004CFE00206B49087000BF6A4800780C2811
:102C1000FBD1FF2500BF2846691ECDB20028FAD19E
:102C200030BDF0B504460D4616465D48047045704B
:102C3000002205E0B05C5A49971CC855501CC2B22E
:102C40009A42F7DB00205849087058490860981CE0
:102C5000574908602020FFF720FE002055490870E2
:102C600000BF544800780C28FBD1FF2200BF10465B
:102C7000511ECAB20028FAD1F0BD10B502460B466B
:102C800047480270437002204949086001204749C3
:102C90000860454908702020FFF7FFFD00204549E6
:102CA000087000BF434800780C28FBD1FF2400BF08
:102CB0002046611ECCB20028FAD13F48007810BDF2
:102CC00070B505460E46144635480570467002201C
:102CD00037490860354804600120334908702020D6
:102CE000FFF7DBFD00203349087000BF3148007852
:102CF0000C28FBD1002204E02F48805C9854501C23
:102D0000C2B2A242F8DBFF2200BF1046511ECAB277
:102D10000028FAD170BD10B502460B46204802705B
:102D20004370002020490870204908600220204993
:102D300008602020FFF7B1FD00201E49087000BF89
:102D40001C4800780C28FBD1FF2400BF2046611EE0
:102D5000CCB20028FAD110BD00B50246104802706E
:102D6000012013490860114908600F490870134990
:102D700008602020FFF791FD00200E49087000BF79
:102D80000C4800780C28FBD1FF2300BF1846591EC1
:102D9000CBB20028FAD10848007800BD58000010D6
:102DA0003800001068000010600000104C00001097
:102DB0005000001048000010400000105C0000109F
:102DC000F8B506460C4615461F46FE480068012128
:102DD000490488434018FB490860FB4800686021AB
:102DE00088436101602211400843F7490860F648B2
:102DF0004030806802218843690002221140084364
:102E0000F149403188600846806804218843A90060
:102E1000042211400843EC4940318860084680682C
:102E200008218843E900082211400843E64940315F
:102E300088600846806849158843E34940318860C6
:102E40000846806820218843DF4940318860084671
:102E5000806809158843DC494031886008468068ED
:102E600040218843D8494031886008468068C914A9
:102E70008843D5494031886008468068802188436E
:102E8000D1494031886008468068910288437903BF
:102E9000920211400843CC4940318860012F10D183
:102EA0000120A04070430146C848006801F08AF83C
:102EB000C549486108460068C9148843C24908608A
:102EC00011E00120A04070430146C048006801F0B5
:102ED00079F84008BC49486108460068C91488432D
:102EE0004018B9490860B8484030006A40084000BE
:102EF000401CB549403108620846006A02218843F7
:102F0000801CB149403108620846006A04218843A8
:102F1000001DAD49403108620846006A0821884317
:102F20000830A949403108620846006A10218843E8
:102F3000A549403108620846006A20218843A24919
:102F400040310862A04800688021884380309E4953
:102F50000860084600688915884340189A49086047
:102F60000846006849158843401897490860964804
:102F70004030406A000C0004934940314862924856
:102F8000006802218843801C8F490860F8BD8D4885
:102F900000680121490488438A49086070478A49CA
:102FA00009680F221203914302030F231B031A40E7
:102FB0001143854A11607047F8B507460C46002555
:102FC0004CE00120A84006463E40002E44D02B0095
:102FD00001F0A5FA06040E18222C36407A494969F8
:102FE00061430846642100F0EDFF7749886132E0D3
:102FF0007549496961430846642100F0E3FF72495D
:10300000C86128E07049496961430846642100F0BD
:10301000D9FF6D4908621EE06B4949696143084662
:10302000642100F0CFFF6849486214E066494969AD
:1030300061430846642100F0C5FF634988620AE0E5
:103040006149496961430846642100F0BBFF5E495C
:10305000C86200E000BF00BF681CC5B2062DB0DB2F
:103060005948006802218843801C57490860F8BD10
:1030700014214143544A9163704714214143524AF9
:10308000D163704730B5002804D0012816D002283B
:103090003ED128E04C4B5B685B085B00CC07E40F3B
:1030A0002343494C636023465B680224A3435400D6
:1030B00002252C402343444C63602AE0424B5B686A
:1030C0000424A3438C0004252C4023433E4C63601E
:1030D00023465B680824A343D40008252C402343DF
:1030E000394C636015E0384B5B681024A3430C0136
:1030F00010252C402343344C636023465B68202416
:10310000A343540120252C4023432F4C636000E04F
:1031100000BF00BF30BD2C48806840084000401C04
:10312000294988600846806802218843801C264916
:1031300088600846806804218843001D2249886011
:1031400070472148006840084000401C1E49086044
:103150001D484030C068402188431B494031C86049
:103160000846C0688021884317494031C860084636
:10317000C0688915884314494031C8600846C06852
:103180004915884310494031C8600846C068091590
:1031900088430D494031C8600846C068C914884357
:1031A00009494031C86008480068890488434018CC
:1031B000054908600846006801214906884340180F
:1031C000014905E08080044000C004403000001048
:1031D00008600846006801218906884340187D4937
:1031E0000860084600680121C906884340187949EB
:1031F000086008460068012109078843401875499E
:103200000860084600680121490788434018714951
:1032100008607048403040691021884310306D4983
:10322000403148616B48006802218843801C69492D
:1032300008607047674800684008400065490860BA
:1032400064484030C0684021884340306149403183
:10325000C8600846C0688021884380305D4940319D
:10326000C8600846C06889158843401859494031EC
:10327000C8600846C0684915884340185549403120
:10328000C8600846C0680915884340185149403154
:10329000C8600846C068C914884340184D49403189
:1032A000C8604C480068890488434A490860084659
:1032B00000680121490688434649086008460068BD
:1032C00001218906884343490860084600680121B6
:1032D000C90688433F49086008460068012109077C
:1032E00088433C4908600846006801214907884333
:1032F00038490860374840304069102188433549D3
:10330000403148613348006802218843801C3149BC
:10331000086070472F4909680822914308312D4AF7
:10332000116011460968D2149143C2020123DB02E5
:103330001A401143274A1160704700B5014600202A
:1033400045E0012282400A40002A3ED0030001F0FD
:10335000E6F806040D161F28313A1E4A12680123AA
:103360001B069A43D2181B4B1A602DE0194A1268AB
:1033700001235B069A43D218164B1A6024E0154AC3
:10338000126801239B069A43D218124B1A601BE065
:10339000104A12680123DB069A43D2180D4B1A60BB
:1033A00012E00C4A126801231B079A43D218094BFA
:1033B0001A6009E0074A126801235B079A43D21892
:1033C000044B1A6000E000BF00BF421CD0B20628C8
:1033D000B7DB00BD00C0044070B504460D46F94897
:1033E000844217D1F8480068802188438030F6492C
:1033F0000860F5488038406820218843F2498039C8
:10340000486008464068202188432030EE498039D2
:1034100048601BE0ED48844217D1EB480068A115D5
:1034200088434018E8490860E748803840684021F0
:103430008843E54980394860084640684021884310
:103440004030E1498039486000E070BDE0480068E4
:10345000854201D9DE4805682946DD48006800F04C
:10346000B1FD86B2E068000C00043043E060E16822
:1034700088B2E168090C09040143E16000BFE4E798
:1034800010B583691B0C1B044C1EA4B2234383613B
:10349000426110BD0269120C12048BB21A43026120
:1034A00070470169090C0904016170470146086908
:1034B00080B27047016849084900491C01607047A3
:1034C000416949084900491C4161704741694908FF
:1034D00049004161704770B504460D46BD488442BD
:1034E00017D1B9480068611588434018B64908608B
:1034F000B5488038406880218843B34980394860A6
:1035000008464068802188438030AF498039486050
:103510001BE0B148844217D1AB48006821158843AD
:103520004018A9490860A848803840688915884330
:10353000A549803948600846406889158843401885
:10354000A1498039486000E070BDA148006885420B
:1035500001D99F48056829469D48006800F032FD62
:1035600086B2E068000C00043043E06000BFEBE787
:10357000026FD208D2004B075B0F1A4302677047F5
:1035800030B5036FF024A3434C01F0252C402343B6
:103590000367002A0AD1046F2406240F641C240147
:1035A0002C402346046FAC431C430467036F08247C
:1035B000A3430833036730BD10B5026F0F231B020E
:1035C0009A430B020F24240223401A43026710BDC2
:1035D00030B5036F0F242403A3430C030F252D03E1
:1035E0002C4023430367036F01242404A3431404E2
:1035F00001252D042C402343036730BD70B5846939
:10360000240C24044D1EADB22C4384614469E408AB
:10361000E40055076D0F2C434461C46B3025AC4367
:103620001D01302635402C43C463C46B640864001C
:10363000641CC46370BD70B5C469240C24048DB2CD
:103640002C43C46144693825AC435507AD0E2C4367
:103650004461C46BC025AC439D01C02635402C435A
:10366000C463C46B0225AC43A41CC46370BD70B5B5
:10367000046A240C24048DB22C4304624469FF259F
:10368000C135AC435507ED0D2C434461C46B032594
:103690002D02AC431D020326360235402C43C46381
:1036A000C46B0425AC43241DC46370BD70B5C469EC
:1036B000240C24048DB22C43C461446907256D0297
:1036C000AC4355072D0D2C434461C46B0325AD025B
:1036D000AC439D020326B60235402C43C463C46B41
:1036E0000825AC430834C46370BD10B500290ED062
:1036F000012902D002291FD113E0836A5B085B0015
:103700005B1C8362836A0224A343836215E0836A9D
:103710005B085B008362836A0224A3439B1C836271
:103720000BE0836A5B085B005B1C8362836A022494
:10373000A3439B1C836200E000BF00BF042A05D1A5
:10374000836A0424A3431B1D836203E0836A042469
:10375000A343836210BD10B500290ED0012902D009
:1037600002291FD113E0836A0824A343083383622C
:10377000836A1024A343836215E0836A0824A34369
:103780008362836A1024A343103383620BE0836A4D
:103790000824A34308338362836A1024A3431033AD
:1037A000836200E000BF00BF042A05D1836A2024A1
:1037B000A3432033836203E0836A2024A34383620C
:1037C00010BD000000000140808004400040014026
:1037D000300000100080014000C0014010B50029F9
:1037E0000ED0012902D002291FD113E0836A4024A0
:1037F000A34340338362836A8024A343836215E03A
:10380000836A4024A3438362836A8024A343803372
:1038100083620BE0836A4024A34340338362836A5C
:103820008024A3438033836200E000BF00BF042AEA
:1038300005D1836A9401A3431B19836204E0836A60
:10384000FF240134A343836210BD10B500290FD0BB
:10385000012902D0022922D115E0836A01246402E1
:10386000A3431B198362836A6400A343836217E046
:10387000836A01246402A3438362836A6400A343CE
:103880001B1983620CE0836A01246402A3431B19A1
:103890008362836A6400A3431B19836200E000BF54
:1038A00000BF042A05D1836A5402A3431B19836213
:1038B00004E0836A0124E402A343836210BD01464D
:1038C000C86A80B270470146086B80B270470146F3
:1038D000486B80B270470146886B80B2704782683F
:1038E000120C12048BB21A438260704741680222A4
:1038F0009143891C41604168914341607047014692
:10390000886880B27047FF21016070477047704738
:10391000FFB581B0044616461D46B148844220D109
:10392000072000F055F9AF480068A11488434018FB
:10393000AC49086008468069000A0002401C8861A2
:10394000A8488038406804218843A64980394860E7
:103950000846406804218843001DA2498039486018
:1039600025E0A148844220D1082000F031F99D488B
:1039700000686114884340189A4908600846C06985
:10398000000A0002401CC86196488038406808213F
:103990008843944980394860084640680821884334
:1039A000083090498039486001E005B0F0BD8F488B
:1039B0000299006800F006FB07033F0B2069000D29
:1039C000000538432061022E0AD1A068F101884326
:1039D0004018A060A068490088434018A06010E02B
:1039E000012E09D1A06831028843A060A068490077
:1039F00088434018A06004E0A06801214902884380
:103A0000A060022D05D1A06802218843801CA0601F
:103A10000EE0202D05D1A068202188432030A06031
:103A200006E0082D04D1A068082188430830A06072
:103A3000A0680121C90588434018A060A06849100A
:103A400088434018A060FF20606100BFADE7C168F7
:103A5000FF221143C16070478168090A0902816031
:103A6000704710B504465E48844209D1072000F033
:103A7000AFF85C480068A11488435A4908600DE01B
:103A80005948844209D1082000F0A2F8554800683E
:103A9000611488435349086000E010BD2046FFF7D9
:103AA000DBFF2046FFF7D3FF00BFF6E70246506872
:103AB0008007C00F002803D01068087000207047EE
:103AC0000120FCE730B5002304E004680C70491CB9
:103AD0005C1CE3B24468A407E40F002C04D0157802
:103AE0006C1E1470002DF0D1137030BD024600BF63
:103AF00050684007C00F0028FAD11068000A000281
:103B0000CBB2184310600020704770B50346002404
:103B100000BF0EE000BF58684007C00F0028FAD170
:103B20000878491C1D682D0A2D0205431D60601C84
:103B3000C4B29442EED3002070BD30B50CE000BF9B
:103B400043685B07DB0F002BFAD10B78491C046834
:103B5000240A24021C4304601346521E002BEED19B
:103B600030BD08E000BF42685207D20F002AFAD1E8
:103B70000A780260491C0A78002AF3D1704710B510
:103B80000A4600BF1107090F092903DD0B46373329
:103B9000D9B202E00B463033D9B200BF43685B07AD
:103BA000DB0F002BFAD103681B0A1B02CCB22343A4
:103BB00003601309002BE5D010BD82680A438260C0
:103BC000704701464868C0B27047FF2141617047A5
:103BD000C206D20E01219140054A116070470000D3
:103BE000008000408080044000C00040340000108D
:103BF00080E100E070B505469948806B102188434C
:103C000097498863974800680121890388434018D1
:103C1000944908609348803840680121090388432B
:103C2000904980394860084640680121090388436B
:103C300040188C49803948608B48854200D9054638
:103C40002D0129468948006800F0BCF90446204649
:103C5000684386490968884206D08548604383499D
:103C60000968884200D2641C82480068FF2109026A
:103C700088432102FF221202114008437D49086057
:103C8000FF2600BF3046761E0028FBD17948006829
:103C900001214907884340187649086070BD00201B
:103CA0007449C860401E08636D48806B10218843CA
:103CB00010306B4988636B48006801218903884391
:103CC00068490860704730B56A4B1B6801242404BA
:103CD000A343040401252D042C402343654C236099
:103CE000012807D123461B680F242406A343614CF7
:103CF000236016E05F4B1B680F242406A3430C06C9
:103D00000F252D062C4023435A4C236023461B6865
:103D1000E402A343140701252D072C402343554CEF
:103D2000236030BD10B5534A526B120B12030305CA
:103D30001B0D1A434F4B5A631A46526B07231B0342
:103D40009A430B030724240323401A43494B5A6325
:103D500010BD10B5474A526B474B1A400304464CFE
:103D6000E44323401A43434B5A631A46526B0723DA
:103D70001B079A430B070724240723401A433D4B94
:103D80005A6310BD10B53B4A926B120B1203030528
:103D90001B0D1A43374B9A631A46926B07231B037A
:103DA0009A430B030724240323401A43314B9A639D
:103DB00010BD10B52F4A926B2F4B1A4003042E4CA6
:103DC000E44323401A432B4B9A631A46926B072312
:103DD0001B079A430B070724240723401A43254B4C
:103DE0009A6310BD2349C8607047014621481030CE
:103DF0008B00C2581005000D704710B51D4A92681F
:103E000084000F23A3409A431A4B9A601A46926883
:103E100084000B46A3401A43164B9A6010BD154A06
:103E200012680243D1B2134A1268120A12020A43FC
:103E3000104B1A6070470F4A12688243D1B20D4A84
:103E40001268120A12020A430A4B1A60704700BF36
:103E50000848006B8002C00F0028F9D070470000AE
:103E6000008204408080044040420F003000001077
:103E70000024F40000000240FFFF00F04E480068FC
:103E80000121C903884340184B49086070474A48DC
:103E900000680121C9038843474908607047474AC1
:103EA0005269920A920283059B0D1A43434B5A6151
:103EB0000902090AFF2900D89915404A9269120E91
:103EC00012060B021B0A1A433C4B9A6170473B488F
:103ED0008068000A0002AA30384988600846806875
:103EE000000A0002553088607047FF21F531334ADF
:103EF0005268120E120603021B0A1A432F4B5A6015
:103F000000BF0A46491E002AFBD1704770B504461F
:103F10000025FF26F53628488038406AC004C00FC7
:103F2000002801D0B50101E0254805682146694314
:103F300008467D21C90000F045F885081F48406803
:103F4000000E00062902090A08431C49486000BF08
:103F50003046761E0028FBD170BD1848006802214B
:103F60008843164908607047144800680421884354
:103F700012490860084600680821884308300F4944
:103F8000086070470D48C06870470C4800682021E1
:103F9000884320300949086008460068402188436A
:103FA0004030064908600846006880218843803018
:103FB00002490860704700008080044000400040D3
:103FC0003400001030B50B460146002020220124A9
:103FD00009E00D46D5409D4205D31D469540491B3D
:103FE0002546954040191546521E002DF1DC30BD86
:103FF000D2B201E00270401C491EFBD27047002281
:10400000F6E710B513460A4604461946FFF7F0FFD7
:10401000204610BDF0B507460846584087B0C00F8F
:10402000049048000E46590040084908BC1A8841CF
:1040300005D2384631461E4617460B460246580002
:10404000400810434CD0300D039040055900400DFE
:10405000490D0590401A0290402872DA1803012198
:10406000000B09050843019004980092002805D030
:10407000019952420020884100920190029840210B
:104080000A1A0199009800F083F905460C466B4620
:1040900007CB00F09EF9C0197141039A0E0D002361
:1040A000D71756401A467A40164344D0049A002A3D
:1040B0002DD0029A012A039A15DC1205C01A9141EB
:1040C00001263605001C7141D20F059ED2070093D0
:1040D000019202962A46234600F09BF907B0F0BDF4
:1040E00038463146FAE71605224A0F46B218C01A7A
:1040F000B74101210905001C4F4100187F411146BD
:1041000018187941E20F10436D19644113E0E2077A
:104110006D0815436408C2071443039A012612056B
:10412000C01A91413605001C7141CE07400830434A
:104130004908C01851412A46234600F05DF9CDE7F1
:10414000FFE7049801224000C117121A00238B4197
:1041500004983146C417381AA141EEE730B401245F
:10416000E407634030BC55E730B40124E407614004
:1041700030BC4FE70000E0FFF0B51FB488B00B99EA
:104180000998002448400999C00F4900490809913D
:10419000C0070B990090490049080B9109990898AC
:1041A000A64608431CD00B990A98084318D00998D2
:1041B00001244000420D4800410D099824050003E8
:1041C000000B204309900B980003000B20430B9039
:1041D00050181C494018002201901446104605E072
:1041E000002001460DB0F0BD032801DA034600E0CF
:1041F00003239C46C11A0AAE0AE05F0008ADED5BDE
:104200004F00F75B7D430027AA187C41491C5B1EC9
:104210006145F2DD410004AB5A522104120C0A43FD
:10422000240C401C0828DFDB01980290009970469E
:1042300001910090059B049A0799069800F0E9F80F
:10424000D0E700000DFCFFFFF0B50C465C4085B0E8
:10425000E40FE40703944C000026640859009446D8
:10426000490802460296224321D062460A431ED0E4
:104270006200570D4A000E032303550D0124024628
:104280002C492405781B1B0B360B4018234326436F
:10429000614600901C46501AB44103D30098401C5C
:1042A000009002E0921800985B41002803DA002099
:1042B000014605B0F0BD00200121090507468646EC
:1042C00011E064461D46141BB54106D36546521BDA
:1042D000B341744607430C43A646CD07400849083E
:1042E000284392185B4105460D43EAD11046184316
:1042F00013D06046194650407140084306D06046CE
:10430000101AB34106D20122002306E00022012345
:10431000DB0702E00122D2435310009874460105E6
:10432000381C6141029C039D0019694100F064F84A
:10433000BFE70000FD0300000EB505490291002112
:1043400000910A460B46019100F063F803B000BDEE
:10435000330400004A0009030123090B1B0519431C
:10436000094B10B5520D9A4201DA002010BD064BE0
:1043700034339A4203DC9A1A00F01AF810BD03494C
:104380005118884010BD0000FF030000CDFBFFFF67
:1043900010B5202A04DB0146203A9140002010BDD0
:1043A000914020239C1A0346E3401943904010BDDE
:1043B00010B5202A04DB0846203AD040002110BD69
:1043C0000B46D340D0402024A21A914008431946FE
:1043D00010BD10B5202A06DBCB170846203A104145
:1043E000C1170B4306E00B461341D0402024A21A0C
:1043F00091400843194610BD10B5002B08DA00247F
:10440000401C614192185B411A4301D140084000B1
:1044100010BDF0B51FB482B005460C0003D00846AD
:1044200000F066F802E000F063F8203002460090E9
:1044300021462846FFF7ACFF049B059A04460F4629
:1044400018431143084314D0184610431BD000985A
:1044500040210A1A18460599FFF7AAFF05460E469D
:10446000009A05990498FFF793FF084305D00120AF
:1044700004E02046394607B0F0BD0020C1170543CF
:104480000E432C43374300990E986305401A790573
:10449000E40A00220C43FD0A0A3002D5002001463E
:1044A000E9E70105101969410C9C0D9D001969414E
:1044B000FFF7A2FFDFE70000064C0125064E05E0EE
:1044C000E36807CC2B430C3C98471034B442F7D335
:1044D000FBF7FAFD784500009845000010B5024A48
:1044E000024900F039F810BD091000006C000010FE
:1044F0002021020C01D010211046020A01D01046E2
:104500000839020901D01046091F820801D010465F
:10451000891E420801D0881E7047081A704730B4BF
:104520007446641E2578641CAB4204D3635D5B0053
:10453000E31830BC18471D46F8E702E008C8121F10
:1045400008C1002AFAD170477047002001E001C17C
:10455000121F002AFBD17047F8B516460F460446D5
:10456000002503E03946B047641C6D1C2078002804
:10457000F8D12846F8BD0000984500000000001062
:10458000700000003A45000008460000700000106E
:10459000D00200004A4500000202060000000000B0
:1045A000000000000000000000000001000000000A
:1045B00000000000000000000000000000000000FB
:1045C0000000000000060100006CDC02006CDC0250
:1045D00000000000000000000000000000000000DB
:1045E00000000000000000000000000000000000CB
:1045F00000000000000000000000000000000000BB
:084600000000000000000000B2
:04000005000000C136
:00000001FF
