:020000040000FA
:10000000C80A0010090900000D0900000F090000CE
:1000100000000000000000000000000000000000E0
:1000200000000000000000000000000011090000B6
:100030000000000000000000130900001509000086
:10004000170900001709000017090000110100003E
:100050001709000017090000170900000705000034
:100060001709000017090000170900001709000010
:100070001709000017090000170900001709000000
:100080001709000017090000000000000000000030
:100090000000000000000000000000000000000060
:1000A0000000000000000000000000000000000050
:1000B0000000000000000000000000000000000040
:1000C0000348854601F0D2FB00480047D5000000F8
:1000D000C80A001000F0FEFB054800681021084324
:1000E0000349086003E000F02FF900F090F9FAE707
:1000F000808004404200144B9952704701464800EA
:10010000114A105A002801D1012070470020FCE755
:1001100010B5002400BF10E060000B49085A002809
:1001200006DD6000085A401E6100074A505203E095
:1001300000206100044A5052641C002CECD003489B
:1001400000F0F8FE10BD00000800001000000140A3
:1001500008B50120000400F0B8FC0120400700F0C1
:10016000B4FC0120000300F0B0FC08210098884393
:1001700000901021009888431030009020210098B2
:100180008843009040210098884300908021009887
:1001900088430090490000988843009049000098E7
:1001A0008843401800904900009888430090490017
:1001B00000988843009049000098884340180090B8
:1001C0000098C008C000C01C009004210120009AC3
:1001D00000F0D1FD0098C008C000C01C00900821AC
:1001E0000120009A00F0C7FD02230022E12149020C
:1001F000F54801F0FDF80021072000F0ADF90720D7
:1002000001218140F14A116000BF08BD10B50120F5
:10021000400300F05AFC012302225103184600F06B
:100220009DFA02230022E1214902E94801F0E0F8A9
:1002300010BD00BFE64A52685207D20F002AF9D11A
:10024000E34A10607047E349C97DE24AD27D521CFF
:10025000E04BDA75091DDA1C5054704770B5014641
:1002600000220020FF23DB4CE37023465C781C71E6
:100270005B785B1CD74C63702346DB7D9B1CDCB238
:10028000D44B5C719971022005E0D24BDB1C1B5CE6
:100290005A40431CD8B2CF4BDB7D1B1D8342F4DC9C
:1002A000CC4BDB7DCB4CE47D641CCA4DEC751B1D37
:1002B000EC1CE254FE25E31EDB7DE41EE47D641CA1
:1002C000C44EF4751B1DF41CE554002012E000BF61
:1002D000BD4B5B685B07DB0F002BF9D1BA4B1B688A
:1002E0001B0A1B02BB4CE41C245C2343B64C23605A
:1002F000431CD8B2B74BDB7D1B1D8342E7DC0023D8
:10030000B44CE37523465B78FF2B01DB002363705D
:1003100070BD10B5044611218901601C01F07EFA00
:10032000C8B210BD10B5AC480188001D445C002166
:10033000001F0288001D8154011F0888FFF7E9FF94
:10034000A5490880204610BD10B5A44800780028B3
:1003500000D010BDA0480188001D405CFF280AD0D5
:100360009F488078FF2806D09B490888FFF7D1FF77
:1003700099490880EDE79849498811229201891826
:10038000954A1288881A1121890101F047FA062935
:1003900000D2DEE7FFF7C6FF91498870FFF7C2FF82
:1003A0008F490870FFF7BEFF8D498880FFF7BAFFBD
:1003B0008B49487008464078F22803D1FFF7B2FF16
:1003C00087498871864800798549897948408449F8
:1003D000C8710846007900028979084380498880FD
:1003E000084680881121890188420ED908217C485D
:1003F00001F031FA7A490878FFF725FF0120FFF76D
:1004000022FF0E20FFF72AFFA3E700BFA1E770B588
:10041000012572480078002800D070BD70488078AF
:10042000FF2800D0F9E76C49498811229201891808
:10043000694A1288881A1121890101F0EFF9684888
:100440008088401C814200D2E7E765488088401CD4
:100450006149091D085CFE280ED062480078FFF74C
:10046000F2FE0120FFF7EFFE0E20FFF7F7FE082156
:100470005B4801F0F0F9D0E700243EE0FFF752FFBF
:10048000594908555648C079095D48405449C871D2
:1004900008468188601C81422DD10821504801F016
:1004A000DAF9FFF73FFF4E49C979884211D14D482B
:1004B0000078FFF7C8FE0020FFF7C5FE0E20FFF70B
:1004C000CDFE0821464801F0C6F9012043490870D5
:1004D00011E044480078FFF7B6FE0120FFF7B3FEB5
:1004E0000E20FFF7BBFE08213D4801F0B4F93F495B
:1004F0003D4801F0B0F9601C84B239488088A042C0
:10050000BCDC00BF89E710B52F48C068C007C00F2A
:10051000002806D02C48C06840084000401C2A49EA
:10052000C8602948C0688007C00F002813D026483B
:100530000068C1B228484288001D8154011F4888C4
:10054000FFF7E7FE244948801F48C068022188431E
:10055000801C1D49C86010BD10B5002819DA244A56
:1005600003071B0F083B9B089B00D2588307DC0E38
:10057000FF23A3409A438B071B0E8407E40EA3407E
:100580001A431B4B0407240F083CA408A4001A516B
:1005900018E00E4A03231B02D21883089B00D2588E
:1005A0008307DC0EFF23A3409A438B071B0E8407AF
:1005B000E40EA3401A43054B032424021B198408AC
:1005C000A4001A5110BD00000080004000E100E0CE
:1005D00000C000402800001040000010C4080010B7
:1005E000140000101C0000108404001041040000DE
:1005F0001CED00E0FFB581B016460A9F0120000403
:1006000000F063FA0B98012809D10821009888436B
:1006100000901021009888431030009014E00B984F
:10062000002809D108210098884308300090102143
:1006300000988843009007E00821009888430090C4
:100640001021009888430090202100988843009052
:1006500040210098884300908021009888430090B2
:10066000490000988843009049000098884340184A
:100670000090490000988843009049000098884302
:1006800000900198012804D002280AD0042814D12F
:100690000DE005252D070C240120400700F015FA78
:1006A0000CE0934D0D24A00700F00FFA06E0914DE9
:1006B0000E24A00700F009FA00E000BF00BF009878
:1006C000C008C0007107490F08430090009A0299C2
:1006D000019800F050FBF0203040002800D00026A8
:1006E000002E39D10498012811D12846029900F032
:1006F00065FB012F04D1E86802990843E8602BE00C
:10070000002F29D1286902990843286124E000BFFD
:10071000E106C90E012088407749086000BF2846DD
:10072000029900F047FB012F05D1012228460299CA
:1007300000F06FFB06E0002F04D10022284602994A
:1007400000F067FB00BFE106C90E012088406A493E
:100750008039086000BF00BF05B0F0BDF8B50546A0
:100760000F4616461C46012D04D0022D07D0042D3D
:100770000FD109E00120400700F0A7F90AE00120AD
:10078000800700F0A2F905E00120C00700F09DF904
:1007900000E000BF00BF012C09D108210098884368
:1007A00000901021009888431030009013E0002C36
:1007B00009D1082100988843083000901021009842
:1007C0008843009007E0082100988843009010219A
:1007D0000098884300902021009888430090402191
:1007E0000098884300908021009888430090490039
:1007F0000098884300904900009888434018009072
:100800004900009888430090490000988843009070
:100810000098C008C0007107490F0843009039468E
:100820002846009A00F0A7FAF8BD1CB50120022165
:100830000346002200910190C103FFF7DBFE1CBDBF
:1008400010B504460120C00300F03FF9032000F07A
:10085000C2F82A49002000F04EFF7D21C900614303
:10086000084600F07FFF264800680221884324499B
:100870000860084600688021884321490860FF20FD
:10088000F530096849084900491C1D4A116000BF3C
:100890000146421E90B20029FAD11948006840086A
:1008A0004000401C1649086000F03DFF10BD10B527
:1008B0000120400300F009F90123022251031846E8
:1008C000FFF74CFF02230022E12149020D4800F00E
:1008D0008FFD10BD10B500F06DF80120FFF7B0FFDF
:1008E000FFF7A3FFFFF7E3FFFFF732FC10BD0000A7
:1008F000000001500000025080E100E0FFFFFF0017
:100900000040004000C0004003480047FEE7FEE70B
:10091000FEE7FEE7FEE7FEE7C100000010B5054870
:10092000816B0548006800F079FF0449086010BD3C
:100930007047000040800440240000102000001098
:1009400010B50446F948006B8007800F002804D1D9
:10095000022C02DA0120F649C860F448806B000AD4
:100960000002E1B20843F1498863FFF7D7FF10BDE9
:1009700010B50446ED48406B80088000401CEB49F0
:100980004863002C05D10846006B8008800008638E
:1009900007E0032C05D1E548006BA043801CE34928
:1009A0000863E248406B80088000E0494863FFF735
:1009B000B5FF10BD10B5DF48C06BDF49884203D1D9
:1009C0002420DA49403988620020FFF7D1FF012056
:1009D000FFF7B6FF10BD002809D1D4494039496A54
:1009E000012212039143D14A403A516209E0CF49B2
:1009F0004039496A0122120391438918CB4A403A8F
:100A00005162704700B5030000F042FF05040A067A
:100A1000080C0E00002008E0012006E0022004E09F
:100A2000032002E0042000E000BD00BFBF49803188
:100A3000496A49084900491CBC4A80325162114642
:100A4000096AC908C9004207520F1143B74A8032E8
:100A500011621146496A49084900516200BFE3E743
:100A6000B2498031896A090A0902C2B21143AF4A08
:100A7000803291627047B148B14908627047AB4813
:100A80008030806A000A0002A849803188622320F1
:100A90000001AB4908627047AA49C968090A0902FE
:100AA000C2B21143A74AD1607047A649C031896BD1
:100AB0000143A44AC03291637047A249C031896B97
:100AC0008143A04AC0329163704798494031096818
:100AD0000143964A40321160704794494031096899
:100AE0008143924A403211607047904940394968C9
:100AF00081438E4A403A5160114649680143516032
:100B0000704700BFBFF34F8F8F489049C860BFF355
:100B10004F8F00BF00BFFEE7012807D1894909694F
:100B2000102291431031874A11610CE0854909690F
:100B300010229143834A1161114609694022914371
:100B40004031804A1161704778484038006B7047E7
:100B5000FF20764940390863704700207C490968C6
:100B6000022291437A4A116078490969042291432B
:100B7000764A116130BF6D494039886A00216B4A5D
:100B8000403A916211468862704710B50A466D4935
:100B9000C0314860002A05D109688143694BC033E0
:100BA000196002E06749C03108606649C0310968D0
:100BB00001231B049943634BC033196000210123B7
:100BC0008B40644C236000BF10BD63485D49C03159
:100BD0008860704710B55B4BC0339B6B5B06DB0FC7
:100BE000002B0CD0574BC0339B6B4024A343554C78
:100BF000C034A36300BF1346521CFF2BFBD3514BE1
:100C0000C03318635963494B5B6B9B089B005B1CAB
:100C1000464C636323461B6B9B089B009B1C236312
:100C200023465B6B9B089B006363484B1B69042452
:100C30002343464C236130BF00BF00BF00BF00BF4D
:100C400000BF3A4B5B6B9B089B005B1C374C63639C
:100C500023461B6B9B089B00236323465B6B9B080F
:100C60009B006363314B403B9A6A00232F4C403C0E
:100C7000A36223469A6210BD20210140002908D0BA
:100C80003049C031096B202291432E4AC032116392
:100C900008E02C49C031096B202291432031294AB8
:100CA000C03211632749C031096B082291430831D2
:100CB000244AC03211631146096B402291434031EE
:100CC000204AC03211632249096802229143891CDB
:100CD0001F4A11601D490969042211431B4A116111
:100CE00030BF70470160704708220168914301607E
:100CF0001022016891431031016070471022016891
:100D000091430160082201689143083101607047F6
:100D1000FF2201320168914301607047FF220132D6
:100D200001689143891801607047000040800440C9
:100D300000000650C007FF1F55AAAA553502000043
:100D400000400440408104400400FA0500ED00E04A
:100D50000080034000E100E0FF0F00000122D2020A
:100D6000016891438918016070470122D20201682D
:100D7000914301607047F7B5034600200024002529
:100D80000B4F3A46DE05340E00BF0EE001268640CA
:100D900035460E462E40002E05D0A601F2198600DB
:100DA000B218029E1660461CF0B21028EEDBFEBDA3
:100DB00000400440026A8A4302627047026A0A43A2
:100DC00002627047C2680A43C260704702690A4300
:100DD0000261704742690A434261704702465068A7
:100DE0000840002801D0012070470020FCE70146A0
:100DF000486880B2704702680A4302607047026820
:100E00008A43026070470146486880B2704781603B
:100E10007047436A8B434362036B0B430363002AAF
:100E20000BD0012A02D0022A12D10DE0836A8B4333
:100E30008362C36A0B43C3620BE0836A8B438362A2
:100E4000C36A8B43C36204E0836A0B43836200E09E
:100E500000BF00BF7047000070B504460D46F9485A
:100E6000844217D1F8480068802188438030F649D1
:100E70000860F5488038406820218843F24980396D
:100E8000486008464068202188432030EE49803978
:100E900048601BE0ED48844217D1EB480068A1157B
:100EA00088434018E8490860E74880384068402196
:100EB0008843E549803948600846406840218843B6
:100EC0004030E1498039486000E070BDE04800688A
:100ED000854201D9DE4805682946DD48006800F0F2
:100EE0009DFC86B2E068000C00043043E060E168DD
:100EF00088B2E168090C09040143E16000BFE4E73E
:100F000010B583691B0C1B044C1EA4B223438361E0
:100F1000426110BD0269120C12048BB21A430261C5
:100F200070470169090C09040161704701460869AD
:100F300080B27047016849084900491C0160704748
:100F4000416949084900491C4161704741694908A4
:100F500049004161704770B504460D46BD48844262
:100F600017D1B9480068611588434018B649086030
:100F7000B5488038406880218843B349803948604B
:100F800008464068802188438030AF4980394860F6
:100F90001BE0B148844217D1AB4800682115884353
:100FA0004018A9490860A8488038406889158843D6
:100FB000A54980394860084640688915884340182B
:100FC000A1498039486000E070BDA14800688542B1
:100FD00001D99F48056829469D48006800F01EFC1D
:100FE00086B2E068000C00043043E06000BFEBE72D
:100FF000026FD208D2004B075B0F1A43026770479B
:1010000030B5036FF024A3434C01F0252C4023435B
:101010000367002A0AD1046F2406240F641C2401EC
:101020002C402346046FAC431C430467036F082421
:10103000A3430833036730BD10B5026F0F231B02B3
:101040009A430B020F24240223401A43026710BD67
:1010500030B5036F0F242403A3430C030F252D0386
:101060002C4023430367036F01242404A343140487
:1010700001252D042C402343036730BD70B58469DE
:10108000240C24044D1EADB22C4384614469E40851
:10109000E40055076D0F2C434461C46B3025AC430D
:1010A0001D01302635402C43C463C46B64086400C2
:1010B000641CC46370BD70B5C469240C24048DB273
:1010C0002C43C46144693825AC435507AD0E2C430D
:1010D0004461C46BC025AC439D01C02635402C4300
:1010E000C463C46B0225AC43A41CC46370BD70B55B
:1010F000046A240C24048DB22C4304624469FF2545
:10110000C135AC435507ED0D2C434461C46B032539
:101110002D02AC431D020326360235402C43C46326
:10112000C46B0425AC43241DC46370BD70B5C46991
:10113000240C24048DB22C43C461446907256D023C
:10114000AC4355072D0D2C434461C46B0325AD0200
:10115000AC439D020326B60235402C43C463C46BE6
:101160000825AC430834C46370BD10B500290ED007
:10117000012902D002291FD113E0836A5B085B00BA
:101180005B1C8362836A0224A343836215E0836A43
:101190005B085B008362836A0224A3439B1C836217
:1011A0000BE0836A5B085B005B1C8362836A02243A
:1011B000A3439B1C836200E000BF00BF042A05D14B
:1011C000836A0424A3431B1D836203E0836A04240F
:1011D000A343836210BD10B500290ED0012902D0AF
:1011E00002291FD113E0836A0824A34308338362D2
:1011F000836A1024A343836215E0836A0824A3430F
:101200008362836A1024A343103383620BE0836AF2
:101210000824A34308338362836A1024A343103352
:10122000836200E000BF00BF042A05D1836A202446
:10123000A3432033836203E0836A2024A3438362B1
:1012400010BD0000000001408080044000400140CB
:10125000200000100080014000C0014010B50029AE
:101260000ED0012902D002291FD113E0836A402445
:10127000A34340338362836A8024A343836215E0DF
:10128000836A4024A3438362836A8024A343803318
:1012900083620BE0836A4024A34340338362836A02
:1012A0008024A3438033836200E000BF00BF042A90
:1012B00005D1836A9401A3431B19836204E0836A06
:1012C000FF240134A343836210BD10B500290FD061
:1012D000012902D0022922D115E0836A0124640287
:1012E000A3431B198362836A6400A343836217E0EC
:1012F000836A01246402A3438362836A6400A34374
:101300001B1983620CE0836A01246402A3431B1946
:101310008362836A6400A3431B19836200E000BFF9
:1013200000BF042A05D1836A5402A3431B198362B8
:1013300004E0836A0124E402A343836210BD0146F2
:10134000C86A80B270470146086B80B27047014698
:10135000486B80B270470146886B80B270478268E4
:10136000120C12048BB21A43826070474168022249
:101370009143891C41604168914341607047014637
:10138000886880B27047FF210160704742690A4354
:101390004261704742698A434261704770B5049C5C
:1013A00085692D0C2D0496B235438561C5692D0CD8
:1013B0002D049EB23543C561056A2D0C2D04A6B2DD
:1013C00035430562456A2D0C2D048EB235434562C6
:1013D000456F6D086D006D1C4567456F0226B5436E
:1013E000AD1C4567456F0426B5432D1D456770BD8F
:1013F000FFB581B0044616461D46B148844220D14F
:10140000072000F055F9AF480068A1148843401840
:10141000AC49086008468069000A0002401C8861E7
:10142000A8488038406804218843A649803948602C
:101430000846406804218843001DA249803948605D
:1014400025E0A148844220D1082000F031F99D48D0
:1014500000686114884340189A4908600846C069CA
:10146000000A0002401CC861964880384068082184
:101470008843944980394860084640680821884379
:10148000083090498039486001E005B0F0BD8F48D0
:101490000299006800F0C2F907033F0B2069000DB4
:1014A000000538432061022E0AD1A068F10188436B
:1014B0004018A060A068490088434018A06010E070
:1014C000012E09D1A06831028843A060A0684900BC
:1014D00088434018A06004E0A068012149028843C5
:1014E000A060022D05D1A06802218843801CA06065
:1014F0000EE0202D05D1A068202188432030A06077
:1015000006E0082D04D1A068082188430830A060B7
:10151000A0680121C90588434018A060A06849104F
:1015200088434018A060FF20606100BFADE7C1683C
:10153000FF221143C16070478168090A0902816076
:10154000704710B504465E48844209D1072000F078
:10155000AFF85C480068A11488435A4908600DE060
:101560005948844209D1082000F0A2F85548006883
:10157000611488435349086000E010BD2046FFF71E
:10158000DBFF2046FFF7D3FF00BFF6E702465068B7
:101590008007C00F002803D0106808700020704733
:1015A0000120FCE730B5002304E004680C70491CFE
:1015B0005C1CE3B24468A407E40F002C04D0157847
:1015C0006C1E1470002DF0D1137030BD024600BFA8
:1015D00050684007C00F0028FAD11068000A0002C6
:1015E000CBB2184310600020704770B5034600244A
:1015F00000BF0EE000BF58684007C00F0028FAD1B6
:101600000878491C1D682D0A2D0205431D60601CC9
:10161000C4B29442EED3002070BD30B50CE000BFE0
:1016200043685B07DB0F002BFAD10B78491C046879
:10163000240A24021C4304601346521E002BEED1E0
:1016400030BD08E000BF42685207D20F002AFAD12D
:101650000A780260491C0A78002AF3D1704710B555
:101660000A4600BF1107090F092903DD0B4637336E
:10167000D9B202E00B463033D9B200BF43685B07F2
:10168000DB0F002BFAD103681B0A1B02CCB22343E9
:1016900003601309002BE5D010BD82680A43826005
:1016A000704701464868C0B27047FF2141617047EA
:1016B000C206D20E01219140054A11607047000018
:1016C000008000408080044000C0004024000010E2
:1016D00080E100E04E4800680121C90388434018BA
:1016E0004B49086070474A4800680121C903884394
:1016F000474908607047474A5269920A9202830537
:101700009B0D1A43434B5A610902090AFF2900D86D
:101710009915404A9269120E12060B021B0A1A43CF
:101720003C4B9A6170473B488068000A0002AA302F
:101730003849886008468068000A00025530886091
:101740007047FF21F531334A5268120E1206030228
:101750001B0A1A432F4B5A6000BF0A46491E002A33
:10176000FBD1704770B504460025FF26F5362848A2
:101770008038406AC004C00F002801D0B50101E0E4
:10178000254805682146694308467D21C90000F0C7
:1017900045F885081F484068000E00062902090A1E
:1017A00008431C49486000BF3046761E0028FBD124
:1017B00070BD1848006802218843164908607047C8
:1017C00014480068042188431249086008460068EC
:1017D0000821884308300F49086070470D48C068E9
:1017E00070470C4800682021884320300949086070
:1017F0000846006840218843403006490860084692
:1018000000688021884380300249086070470000EA
:1018100080800440004000402400001030B50B469A
:10182000014600202022012409E00D46D5409D42BA
:1018300005D31D469540491B254695404019154640
:10184000521E002DF1DC30BDD2B201E00270401C0E
:10185000491EFBD270470022F6E710B513460A4630
:1018600004461946FFF7F0FF204610BD064C01253F
:10187000064E05E0E36807CC2B430C3C9847103438
:10188000B442F7D3FEF720FCCC180000EC1800009F
:1018900030B47446641E2578641CAB4204D3635D87
:1018A0005B00E31830BC18471D46F8E702E008C8A3
:1018B000121F08C1002AFAD170477047002001E0CA
:1018C00001C1121F002AFBD170470000EC18000074
:1018D0000000001028000000AC18000014190000DF
:1018E00028000010A00A0000BC1800000000000042
:1018F00000000000000000000000000000000000E8
:10190000000000000000000000000000006CDC028D
:04191000006CDC0289
:04000005000000C136
:00000001FF
