:020000040000FA
:1000000070040010292A00002D2A00002F2A000069
:1000100000000000000000000000000000000000E0
:10002000000000000000000000000000312A000075
:100030000000000000000000332A0000352A000004
:1000400041120000372A0000D1300000DD1200000C
:10005000A1280000372A0000372A000021160000DE
:10006000372A0000372A0000372A0000372A00000C
:10007000A3110000372A0000372A0000372A0000A9
:10008000372A0000372A00000000000000000000AE
:100090000000000000000000000000000000000060
:1000A0000000000000000000000000000000000050
:1000B0000000000000000000000000000000000040
:1000C0000348854604F04CFF0048004797090000AC
:1000D0007004001000BF0146401E0029FBD170478C
:1000E000F0B587B00A2001F0C1F800287ED00120C9
:1000F000800302F07AFD0026FB48066AF00FC00775
:100100000121C907884272D1F8497143084604F0B9
:1001100009FEF74AF74B0191009004F007FD002219
:10012000F54B0391029004F069FD0022F34B059119
:10013000049004F063FD04460D4622462B46002041
:10014000EF4904F01BFE02D20020014611E000221C
:10015000EB4B2046294604F0DBFC0022E94B0391DF
:10016000029004F04BFD0022E74B0591049004F04F
:10017000DDFC04460D462046294604F0E1FDC1B2EF
:10018000E248807CE14A203A11541046818E2030AA
:10019000807C105C081811468886DC48807C401CF6
:1001A000322801D1002002E0D848807C401CC1B236
:1001B000D64881742038818E2030807CD34A203A02
:1001C000105C081A11468886D1480078002819D09A
:1001D000938E2032927C0F46BA5C981ACB4A917C5F
:1001E00004F050FBCB490870C84801E084E01EE0F1
:1001F000807C401C322801D0012000E00020C4494E
:1002000008700DE0C14920398A8E2031897CBF4BAE
:10021000203B595C501A322104F034FBBD49087070
:10022000BC480078642802DD6420BA490870322195
:100230000A2001F013F80026AB484669F00FC0070A
:100240000121C90788421ED1A8497143084604F01C
:1002500069FDA74AA74B0191009004F067FC0022BA
:10026000A54B0391029004F0C9FC0022A34B059119
:10027000049004F0C3FC04460D462046294604F0D1
:100280005FFDA549088000269748866AF00FC007E1
:100290000121C90788421ED194497143084604F0E0
:1002A00041FD934A934B0191009004F03FFC0022E2
:1002B000914B0391029004F0A1FC00228F4B059119
:1002C000049004F09BFC04460D462046294604F0A9
:1002D00037FD92490880844840300068400840005B
:1002E000401C8149403108608A4802788B48018867
:1002F0008948008802F0CEF907B0F0BD10B5044679
:10030000874844608460C46004618461C46104629D
:1003100044628462C462446384630121C90305208A
:10032000000702F0EBFD002803D001207C49C863E0
:1003300002E000207A49C863794840300460446094
:100340008460C46004614461012075494031886162
:10035000C86173488030046044608460C46010BD2C
:1003600010B570480068400840006E49086001F010
:1003700004FC02F02BF80020FFF7C0FF00F044FE61
:100380000021212002F091FC674802F036FC212078
:10039000634908606548FFF79DFE0021282002F0B0
:1003A000A9FC00F00DFE01F067FF002801D010202D
:1003B00000E008205E49088010BD10B502205D49AC
:1003C00008705D4908705948FFF784FE5748FFF7E9
:1003D00081FE0821594802F089FD5448FFF77AFE52
:1003E0000121C9030520000702F080FD01F0C5FBD3
:1003F00001F0ECFF10BD10B5464800780A2807DA76
:10040000012109030520000702F078FD00280ED025
:100410000121C9030520000702F064FD1422FF2119
:10042000042001F094FB00204249087015E00822E6
:100430000321012001F08BFB1F2407E04048FFF758
:1004400049FE0A22FF21012001F0E9FC2046611E3D
:10045000CCB20028F2D1FFF7B0FF10BD10B50520D7
:1004600000F004FF00282CD0012000F02AFF012119
:100470000520000702F042FD002823D13148008802
:10048000401C30490880084600881E2803D10020FF
:100490002D49087011E02B4800884B210901884242
:1004A0000BDD0220284908700020264908802048DA
:1004B0000088082188431E4908800121052000F09A
:1004C000CDFE53E01F480088002803D01D48008857
:1004D0001E283BDB00201B490880154800880821A6
:1004E00088431349088041E00000024040420F0069
:1004F0006666666666660A4000FEAF4000408F4052
:1005000000089B400020774000005940A2000010E6
:100510000E00001006000010100000101200001065
:100520000040044000400040F0FFFFDF50C30000E7
:100530001A0000100100001000000010000002501E
:10054000A08601000400001002000010F848008896
:100550001E280BDA0120F74908700020F4490880B2
:10056000F548008808218843F349088010BD10B57C
:10057000F0480078002806D001282AD002284DD063
:1005800003284ED13BE0ED480078002809D001282F
:1005900018D002281AD1FFF72EFF0620E54908706F
:1005A00015E00F22FF21012001F0D1FA002000F018
:1005B0002AFF202000F032FF01F008FF0620DD496D
:1005C000087004E00120DB49087000E000BF00BFB4
:1005D00028E0DA480078012810D10020D8490870B6
:1005E000012189030520000702F07CFCFF21F53181
:1005F000062000F033FE0320CE49087012E00620EA
:1006000000F034FE002808D00121890305200007EE
:1006100002F06CFC0620C749087003E002F001FB01
:1006200000E000BF00BF10BD10B5C3480078C00790
:10063000C00F002822D0C348007800280CD0082121
:10064000C14802F053FC0020BE49087000F0DBFEF8
:10065000262000F0E3FE0BE00821BB4802F042FC3C
:100660000120B849087000F0CEFE262000F0D6FE2A
:10067000B148008840084000AF490880AE48008873
:1006800010210840002818D0AC480078002807D076
:10069000012806D0022808D10020A649087005E0EC
:1006A00004E00120A349087000E000BF00BFA24899
:1006B000008810218843A04908809F480088202195
:1006C000084000281AD09D480078002810D1C901A0
:1006D0000520000702F012FC002809D0022000F0DB
:1006E00092FE9A48007800F08EFE252000F096FEDB
:1006F00091480088202188438F4908808E480088CF
:1007000008210840002801D0FFF7A8FE10BD10B551
:1007100004466078002806D001280DD0022808D0B1
:10072000032815D110E0002084490870844908701E
:100730000EE0FFF742FE0BE001208049087080497F
:10074000087001F01AFA03E0032002F00BF900BF71
:1007500000BF10BD10B50C2000F088FD002858D057
:100760007B490C2000F07AFD74480078002851D1B4
:10077000764800780F2817DA7648007800280DD1DF
:10078000012000F040FE7148007800F03CFE25207A
:1007900000F044FE06206F4908700BE06D480078B9
:1007A000401E6C49087005E006206A490870032065
:1007B0006949087065480078052817DA012109039E
:1007C0000520000702F09AFB00280FD1624800784C
:1007D000002805D15749087003205F4908700FE0D1
:1007E0005D480078401E5C49087009E0002000F078
:1007F0000AFE5648007800F006FE252000F00EFEA6
:100800000620564908705648008806214843554935
:10081000088037E04A480078012820D151480088F4
:10082000002808D14E480088062148434D490880D9
:10083000FFF7C3FD04E04B480088401E494908808B
:100840004248007805281DDA012109030520000728
:1008500002F054FB002815D1FFF7AFFD12E0384835
:10086000007800280ED03D480078002805D10620E9
:100870003A490870FFF7A1FD04E038480078401EAF
:100880003649087010BD10B5374800F07DFE2C4881
:100890000078002803D034480078022876D1324806
:1008A000007806282ED006DC030004F082FB066DDB
:1008B0000D1E232F276D07282CD00F2819D025288F
:1008C0002BD0272860D154E00C2000F09CFD0024A0
:1008D00005E02649085D00F096FD601CC4B2032CBB
:1008E000F7DB012000F09AFD4FE01F48FFF70FFFF4
:1008F0004BE04AE01C4801F0B1FA46E01A4801F02A
:10090000CBFC42E0184801F084FE3EE0164801F0BE
:10091000EFFC3AE001F01FFD37E0002000F073FD2E
:100920000A48007800F06FFD252000F077FD2CE0EC
:1009300004000010020000101A0000100000001057
:10094000010000101C000010000002500600001002
:1009500010270000140000101500001018000010EF
:100960000800001016000010780000100A000010A7
:100970000CE02048407820490880012000F043FD29
:10098000272000F04BFD00E000BF00BF0A211948FE
:1009900003F093FF10BD1F2400F0ECFA0EE0601E80
:1009A000C4B21648FFF796FB0A22FF21012001F08E
:1009B00036FA002C02D1FFF700FDFF2401F0EFFC16
:1009C0000028ECD1FFF7F9FC12E0FFF789FBFFF7F5
:1009D0005AFFFFF729FEFFF7CAFD01F0FDF901F00C
:1009E000FDFEFFF7B7FE03F0BCFE0448FFF772FB05
:1009F000EBE700007800001008000010A08601005E
:100A000010B5002819DAFA4A03071B0F083B9B08A8
:100A10009B00D2588307DC0EFF23A3409A438B0729
:100A20001B0E8407E40EA3401A43F14B0407240F66
:100A3000083CA408A4001A5118E0EE4A03231B0244
:100A4000D21883089B00D2588307DC0EFF23A340F3
:100A50009A438B071B0E8407E40EA3401A43E54B11
:100A6000032424021B198408A4001A5110BDFFB5E9
:100A700081B00F4615460120000402F0B6F80B982D
:100A8000012809D10821009888430090102100987E
:100A900088431030009014E00B98002809D10821F9
:100AA00000988843083000901021009888430090F7
:100AB00007E008210098884300901021009888439F
:100AC000009020210098884300904021009888439E
:100AD0000090802100988843009049000098884346
:100AE0000090490000988843401800904900009801
:100AF000884300904900009888430090019801289D
:100B000004D002280AD0042814D10DE005242407BB
:100B10000C260120400702F068F80CE0B64C0D26C8
:100B2000A00302F062F806E0B44C0E26A00302F027
:100B30005CF800E000BF00BF0098C008C000690773
:100B4000490F084300903946009A019802F0A3F932
:100B5000F0202840002800D00025002D2CD104983A
:100B6000012811D13946204602F0B8F90A98012827
:100B700003D1E0683843E0601EE00A9800281BD1EA
:100B800020693843206117E0304600F0D1FA394639
:100B9000204602F09FF90A98012805D10122394622
:100BA000204602F0C6F904E000223946204602F051
:100BB000C0F9304600F0B5FA05B0F0BDF8B505460D
:100BC0000F4616461C46012D04D0022D07D0042DD9
:100BD0000FD109E00120400702F007F80AE00120E8
:100BE000800702F002F805E00120C00701F0FDFFD8
:100BF00000E000BF00BF012C09D108210098884304
:100C000000901021009888431030009013E0002CD1
:100C100009D10821009888430830009010210098DD
:100C20008843009007E00821009888430090102135
:100C3000009888430090202100988843009040212C
:100C400000988843009080210098884300904900D4
:100C5000009888430090490000988843401800900D
:100C6000490000988843009049000098884300900C
:100C70000098C008C0007107490F0843009039462A
:100C80002846009A02F007F9F8BD1CB501210C2096
:100C9000FFF7B6FE0120009000231A46C102019022
:100CA000FFF7E5FE0120002103461122009101908B
:100CB00008210420FFF7DBFE01200021034611225A
:100CC000009101908103FFF7D2FE012000210B4625
:100CD0000A46009101900146FFF7C9FE012002215A
:100CE0000346002200910190C103FFF7C0FE0120DE
:100CF00000210B460A46009101902021FFF7B7FE24
:100D000001231A4640210220FFF758FF01231A460B
:100D100080210220FFF752FF0120002103460A46EE
:100D20000091019020210220FFF7A1FE0120002167
:100D300003460A460091019001460420FFF797FE02
:100D40000120002103460A4600910190022104205F
:100D5000FFF78DFE0120002103460A460091019015
:100D600010210220FFF783FE0320012100231A46F1
:100D70000091019009030120FFF779FE0120002175
:100D800003460A46009101908102FFF770FE0120A0
:100D9000002103460A460091019002210846FFF710
:100DA00066FE0120002103461122009101904103BB
:100DB000FFF75DFE0120002103460A4600910190E5
:100DC00008210220FFF753FE0323022211460120CF
:100DD000FFF7F4FE0023062240210120FFF7EEFE7C
:100DE0000323052210210120FFF7E8FE1CBD0000AF
:100DF0001CED00E000E100E00000015000000250A6
:100E000008B5002001231A46014600900A2002F08E
:100E1000E1FB012002F032FD012002F034FD00224E
:100E20000121104602F034FD02F091FD08BD10B51D
:100E30000120800301F0D9FE03F06EFBC04803F0EF
:100E40000FFB022003F036FC102003F033FC40209F
:100E500003F030FC00220121104603F071FB012158
:100E6000084603F00EFC0621084603F00AFC0421A4
:100E7000084603F006FC03F035FCB2480068400861
:100E80004000401CAF49086010BD10B5AE49AF48E6
:100E900002F0A8FEAD4802F00AFF02226421AB482E
:100EA00002F0F4FEA94802F011FF02210320FFF72F
:100EB000A7FD032000F035F9A44840684008400031
:100EC000401CA249486010BD10B59D49A04802F0E1
:100ED00089FE9F4802F0EBFE022264219C4802F04A
:100EE000D5FE9B4802F0F2FE03210420FFF788FDA7
:100EF000042000F016F996484068400840009449E4
:100F0000486010BD10B504460120C00301F06DFE1D
:100F1000032001F0F0FD8F49002003F00AFC7D2141
:100F2000C9006143084603F03BFC8B48006802217E
:100F300088438949086008460068802188438649BB
:100F40000860FF20F530096849084900491C824AB9
:100F5000116000BF0146421E90B20029FAD17E48BE
:100F6000006840084000401C7B49086003F0F9FB22
:100F700010BD704710B501F0ADFD0220FFF7C2FFB4
:100F8000FFF783FE00F0D2F9FFF7F3FFFFF738FF1A
:100F9000FFF74DFFFFF779FFFFF796FFA022FF2134
:100FA0009131012002F006F800F0C3FF00F0D8F8FC
:100FB0001E22FF21062000F0CAFD01F007FA10BD35
:100FC00010B501F087FD0220FFF79CFFFFF75DFEE3
:100FD00000F0ACF9FFF7CDFFFFF712FFFFF727FF97
:100FE000FFF753FFFFF770FFA022FF21913101208F
:100FF00001F0E0FF00F0B4F81E22FF21062000F00F
:10100000A6FD01F0E3F910BD1CB5012000900346D8
:101010000022402101900220FFF729FD01200090CD
:1010200003460022802101900220FFF720FD0020CE
:10103000009001230246194601900220FFF717FD98
:101040000020009001230246802101901846FFF7FE
:101050000EFD00200090012302465902019018461F
:10106000FFF705FD00200090012302469902019040
:101070001846FFF7FCFC00200090012302460221E5
:1010800001901846FFF7F3FC002000900123024670
:10109000402101901846FFF7EAFC00200090012350
:1010A0000246102101901846FFF7E1FC0020009055
:1010B00001230246190301901846FFF7D8FC0020CF
:1010C000009001230246042101901846FFF7CFFC4F
:1010D0000020009001230246082101901846FFF7E6
:1010E000C6FC0C2000F024F80120400701F085FD2B
:1010F0000120C00701F081FD0120800701F07DFD86
:101100000120C00301F079FD0120000401F075FD0C
:101110000120000301F071FD0120800301F06DFD4D
:101120001CBDC206D20E012191400C4A11607047CD
:10113000C206D20E01219140084A803211607047E8
:1011400040420F0040000240A08601000000014024
:1011500000400140FFFFFF000040004000E100E0D0
:101160003C480088400840003A490880084600880A
:1011700004218843374908800846008802218843B3
:101180003449088008460088102188433149088086
:101190007047C26B0A43C26370470146886B80B2D6
:1011A000704705200007806B012808D0202815D043
:1011B0000121C902401A20D0401A3ED12DE0254815
:1011C0000088082108432349088005200007C06BD8
:1011D0000121084305210907C8632FE01D48008845
:1011E000102108431B49088005200007C06B2021FF
:1011F000084305210907C86320E01648008801213B
:1012000008431449088005200007C06B0121C9026A
:10121000084305210907C86310E00E480088202113
:1012200008430C49088005200007C06B0121090311
:10123000084305210907C86300E000BF00BF7047ED
:1012400010B5002001218140034A116000BF01F068
:101250004CFD10BD1A00001080E200E010B5430004
:101260002C4CE15243002C4CE15210BD0146480089
:10127000284A105A4A00284B9A5A904205DD4800E5
:101280001A46105A4A00234B98524800214A105AD5
:10129000002801D1012070470020FCE701464800EA
:1012A0001C4A105A4A001C4B9A5A904205DD4800CD
:1012B0001A46105A4A00174B98524800154A105ABD
:1012C000704710B5044621460820FFF7C7FF00BF4E
:1012D0000820FFF7CBFF0028FAD010BD10B500247E
:1012E00000BF10E060000B49085A002806DD6000CE
:1012F000085A401E6100074A505203E00020610076
:10130000044A5052641C102CECD3044802F0D8FC60
:1013100010BD0000B8000010D8000010000001400F
:1013200000BF0146401E0029FBD1704708B50120CF
:10133000000401F05AFC0120400701F056FC012096
:10134000000301F052FC082100988843009010210E
:101350000098884310300090202100988843009026
:101360004021009888430090802100988843009095
:10137000490000988843009049000098884340182D
:1013800000904900009888430090490000988843E5
:101390000090490000988843401800900098C008C9
:1013A000C000C01C009004210120009A01F073FDD0
:1013B0000098C008C000C01C009008210120009ABD
:1013C00001F069FD02230022E1214902C44802F034
:1013D000D5FE0021072000F04CF9072001218140B3
:1013E000C04A116000BFFF210531BF4803F065FA14
:1013F00008BD00BFBD4A52685207D20F002AF9D17A
:10140000BA4A10607047BA49C97DB94AD27D521CA8
:10141000B74BDA75091DDA1C5054704770B5014698
:1014200000220020FF23B24CE37023465C781C713D
:101430005B785B1CAE4C63702346DB7D9B1CDCB28F
:10144000AB4B5C719971022005E0A94BDB1C1B5C66
:101450005A40431CD8B2A64BDB7D1B1D8342F4DCF3
:10146000A34BDB7DA24CE47D641CA14DEC751B1DE0
:10147000EC1CE254FE25E31EDB7DE41EE47D641CCF
:101480009B4EF4751B1DF41CE554002012E000BFB8
:10149000934B5B685B07DB0F002BF9D1904B1B680C
:1014A0001B0A1B02924CE41C245C23438C4C2360DB
:1014B000431CD8B28E4BDB7D1B1D8342E7DC00232F
:1014C0008B4CE37523465B78FF2B01DB00236370B5
:1014D00070BD0146481CFF2801D1002000E0481CD7
:1014E000C0B2704770B505467F480188401D405C1A
:1014F000FF282FD17D200001FFF712FF7A490988CC
:10150000881CFF2103F0BEF97748401D445C411F51
:101510000988891C0919481CFF2103F0B3F9724896
:10152000401D405CFE280ED16F490988881CFF21B0
:1015300003F0A8F96C48401D405CC01CC4B2A54231
:101540000EDD204670BD68490878FFF7C2FF664986
:10155000088005E064490878FFF7BBFF624908800E
:101560000020EFE710B560480188401D445C002171
:10157000401F0288401D8154411F0878FFF7A9FFD2
:1015800059490880204610BDF8B506465649498895
:10159000FF31554A1288881AFF2103F073F9CCB243
:1015A000062C3CDD2046FFF79DFF0446002C36D07C
:1015B000E01EC4B22746FFF7D5FFFFF7D3FF009028
:1015C000FFF7D0FF002528E0FFF7CCFF7055681C1F
:1015D000A0421ED1705DB8420DD1FFF7C3FFFE28B7
:1015E00009D10098FFF70FFF0020FFF70CFF0E2036
:1015F000FFF714FF0FE00098FFF705FF0120FFF74A
:1016000002FF0E20FFF70AFF0421304603F055F9D0
:1016100001E0705D4740681CC5B2A542D4DBF8BD4F
:1016200010B52F48C068C007C00F002806D02C484E
:10163000C06840084000401C2949C8602848C0686C
:101640008007C00F002813D025480068C1B2264883
:101650004288401D8154411F8878FFF73AFF224994
:1016600048801F48C06802218843801C1C49C8600C
:1016700010BD10B5002819DA1E4A03071B0F083BDE
:101680009B089B00D2588307DC0EFF23A3409A439C
:101690008B071B0E8407E40EA3401A43154B040767
:1016A000240F083CA408A4001A5118E00D4A032393
:1016B0001B02D21883089B00D2588307DC0EFF233D
:1016C000A3409A438B071B0E8407E40EA3401A43E2
:1016D000044B032424021B198408A4001A5110BDD2
:1016E0000080004000E100E01001001000C0004058
:1016F000F80000101CED00E038B50446012000049D
:1017000001F073FA0120400701F06FFA0120800711
:1017100001F06BFA0821009888430090102100988E
:101720008843103000902021009888430090402189
:1017300000988843009080210098884300904900D9
:101740000098884300904900009888430090490021
:1017500000988843009049000098884300900098C2
:10176000C008C000009080210120009A01F093FB86
:101770000098C008C0000090FF2101310120009AAC
:1017800001F089FB0098C008C000009001214902C7
:101790000120009A01F07FFB0098C008C000009073
:1017A00001210220009A01F076FB0721C9010520E2
:1017B000000701F093FB0121F64801F08FFB2007A1
:1017C000000F04282CD006DC002850D0012807D0B8
:1017D000022857D114E0082833D00F2852D13BE01B
:1017E000FF2101310520000701F07CFB0521C90123
:1017F000480501F07BFB0121E64801F077FB42E060
:1018000080210520000701F06DFB0321090205205E
:10181000000701F06BFB0121DE4801F067FB32E0BD
:10182000012149020520000701F05CFBFF21813105
:101830000520000701F05AFB0121D64801F056FBB4
:1018400021E00721C9010520000701F04FFB01211C
:10185000D04801F047FB16E00721C9010520000729
:1018600001F040FB0121CB4801F03CFB0BE00721DC
:10187000C9010520000701F039FB0121C54801F02D
:1018800035FB00E000BF00BF38BD38B5044601207D
:10189000000401F0AAF90120400701F0A6F9012097
:1018A000800701F0A2F908210098884300901021D8
:1018B00000988843103000902021009888430090C1
:1018C0004021009888430090802100988843009030
:1018D00049000098884300904900009888434018C8
:1018E0000090490000988843009049000098884380
:1018F00000900098C008C000401C0090802101208A
:10190000009A01F0C8FA0098C008C000401C00907E
:10191000012149020120009A01F0BDFA0098C00897
:10192000C000401C009001210220009A01F0B3FA8F
:101930000098C008C000401C0090FF210131012028
:10194000009A01F0A8FA21460F2001F03BFF38BDB4
:1019500010B504462007000F030003F02AFB109186
:10196000091A4D2BA25EA23CA2A2A26FA2A280A243
:101970002021884801F0B6FA0121874801F0B6FA23
:101980000221854801F0B2FA1021824801F0AEFA36
:1019900088E00121804801F0A5FA20217D4801F06E
:1019A000A5FA02217C4801F0A1FA1021794801F042
:1019B0009DFA77E00221784801F094FA20217548D9
:1019C00001F094FA0121744801F090FA1021714855
:1019D00001F08CFA66E010216E4801F083FA2021B4
:1019E0006C4801F083FA01216B4801F07FFA022173
:1019F000694801F07BFA55E02021664801F072FA4F
:101A00000121654801F06EFA0221634801F06EFA87
:101A10001021604801F06AFA44E001215E4801F0BB
:101A200061FA02215C4801F05DFA2021594801F079
:101A30005DFA1021574801F059FA33E00221564867
:101A400001F050FA1021534801F04CFA202151487E
:101A500001F04CFA0121504801F048FA22E020211F
:101A60004C4801F03FFA01214B4801F03BFA0221BA
:101A7000494801F037FA1021464801F033FA11E0E5
:101A80002021444801F032FA0121434801F02EFAA6
:101A90000221414801F02AFA10213E4801F026FABD
:101AA00000E000BF00BF10BD10B50020FFF7DEFB57
:101AB000002843D039480078002811D038480078F1
:101AC000401C3749087008460078632814DB002062
:101AD0003249087033480078401C324908700BE0E6
:101AE0002F480078401E2E490870084600780128CB
:101AF00002DC0120294908702B480079294909781E
:101B0000884203D100202849487106E02648007920
:101B1000FF2802D10020234908700F20FFF718FF8B
:101B20001F480078FFF7B1FE1F4908680A2102F03C
:101B300093FE044621460020FFF790FB10BD10B530
:101B40000F20FFF705FF0F20FFF7D6FD10BD10B5E2
:101B5000072811DA0023114C2370144C2370144C05
:101B60002370104C23700E4C23700F4B5871197159
:101B70000A2353430C4C236010BD10B50020FFF71F
:101B8000BBFD0020FFF7E4FEFF2211460620FFF711
:101B9000DEFF10BD000001500000025023000010C5
:101BA0002200001024000010280000102000001067
:101BB0002100001010B50020FFF758FB00283AD094
:101BC000B5480078082803DAB3480078002801D126
:101BD000012002E0B04800784000AF4908700F20B3
:101BE000FFF78AFDAC480078FFF7B2FEAB490878F2
:101BF000C117890F09188910A94A1279914203D196
:101C00000020A749487106E0A5480079FF2802D1C5
:101C10000020A2490870A0480078082805D19F48F4
:101C20000078401C9D49087000E000BF9C48016896
:101C30000020FFF713FB10BD10B50020FFF716FBC7
:101C400000283AD094480078012803DD92480078B3
:101C5000082801DD082002E08F48007840108E49F6
:101C600008700F20FFF748FD8B480078FFF770FEE3
:101C70008A490878C117890F09188910884A12798A
:101C8000914203D100208649487106E084480079DA
:101C9000FF2802D10020814908707F480078012880
:101CA00005D17E480078401C7C49087000E000BFE8
:101CB0007B4801680020FFF7D1FA10BD10B5002065
:101CC000FFF7D4FA00284DD076480078002801D1DB
:101CD000012001E073480078724908706E4800786E
:101CE0000C2803DA6C480078002801D1032002E0B8
:101CF000694800784000684908706A480078FFF732
:101D0000FBFC65480078FFF723FE634800780C2849
:101D100012DB64480078082808DB0120614908705C
:101D20005E480078401C5D49087005E05D48007819
:101D30004006000E5B4908705948007957490978F8
:101D4000884203D100205649487106E05448007982
:101D5000FF2802D100205149087051480168002035
:101D6000FFF77CFA10BD10B50020FFF77FFA0028BE
:101D700031D04C480078FFF7EBFD4A480078FFF778
:101D8000BBFC48480078002801D0002000E00F206C
:101D9000444908704248007940490978884203D193
:101DA00006203F49487106E03D480079FF2802D1EE
:101DB00000203A4908703B480078002805D0374891
:101DC0000078401C3549087000E000BF34480168C5
:101DD0000020FFF743FA10BD10B5314840790300E9
:101DE00003F0E7F807050B0E171114081A00FFF7A8
:101DF000A6FE12E0FFF7C1FE0FE0FFF7B4FF0CE014
:101E0000FFF752FE09E0FFF7D5FE06E0FFF714FFEB
:101E100003E0FFF753FF00E000BF00BF10BD70B547
:101E200004460D461646072C15DA1D484079A04297
:101E300011D000201C4908701A4908701649087012
:101E400016490870194908701548447105710A202F
:101E5000704313490860FFF7BFFF70BD104949790F
:101E60004278914217D04178072914DA00210E4AAE
:101E700011700C4A1170084A1170084A11700B4A0F
:101E800011704178064A5171C178117181780A2226
:101E90005143034A116070472100001024000010D4
:101EA0002800001020000010230000102200001065
:101EB0000146002204E0501CC2B208460A38C1B2F2
:101EC0000A29F8DA1007000E08437047014600BFE0
:101ED000F020084000110A23584302460807000F6B
:101EE0008018C0B2704770B504460D462A46214698
:101EF000A22001F07EFA70BD10B504462146A22052
:101F000001F0C5FA10BD70B504460D4616462B46C5
:101F100032462146A22001F08EFA70BD70B504460B
:101F20000D46164633462A462146A22001F0D2FA33
:101F300070BD10B500240020FFF7DEFF044620200E
:101F40002040002801D0DF200440802020400028CD
:101F500001D1F720044021460020FFF7C4FF0021F3
:101F60000120FFF7C0FF7F210D20FFF7BCFF7F217D
:101F70000E20FFF7B8FF10BD10B50446207A632885
:101F800001DD00202072E0790C2801DD0120E071E4
:101F900060791F2801DD01206071A079062801DD2C
:101FA0000120A0712079172801DD00202071E07840
:101FB0003B2801DD0020E070A0783B2801DD0020F7
:101FC000A070207AFFF774FF2072E079FFF770FFAE
:101FD000E0716079FFF76CFF6071A079FFF768FF2F
:101FE000A0712079FFF764FF2071E078FFF760FFB0
:101FF000E070A078FFF75CFFA070E0798021884353
:10200000E0716079F0490870A0794870E0798870D3
:10201000207AC8700A4604210520FFF774FFA078D3
:10202000E9490870E0784870207988700A460321F1
:102030000220FFF768FF10BD10B50446E24A0421F4
:102040000520FFF76BFFE04800788006800EDE4930
:102050000870084640784007400F4870084680786E
:10206000C006C00E88700846C078C870C878FFF7F0
:102070002DFF2072D4498878FFF728FFE071D249FC
:102080000878FFF723FF6071CF494878FFF71EFFFC
:10209000A071CD4A03210220FFF740FFCA48007813
:1020A0004006400EC8490870084640784006400E79
:1020B0004870084680788006800E88708878FFF720
:1020C00005FF2071C0494878FFF700FFE070BE4966
:1020D0000878FFF7FBFEA07010BD70B505460C46F2
:1020E0000026607A3B2801DD00206072A07A172864
:1020F00001DD0020A072E07A1F2801DD0120E072DE
:10210000207B062801DD01202073607AFFF7D0FED6
:102110006072A07AFFF7CCFEA072E07AFFF7C8FEEB
:10212000E072207BFFF7C4FE20730120FFF7E4FE7E
:102130000646FD200640F720064031460120FFF705
:10214000D2FE04202840002803D0E07A4006400E4A
:1021500002E0E07A80210843E07202202840002853
:1021600003D0A07A4006400E02E0A07A8021084306
:10217000A072E807C00F002803D0607A4006400E26
:1021800002E0607A8021084360720820284000281D
:1021900003D0207B4006400E02E0207B80210843D4
:1021A000207302200643F7200640607A86490870B3
:1021B000A07A4870E07A8870207BC8700A460421B3
:1021C0000920FFF7A0FE31460120FFF78CFE70BD0D
:1021D00010B504467C4A04210920FFF79FFE7A4887
:1021E00000784006400E784908700846407880061E
:1021F000800E4870084680788006800E88700846F9
:10220000C0784007400FC8708878FFF75FFEE07223
:102210006D494878FFF75AFEA0726B490878FFF7BE
:1022200055FE60726849C878FFF750FE207310BDF4
:1022300010B500240120FFF75FFE04460C21204664
:10224000884304460220044321460120FFF74BFE49
:1022500010BD10B500240120FFF74EFE04460C21EE
:1022600020468843044602212046884304462146EE
:102270000120FFF738FE10BD10B500240120FFF744
:102280003BFE0446FFF7E5FF08202040002801D070
:10229000012010BD0020FCE71FB50446FFF7C8FF72
:1022A0002179684641726178C172E1788172A178C2
:1022B000017369460320FFF710FF6846FFF788FFA8
:1022C0006846407A217988420BD16846807AE17865
:1022D000884206D10120FFF796F82320FFF79EF8E9
:1022E00005E00020FFF78FF82320FFF797F81FBDC8
:1022F0001FB50446617868460172A178C171E17822
:1023000041712179817161790171A179C170E1799E
:102310008170FFF731FE6846FFF78EFE6846C07891
:10232000A179884210D168460079617988420BD141
:1023300068464079E178884206D10120FFF763F8CA
:102340002220FFF76BF805E00020FFF75CF8222061
:10235000FFF764F81FBD1FB56846FFF76DFE6946BD
:10236000087AFFF750F86946C879FFF74CF86946D4
:102370004879FFF748F869468879FFF744F86946D5
:102380000879FFF740F86946C878FFF73CF86946D6
:102390008878FFF738F82420FFF740F81FBD10B504
:1023A00055210F20FFF79FFD002401E0601CC4B2FF
:1023B000322CFBDB0F20FFF79FFD0446552C01D08C
:1023C000012010BD0020FCE73000001010B5F848D7
:1023D000406840084000F64948600915052000079C
:1023E00000F084FD0821F34800F080FD012149033D
:1023F0000520000700F076FD0221EE4800F072FD96
:10240000012149030520000700F070FD0221E94881
:1024100000F06CFD0020E849087000210220FEF762
:102420001DFF5621E54802F048FA10BD10B5E048FE
:10243000406840084000DE49486009150520000753
:1024400000F054FD0821DB4800F050FD0121490354
:102450000520000700F046FD0221D64800F042FDAD
:10246000012149030520000700F040FD0221D14869
:1024700000F03CFD10BD10B50221CE4800F036FD45
:10248000012149030520000700F02CFDC8484068E1
:1024900040084000401CC649486010BD10B50221EC
:1024A000C44800F023FD012149030520000700F086
:1024B0001DFD0020C1494870BD48406840084000EB
:1024C000401CBB49486010BD10B50221B94800F05E
:1024D00009FD012149030520000700F007FD002048
:1024E000B6494870B248406840084000401CB049B6
:1024F000486010BD10B50221AE4800F0F7FC012184
:1025000049030520000700F0EDFC0020AB494870AE
:10251000A748406840084000401CA549486010BDDD
:1025200010B50221A34800F0E1FC01214903052078
:10253000000700F0DBFC0020A04908709C484068C0
:1025400040084000401C9A49486010BD10B5022167
:10255000984800F0C7FC012149030520000700F05E
:10256000C5FC9348406840084000401C90494860C2
:1025700010BD10B5012149030520000700F0B6FC8D
:1025800002218C4800F0B2FC8948406840084000B5
:10259000401C8749486010BD10B501214903052042
:1025A000000700F09FFC0221824800F09BFC80485D
:1025B000406840084000401C7D49486010BD10B58F
:1025C0007E48C078030002F0F4FC0906090C0F12E3
:1025D00015181B1E2100FFF7F9FE18E0FFF74BFF4F
:1025E00015E0FFF7B3FF12E0FFF758FF0FE0FFF72A
:1025F0006BFF0CE0FFF77EFF09E0FFF791FF06E0BD
:10260000FFF7B7FF03E0FFF7C7FF00E000BF00BF21
:1026100010BD10B504466079FF280CD120796749B8
:102620008870A0784870E07808706078C8700120E1
:10263000614908702DE06078092806D160795F490A
:10264000487104205C49087023E06078002802D1BA
:10265000FFF7BCFE1DE06079FE281ADA6178607928
:1026600082005648801D8154217960798200534848
:10267000801D10184170A178607982004F48801D3C
:1026800010188170E178607982004C48801D101824
:10269000C17010BDF7B58EB00C461746384602F033
:1026A00041FB09910890454949780846323802F0C3
:1026B00025FB0546424A434B02F038FA424A434B57
:1026C0000191009002F080F9059104903B4948780F
:1026D00002F028FB03910290059B049A02F026FA6F
:1026E00007910690099B089A02F06EF90B910A90E7
:1026F000384602F017FB09910890304909780846DE
:10270000323802F0FBFA05462D4A2E4B02F00EFA43
:1027100000222F4B0191009002F056F90591049090
:102720002649087802F0FEFA03910290059B049A6C
:1027300002F0FCF907910690099B089A02F044F90F
:102740000D910C900E9802F0EDFA05460D9B0C9A37
:1027500002F014FB08D200201E4908707D21C90038
:102760000D20FEF77BFD07E00D20FEF77FFD002822
:1027700002D0012017490870204602F0D3FA05461E
:102780000B9B0A9A02F0FAFA08D20020124908704C
:102790007D21C9000E20FEF761FD07E00E20FEF747
:1027A00065FD002802D001200B49087011B0F0BD72
:1027B00000400140000001503400001014020010DD
:1027C0007B14AE47E17AB43F9A9999999999194047
:1027D00000003740350000103600001010B5584892
:1027E000007800285BD00220FEF740FD002856D07C
:1027F00053480078042830D152480079810051486C
:10280000801D081840784F4988700846007981007B
:102810004C48801D081880784A494870084600795D
:1028200081004848801D0818C0784649087008464D
:10283000007981004348801D405C4249C8700846C9
:102840000079401C4979884201D1002002E03D48CE
:102850000079401C3B4908710AE039480078022899
:1028600003D100203749C87002E0022034490870C3
:1028700034488078FF2808D03248807819225043A5
:1028800001460220FEF7EAFC09E02E488078642227
:1028900050431922504301460220FEF7DFFC10BDD1
:1028A00070B529480088401C0A2801D1002002E0A8
:1028B00025480088401C244908800846008802F00A
:1028C00015FA04462149204602F03FF80546204902
:1028D00001F0FEFF04461B49487802F007FA05465E
:1028E000214602F05FFA08D21A480078002804D086
:1028F0000821194800F0F6FA03E00821164800F014
:10290000F5FA1049087802F0F1F90546214602F07F
:1029100049FA0AD211480078002806D0012189021C
:102920000520000700F0DEFA05E0012189020520FC
:10293000000700F0DBFA0A4801F0C2F970BD0000A0
:102940003400001014020010380000100000204174
:102950000000C84235000010000001503600001091
:1029600000400140062801DA2D4908707047704781
:10297000704710B50121C9030520000700F0B6FA21
:102980001422FF210620FFF7E2F8062024490870F0
:1029900010BD10B52348007800280ED00121C903CE
:1029A0000520000700F0A2FA00201E490870FF2150
:1029B000F5310920FEF752FC0FE00920FEF756FC26
:1029C00000280AD0012017490870C103052000071C
:1029D00000F088FA06201249087010BD7047704751
:1029E00010B50F480078030002F0E3FA0604070A66
:1029F0000D101316FFF7BBFF0FE0FFF7B9FF0CE058
:102A0000FFF7B7FF09E0FFF7C4FF06E0FFF7E6FFB7
:102A100003E0FFF7E4FF00E000BF00BF10BD0000CF
:102A20003A0000103B00001003480047FEE7FEE7B5
:102A3000FEE7FEE7FEE7FEE7C100000010B505482F
:102A4000816B0548006801F007FF0449086010BD6C
:102A50007047000040800440400000103C0000101F
:102A600010B50446F948006B8007800F002804D198
:102A7000022C02DA0120F649C860F448806B000A93
:102A80000002E1B20843F1498863FFF7D7FF10BDA8
:102A900010B50446ED48406B80088000401CEB49AF
:102AA0004863002C05D10846006B8008800008634D
:102AB00007E0032C05D1E548006BA043801CE349E7
:102AC0000863E248406B80088000E0494863FFF7F4
:102AD000B5FF10BD10B5DF48C06BDF49884203D198
:102AE0002420DA49403988620020FFF7D1FF012015
:102AF000FFF7B6FF10BD002809D1D4494039496A13
:102B0000012212039143D14A403A516209E0CF4970
:102B10004039496A0122120391438918CB4A403A4D
:102B20005162704700B5030002F043FA05040A063B
:102B3000080C0E00002008E0012006E0022004E05E
:102B4000032002E0042000E000BD00BFBF49803147
:102B5000496A49084900491CBC4A80325162114601
:102B6000096AC908C9004207520F1143B74A8032A7
:102B700011621146496A49084900516200BFE3E702
:102B8000B2498031896A090A0902C2B21143AF4AC7
:102B9000803291627047B148B14908627047AB48D2
:102BA0008030806A000A0002A849803188622320B0
:102BB0000001AB4908627047AA49C968090A0902BD
:102BC000C2B21143A74AD1607047A649C031896B90
:102BD0000143A44AC03291637047A249C031896B56
:102BE0008143A04AC03291637047984940310968D7
:102BF0000143964A40321160704794494031096858
:102C00008143924A40321160704790494039496887
:102C100081438E4A403A51601146496801435160F0
:102C2000704700BFBFF34F8F8F489049C860BFF314
:102C30004F8F00BF00BFFEE7012807D1894909690E
:102C4000102291431031874A11610CE085490969CE
:102C500010229143834A1161114609694022914330
:102C60004031804A1161704778484038006B7047A6
:102C7000FF20764940390863704700207C49096885
:102C8000022291437A4A11607849096904229143EA
:102C9000764A116130BF6D494039886A00216B4A1C
:102CA000403A916211468862704710B50A466D49F4
:102CB000C0314860002A05D109688143694BC0339F
:102CC000196002E06749C03108606649C03109688F
:102CD00001231B049943634BC03319600021012376
:102CE0008B40644C236000BF10BD63485D49C03118
:102CF0008860704710B55B4BC0339B6B5B06DB0F86
:102D0000002B0CD0574BC0339B6B4024A343554C36
:102D1000C034A36300BF1346521CFF2BFBD3514B9F
:102D2000C03318635963494B5B6B9B089B005B1C6A
:102D3000464C636323461B6B9B089B009B1C2363D1
:102D400023465B6B9B089B006363484B1B69042411
:102D50002343464C236130BF00BF00BF00BF00BF0C
:102D600000BF3A4B5B6B9B089B005B1C374C63635B
:102D700023461B6B9B089B00236323465B6B9B08CE
:102D80009B006363314B403B9A6A00232F4C403CCD
:102D9000A36223469A6210BD20210140002908D079
:102DA0003049C031096B202291432E4AC032116351
:102DB00008E02C49C031096B202291432031294A77
:102DC000C03211632749C031096B08229143083191
:102DD000244AC03211631146096B402291434031AD
:102DE000204AC03211632249096802229143891C9A
:102DF0001F4A11601D490969042211431B4A1161D0
:102E000030BF70470160704708220168914301603C
:102E1000102201689143103101607047102201684F
:102E200091430160082201689143083101607047B5
:102E3000FF2201320168914301607047FF22013295
:102E40000168914389180160704700004080044088
:102E500000000650C007FF1F55AAAA553502000002
:102E600000400440408104400400FA0500ED00E009
:102E70000080034000E100E0FF0F00000122D202C9
:102E8000016891438918016070470122D2020168EC
:102E9000914301607047F7B50346002000240025E8
:102EA0000B4F3A46DE05340E00BF0EE00126864089
:102EB00035460E462E40002E05D0A601F21986009A
:102EC000B218029E1660461CF0B21028EEDBFEBD62
:102ED00000400440026A8A4302627047026A0A4361
:102EE00002627047C2680A43C260704702690A43BF
:102EF0000261704742690A43426170470246506866
:102F00000840002801D0012070470020FCE701465E
:102F1000486880B2704702680A43026070470268DE
:102F20008A43026070470146486880B270478160FA
:102F30007047436A8B434362036B0B430363002A6E
:102F40000BD0012A02D0022A12D10DE0836A8B43F2
:102F50008362C36A0B43C3620BE0836A8B43836261
:102F6000C36A8B43C36204E0836A0B43836200E05D
:102F700000BF00BF70470000002000BF06E0002136
:102F8000F84A1154F84A1154411CC8B20828F6DB1B
:102F90000021F64A1170F64A1160F64A1160F64AAD
:102FA0001160F64A1160F64A1160F64A1170F64A4D
:102FB00011607047F8B504460D461646FFF7DCFF72
:102FC000F24949688907C90F4900022211400846A1
:102FD000EE49496891430143EC4A51601146496802
:102FE0008907C90F012211434900022211400846F6
:102FF000E649496891430143E44A5160E34980311D
:1030000009688906C90F0122114349012022114094
:103010000846DE498031096891430143DB4A80322A
:103020001160FF20D10588617D20000168430146C1
:10303000D748006801F010FC87B2012080070069C2
:10304000000C000438430121890708617D2000013C
:1030500068430146CE48006801F0FEFB87B20120BC
:1030600080074069000C000438430121890748614A
:10307000002C01D10846C660002C03D04220410735
:10308000086002E040200106086002200121814022
:10309000C04A116000BFF8BD01218907496888B2A4
:1030A00070470146012080070068084070470121F1
:1030B00089070860704701218907886170470121ED
:1030C000890788607047012080078068C0B2704718
:1030D00030B5FFF7E1FF02464B2A01D0542A09D14F
:1030E0001020FFF7E4FF0C20A04908702920FFF70B
:1030F000E2FF30BD0120800700680221084000285F
:1031000070D01D218901104688430246D0B2102894
:1031100037D004DC012807D00B286FD142E01428F7
:1031200075D01D28F9D1AEE095480068012813D16B
:10313000002093490860904908608A490978491C31
:10314000C8B2FFF7BCFF8D480068401C8B4908607F
:103150002920FFF7B0FF13E0002088490860864966
:1031600008600120FFF7A3FF7E490878FFF7A7FF5B
:1031700082480068401C814908602820FFF79BFFB7
:10318000B5E000207C4908607C490B680968491C4F
:103190007A4C21607349C85CFFF791FF2820FFF744
:1031A0008AFFA4E0012080070068C007C00F002844
:1031B00019D070480068012806D11020FFF777FF6A
:1031C00007206A49087009E06C490B680968491CC6
:1031D0006A4C21606349C85CFFF771FF0820FFF764
:1031E0006AFF13E084E064480068401C6049096895
:1031F000884205D20420FFF75AFF04E070E006E0A1
:103200000420FFF758FF2820FFF755FF6FE05B48C9
:1032100000685849096888420AD258490B68096809
:10322000491C564C21604F49C85CFFF748FF26E017
:103230004F48006800281CD00020514908604E49C2
:10324000086050480078002809D046490978491C90
:10325000C8B2FFF734FF2020FFF729FF05E04149FE
:103260000978491CC8B2FFF72AFF0920FFF723FF9E
:103270003DE01020FFF71BFF0C203C4908700820A0
:10328000FFF719FF33E0FFF71EFF3B490B680968A2
:10329000491C394C21603449C85420460068401C00
:1032A00033490968884206D20420FFF700FF08204E
:1032B000FFF701FF13E001208007006804210840A8
:1032C000042803D10C20FFF7F6FE08E00C20274964
:1032D00008701020FFF7EBFE0820FFF7ECFE06E079
:1032E0000A20224908700820FFF7E5FE00BF7EE0B3
:1032F0000023FF200130104000284DD000201F493E
:1033000008601D490860FFF7DEFE034601208007C4
:10331000C068984203D100201B49086019E00120D1
:103320008007006A984203D101201749086010E025
:1033300001208007406A984203D1022012490860A8
:1033400007E001208007806A984202D103200E49DD
:1033500008600420FFF7ABFEFF2001308105886183
:1033600041E00000440000104C0000105400001028
:10337000580000105C000010600000106400001095
:10338000680000106C000010700000100080044005
:103390003C00001000E100E0012040021040002845
:1033A0000FD0012080078068C1B28148046800689E
:1033B000401C7F4D28607F4801550420FFF777FEB1
:1033C00011E001208002104000280CD07A480078DB
:1033D00001218907886078480078401C7649087088
:1033E0000420FFF764FE2820C106886100BF00BFEB
:1033F0007FE630B503460C466E4803704470827019
:1034000000206E4908706E49086003206D4908600D
:103410002020FFF74CFE00206B49087000BF6A486F
:1034200000780C28FBD1FF2500BF2846691ECDB2CD
:103430000028FAD130BDF0B504460D4616465D4869
:1034400004704570002205E0B05C5A49971CC855CD
:10345000501CC2B29A42F7DB002058490870584904
:103460000860981C574908602020FFF720FE0020C4
:103470005549087000BF544800780C28FBD1FF2242
:1034800000BF1046511ECAB20028FAD1F0BD10B5D7
:1034900002460B46474802704370022049490860C3
:1034A000012047490860454908702020FFF7FFFDCB
:1034B00000204549087000BF434800780C28FBD124
:1034C000FF2400BF2046611ECCB20028FAD13F483D
:1034D000007810BD70B505460E4614463548057097
:1034E000467002203749086035480460012033499E
:1034F00008702020FFF7DBFD00203349087000BF73
:10350000314800780C28FBD1002204E02F48805C71
:103510009854501CC2B2A242F8DBFF2200BF1046F2
:10352000511ECAB20028FAD170BD10B502460B4632
:10353000204802704370002020490870204908602C
:103540000220204908602020FFF7B1FD00201E491D
:10355000087000BF1C4800780C28FBD1FF2400BF76
:103560002046611ECCB20028FAD110BD00B502463B
:1035700010480270012013490860114908600F4982
:103580000870134908602020FFF791FD00200E49C4
:10359000087000BF0C4800780C28FBD1FF2300BF47
:1035A0001846591ECBB20028FAD10848007800BD51
:1035B0006400001044000010740000106C00001043
:1035C000580000105C000010540000104C00001067
:1035D00068000010F8B506460C4615461F46FE4822
:1035E00000680121490488434018FB490860FB48F2
:1035F0000068602188436101602211400843F74957
:103600000860F64840308068022188436900022241
:1036100011400843F1494031886008468068042120
:103620008843A900042211400843EC4940318860D6
:103630000846806808218843E900082211400843B1
:10364000E649403188600846806849158843E34967
:10365000403188600846806820218843DF49403136
:1036600088600846806809158843DC4940318860D5
:103670000846806840218843D84940318860084620
:103680008068C9148843D5494031886008468068FD
:1036900080218843D1494031886008468068910282
:1036A00088437903920211400843CC494031886035
:1036B000012F10D10120A04070430146C848006886
:1036C00001F0CAF8C549486108460068C914884332
:1036D000C249086011E00120A04070430146C04883
:1036E000006801F0B9F84008BC4948610846006824
:1036F000C91488434018B9490860B8484030006A86
:1037000040084000B549403108620846006A02217D
:103710008843B249403108620846006A0421884360
:10372000AE49403108620846006A08218843AB4927
:10373000403108620846006A10218843A749403199
:1037400008620846006A20218843A4494031086283
:10375000A2480068802188438030A049086008465C
:1037600000688915884340189C490860084600682D
:103770004915884340189949086098484030406A84
:10378000000C0004954940314862944800680221C9
:103790008843801C91490860F8BD8F48006801216A
:1037A000490488438C49086070478C4909680F2296
:1037B0001203914302030F231B031A401143874A4C
:1037C00011607047F8B507460C4600254CE0012013
:1037D000A84006463E40002E44D02B0001F0E9FBF5
:1037E00006040E18222C36407C494969614308467C
:1037F000642101F031F87949886132E077494969FB
:1038000061430846642101F027F87449C86128E043
:103810007249496961430846642101F01DF86F4906
:1038200008621EE06D49496961430846642101F060
:1038300013F86A49486214E06849496961430846D7
:10384000642101F009F8654988620AE06349496921
:1038500061430846642100F0FFFF6049C86200E050
:1038600000BF00BF681CC5B2062DB0DB5B48006816
:1038700002218843801C59490860F8BD1421414346
:10388000564A9163704714214143544AD1637047AB
:1038900030B5002804D0012816D002283ED128E0F7
:1038A0004E4B5B685B085B00CC07E40F23434B4C3B
:1038B000636023465B680224A343540002252C4026
:1038C0002343464C63602AE0444B5B680424A343D3
:1038D0008C0004252C402343404C636023465B68E6
:1038E0000824A343D40008252C4023433B4C6360A9
:1038F00015E03A4B5B681024A3430C0110252C40C3
:103900002343364C636023465B682024A343540161
:1039100020252C402343314C636000E000BF00BFF2
:1039200030BD2E48806840084000401C2B4988600C
:103930000846806802218843801C28498860084620
:10394000806804218843001D24498860704723480B
:10395000006840084000401C204908601F48403073
:10396000C068402188431D494031C8600846C0688E
:103970008021884319494031C8600846C0688915CC
:10398000884316494031C8600846C06849158843D5
:1039900012494031C8600846C068091588430F497C
:1039A0004031C8600846C068C91488430B4940319B
:1039B000C8600A48006889048843401807490860BD
:1039C00008460068012149068843401803490860F9
:1039D00008460068012105E08080044000C00440E2
:1039E0003C0000108906884340187D49086008465D
:1039F00000680121C90688434018794908600846D3
:103A00000068012109078843401875490860084685
:103A100000680121490788434018714908607048CF
:103A2000403040691021884310306D494031486171
:103A30006B48006802218843801C69490860704710
:103A400067480068400840006549086064484030A5
:103A5000C06840218843403061494031C860084611
:103A6000C0688021884380305D494031C860084685
:103A7000C06889158843401859494031C8600846D4
:103A8000C06849158843401855494031C860084608
:103A9000C06809158843401851494031C86008463C
:103AA000C068C914884340184D494031C8604C482B
:103AB0000068890488434A49086008460068012173
:103AC000490688434649086008460068012189067E
:103AD000884343490860084600680121C9068843B5
:103AE0003F490860084600680121090788433C49AE
:103AF0000860084600680121490788433849086082
:103B00003748403040691021884335494031486189
:103B10003348006802218843801C3149086070479F
:103B20002F4909680822914308312D4A1160114636
:103B30000968D2149143C2020123DB021A401143E7
:103B4000274A1160704700B50146002045E0012278
:103B500082400A40002A3ED0030001F02AFA0604FF
:103B60000D161F28313A1E4A126801231B069A437C
:103B7000D2181B4B1A602DE0194A126801235B060C
:103B80009A43D218164B1A6024E0154A1268012392
:103B90009B069A43D218124B1A601BE0104A126817
:103BA0000123DB069A43D2180D4B1A6012E00C4A2F
:103BB000126801231B079A43D218094B1A6009E0C7
:103BC000074A126801235B079A43D218044B1A6014
:103BD00000E000BF00BF421CD0B20628B7DB00BD2A
:103BE00000C0044070B504460D46F948844217D120
:103BF000F8480068802188438030F6490860F5481D
:103C00008038406820218843F2498039486008465E
:103C10004068202188432030EE49803948601BE00D
:103C2000ED48844217D1EB480068A115884340183D
:103C3000E8490860E7488038406840218843E54902
:103C40008039486008464068402188434030E14957
:103C50008039486000E070BDE0480068854201D9C5
:103C6000DE4805682946DD48006800F0F5FD86B2AB
:103C7000E068000C00043043E060E16888B2E1686D
:103C8000090C09040143E16000BFE4E710B5836952
:103C90001B0C1B044C1EA4B223438361426110BD64
:103CA0000269120C12048BB21A4302617047016957
:103CB000090C0904016170470146086980B2704728
:103CC000016849084900491C016070474169490879
:103CD0004900491C416170474169490849004161F7
:103CE000704770B504460D46BD48844217D1B948A7
:103CF0000068611588434018B6490860B5488038A7
:103D0000406880218843B34980394860084640684C
:103D1000802188438030AF49803948601BE0B1483A
:103D2000844217D1AB480068211588434018A9493F
:103D30000860A8488038406889158843A5498039BB
:103D4000486008464068891588434018A149803971
:103D5000486000E070BDA1480068854201D99F48D5
:103D6000056829469D48006800F076FD86B2E06847
:103D7000000C00043043E06000BFEBE7026FD208A4
:103D8000D2004B075B0F1A430267704730B5036FD1
:103D9000F024A3434C01F0252C4023430367002A61
:103DA0000AD1046F2406240F641C24012C402346EE
:103DB000046FAC431C430467036F0824A343083318
:103DC000036730BD10B5026F0F231B029A430B022D
:103DD0000F24240223401A43026710BD30B5036F3D
:103DE0000F242403A3430C030F252D032C4023434E
:103DF0000367036F01242404A343140401252D0445
:103E00002C402343036730BD70B58469240C24041F
:103E10004D1EADB22C4384614469E408E4005507AB
:103E20006D0F2C434461C46B3025AC431D0130261B
:103E300035402C43C463C46B64086400641CC463D1
:103E400070BD70B5C469240C24048DB22C43C461C8
:103E500044693825AC435507AD0E2C434461C46B0F
:103E6000C025AC439D01C02635402C43C463C46BC0
:103E70000225AC43A41CC46370BD70B5046A240C55
:103E800024048DB22C4304624469FF25C135AC4340
:103E90005507ED0D2C434461C46B03252D02AC4343
:103EA0001D020326360235402C43C463C46B04252F
:103EB000AC43241DC46370BD70B5C469240C2404D4
:103EC0008DB22C43C461446907256D02AC4355078C
:103ED0002D0D2C434461C46B0325AD02AC439D0200
:103EE0000326B60235402C43C463C46B0825AC439B
:103EF0000834C46370BD10B500290ED0012902D06A
:103F000002291FD113E0836A5B085B005B1C83629C
:103F1000836A0224A343836215E0836A5B085B0023
:103F20008362836A0224A3439B1C83620BE0836A3F
:103F30005B085B005B1C8362836A0224A3439B1CB7
:103F4000836200E000BF00BF042A05D1836A042415
:103F5000A3431B1D836203E0836A0424A34383629B
:103F600010BD10B500290ED0012902D002291FD1A1
:103F700013E0836A0824A34308338362836A10240E
:103F8000A343836215E0836A0824A3438362836AA0
:103F90001024A343103383620BE0836A0824A343F5
:103FA00008338362836A1024A3431033836200E0E2
:103FB00000BF00BF042A05D1836A2024A343203315
:103FC000836203E0836A2024A343836210BD000060
:103FD0000000014080800440004001403C0000108F
:103FE0000080014000C0014010B500290ED0012919
:103FF00002D002291FD113E0836A4024A343403337
:104000008362836A8024A343836215E0836A402429
:10401000A3438362836A8024A343803383620BE0DB
:10402000836A4024A34340338362836A8024A3438A
:104030008033836200E000BF00BF042A05D1836A99
:104040009401A3431B19836204E0836AFF240134B3
:10405000A343836210BD10B500290FD0012902D0FF
:10406000022922D115E0836A01246402A3431B19AB
:104070008362836A6400A343836217E0836A012436
:104080006402A3438362836A6400A3431B198362AF
:104090000CE0836A01246402A3431B198362836AD0
:1040A0006400A3431B19836200E000BF00BF042A21
:1040B00005D1836A5402A3431B19836204E0836A17
:1040C0000124E402A343836210BD0146C86A80B2A2
:1040D00070470146086B80B270470146486B80B25A
:1040E00070470146886B80B270478268120C1204D8
:1040F0008BB21A4382607047416802229143891C47
:10410000416041689143416070470146886880B2D0
:104110007047FF210160704742690A43426170475E
:1041200042698A434261704770B5049C85692D0CD1
:104130002D0496B235438561C5692D0C2D049EB2C0
:104140003543C561056A2D0C2D04A6B235430562C1
:10415000456A2D0C2D048EB235434562456F6D08BE
:104160006D006D1C4567456F0226B543AD1C456764
:10417000456F0426B5432D1D456770BDFFB581B061
:10418000044616461D46B148844220D1072000F05F
:1041900055F9AF480068A11488434018AC4908603D
:1041A00008468069000A0002401C8861A8488038DF
:1041B000406804218843A649803948600846406821
:1041C00004218843001DA2498039486025E0A148A8
:1041D000844220D1082000F031F99D480068611424
:1041E000884340189A4908600846C069000A0002DE
:1041F000401CC8619648803840680821884394492B
:104200008039486008464068082188430830904952
:104210008039486001E005B0F0BD8F480299006820
:1042200000F01AFB07033F0B2069000D000538431F
:104230002061022E0AD1A068F10188434018A060D5
:10424000A068490088434018A06010E0012E09D101
:10425000A06831028843A060A068490088434018E4
:10426000A06004E0A068012149028843A060022DFB
:1042700005D1A06802218843801CA0600EE0202D9B
:1042800005D1A068202188432030A06006E0082DD9
:1042900004D1A068082188430830A060A0680121EB
:1042A000C90588434018A060A06849108843401899
:1042B000A060FF20606100BFADE7C168FF2211432D
:1042C000C16070478168090A09028160704710B5B2
:1042D00004465E48844209D1072000F0AFF85C48EC
:1042E0000068A11488435A4908600DE05948844287
:1042F00009D1082000F0A2F85548006861148843ED
:104300005349086000E010BD2046FFF7DBFF204660
:10431000FFF7D3FF00BFF6E7024650688007C00FE3
:10432000002803D010680870002070470120FCE7C7
:1043300030B5002304E004680C70491C5C1CE3B237
:104340004468A407E40F002C04D015786C1E147088
:10435000002DF0D1137030BD024600BF50684007F9
:10436000C00F0028FAD11068000A0002CBB218432F
:1043700010600020704770B50346002400BF0EE0B7
:1043800000BF58684007C00F0028FAD10878491CC0
:104390001D682D0A2D0205431D60601CC4B29442A5
:1043A000EED3002070BD30B50CE000BF43685B0762
:1043B000DB0F002BFAD10B78491C0468240A240275
:1043C0001C4304601346521E002BEED130BD08E0A2
:1043D00000BF42685207D20F002AFAD10A78026061
:1043E000491C0A78002AF3D1704710B50A4600BF6D
:1043F0001107090F092903DD0B463733D9B202E053
:104400000B463033D9B200BF43685B07DB0F002B8C
:10441000FAD103681B0A1B02CCB2234303601309C1
:10442000002BE5D010BD82680A43826070470146C8
:104430004868C0B27047FF2141617047C206D20E82
:1044400001219140054A1160704700000080004042
:104450008080044000C000404000001080E100E087
:1044600070B50546A348806B10218843A149886335
:10447000A148006801218903884340189E490860CB
:104480009D48803840680121090388439A49803952
:10449000486008464068012109038843401896494E
:1044A000803948609548854200D905462D01294646
:1044B0009348006800F0D0F90446204668439049CC
:1044C0000968884206D08F4860438D490968884250
:1044D00000D2641C8C480068FF2109028843210235
:1044E000FF2212021140084387490860FF2600BFDF
:1044F0003046761E0028FBD1834800680121490719
:10450000884340188049086000BF7F48006B8002E4
:10451000C00F0028F9D070BD00207B49C860401E44
:1045200008637448806B1021884310307149886398
:10453000714800680121890388436F49086070470A
:1045400030B5714B1B6801242404A34304040125E6
:104550002D042C4023436C4C2360012807D12346B3
:104560001B680F242406A343674C236016E0664BA8
:104570001B680F242406A3430C060F252D062C4090
:104580002343614C236023461B68E402A3431407C2
:1045900001252D072C4023435B4C236000BF5A4B61
:1045A0001B6B9B02DB0F002BF9D030BD10B5564AB8
:1045B000526B120B120303051B0D1A43524B5A6325
:1045C0001A46526B07231B039A430B030724240349
:1045D00023401A434C4B5A6310BD10B54A4A526BE4
:1045E0004A4B1A400304494CE44323401A43464BC8
:1045F0005A631A46526B07231B079A430B0707247B
:10460000240723401A43404B5A6310BD10B53E4A5D
:10461000926B120B120303051B0D1A433A4B9A635C
:104620001A46926B07231B039A430B0307242403A8
:1046300023401A43344B9A6310BD10B5324A926B33
:10464000324B1A400304314CE44323401A432E4BAF
:104650009A631A46926B07231B079A430B0707249A
:10466000240723401A43284B9A6310BD2649C8608B
:1046700070470146244810308B00C2581005000DC9
:10468000704710B5204A926884000F23A3409A43D4
:104690001D4B9A601A46926884000B46A3401A4349
:1046A000194B9A6000BF184A126B9202D20F002A6F
:1046B000F9D010BD144A12680243D1B2124A1268EE
:1046C000120A12020A43104B1A6070470E4A12680F
:1046D0008243D1B20C4A1268120A12020A430A4BF0
:1046E0001A60704700BF0848006B8002C00F0028A6
:1046F000F9D07047008204408080044040420F009F
:104700003C0000100024F40000000240FFFF00F015
:104710004E4800680121C903884340184B4908608E
:1047200070474A4800680121C90388434749086027
:104730007047474A5269920A920283059B0D1A43B9
:10474000434B5A610902090AFF2900D89915404ACA
:104750009269120E12060B021B0A1A433C4B9A6115
:1047600070473B488068000A0002AA3038498860D8
:1047700008468068000A0002553088607047FF21B3
:10478000F531334A5268120E120603021B0A1A430D
:104790002F4B5A6000BF0A46491E002AFBD17047C2
:1047A00070B504460025FF26F53628488038406A53
:1047B000C004C00F002801D0B50101E025480568FC
:1047C0002146694308467D21C90000F045F8850867
:1047D0001F484068000E00062902090A08431C49C8
:1047E000486000BF3046761E0028FBD170BD1848D7
:1047F0000068022188431649086070471448006821
:10480000042188431249086008460068082188434B
:1048100008300F49086070470D48C06870470C4861
:104820000068202188432030094908600846006854
:1048300040218843403006490860084600688021CE
:10484000884380300249086070470000808004403F
:10485000004000404000001030B50B4601460020EB
:104860002022012409E00D46D5409D4205D31D4676
:104870009540491B2546954040191546521E002D6E
:10488000F1DC30BD70B500242546002801DA012492
:104890004042002901DA01254942FFF7DDFFAC4221
:1048A00000D04042002C00D0494270BDD2B201E09D
:1048B0000270401C491EFBD270470022F6E710B57B
:1048C00013460A4604461946FFF7F0FF204610BD7E
:1048D000024670B54A40D30FDB0740002DD04A0096
:1048E0002AD0010E140E000212020919400A520ABF
:1048F0008418E50104465443000A120A2E0450436A
:10490000A4194219200CC543AA18120C0125AD03A5
:10491000521C521912047F39240400D0521C104337
:1049200001D44000491EC2B20C06C0092018401C28
:104930004008802A02D003E0002070BD40084000FB
:10494000002900DA0020184370BD70B502464A40C5
:10495000D50F40004A00ED0740085208002814D047
:10496000002A12D0C40DD30D41020120C00552020D
:10497000490A520AE41A091812187D34914201D3E7
:10498000641C00E04900002C01DA002070BD002307
:10499000914201D3891A0343400849000028F7D106
:1049A00000290AD0914202D10121C90705E09142B4
:1049B00001D2012101E00121C943E005C0184019DD
:1049C00000F02EFA70BD0000F0B5074608465840CA
:1049D00087B0C00F049048000E46590040084908AF
:1049E000BC1A884105D2384631461E4617460B464A
:1049F00002465800400810434CD0300D039040054B
:104A00005900400D490D0590401A0290402872DA75
:104A100018030121000B0905084301900498009236
:104A2000002805D00199524200208841009201904F
:104A3000029840210A1A0199009800F0BDF9054634
:104A40000C466B4607CB00F0D8F9C0197141039AA8
:104A50000E0D0023D71756401A467A40164344D00D
:104A6000049A002A2DD0029A012A039A15DC120515
:104A7000C01A914101263605001C7141D20F059ED6
:104A8000D2070093019202962A46234600F016FAB6
:104A900007B0F0BD38463146FAE71605224A0F4600
:104AA000B218C01AB74101210905001C4F41001876
:104AB0007F41114618187941E20F10436D19644186
:104AC00013E0E2076D0815436408C2071443039A14
:104AD00001261205C01A91413605001C7141CE070E
:104AE000400830434908C01851412A46234600F087
:104AF000D8F9CDE7FFE7049801224000C117121A48
:104B000000238B4104983146C417381AA141EEE7BF
:104B100030B40124E407634030BC55E730B40124CD
:104B2000E407614030BC4FE70000E0FFF0B51FB480
:104B300088B00B990998002448400999C00F490092
:104B400049080991C0070B990090490049080B9149
:104B500009990898A64608431CD00B990A9808435F
:104B600018D0099801244000420D4800410D0998D1
:104B700024050003000B204309900B980003000B51
:104B800020430B9050181C494018002201901446F5
:104B9000104605E0002001460DB0F0BD032801DA03
:104BA000034600E003239C46C11A0AAE0AE05F00F8
:104BB00008ADED5B4F00F75B7D430027AA187C41F1
:104BC000491C5B1E6145F2DD410004AB5A522104D1
:104BD000120C0A43240C401C0828DFDB01980290C9
:104BE0000099704601910090059B049A07990698D8
:104BF00000F064F9D0E700000DFCFFFFF0B50C46B3
:104C00005C4085B0E40FE40703944C000026640880
:104C100059009446490802460296224321D0624632
:104C20000A431ED06200570D4A000E032303550DA0
:104C3000012402462C492405781B1B0B360B401817
:104C400023432643614600901C46501AB44103D3C7
:104C50000098401C009002E0921800985B410028E8
:104C600003DA0020014605B0F0BD0020012109054E
:104C70000746864611E064461D46141BB54106D31F
:104C80006546521BB341744607430C43A646CD0705
:104C900040084908284392185B4105460D43EAD174
:104CA0001046184313D060461946504071400843DF
:104CB00006D06046101AB34106D20122002306E056
:104CC00000220123DB0702E00122D24353100098A7
:104CD00074460105381C6141029C039D001969411D
:104CE00000F0DFF8BFE70000FD03000010B5002270
:104CF0009623114600F09CF810BD00000EB5C217B7
:104D0000C10F5040CA0740180021054B0293019281
:104D100000910A460B4600F0D1F803B000BD000038
:104D2000330400000EB505490291002100910A46A6
:104D30000B46019100F0C2F803B000BD330400003F
:104D40004A0009030123090B1B051943094B10B540
:104D5000520D9A4201DA002010BD064B34339A42BC
:104D600003DC9A1A00F038F810BD03495118884046
:104D700010BD0000FF030000CDFBFFFF10B50029B0
:104D800004DB0124E40740428C412146002B04DB74
:104D90001C460123DB075242A341994200D19042B5
:104DA00010BD00000122D207002800DB101A0029E4
:104DB00000DB511A8842704710B5202A04DB0146F7
:104DC000203A9140002010BD914020239C1A0346B8
:104DD000E3401943904010BD10B5202A04DB08467B
:104DE000203AD040002110BD0B46D340D0402024B3
:104DF000A21A91400843194610BD10B5202A06DBBF
:104E0000CB170846203A1041C1170B4306E00B466A
:104E10001341D0402024A21A91400843194610BDE6
:104E2000002904DA401C490001D1400840007047C5
:104E300070B40024050C05D11024000402D100290F
:104E400021D01124050E01D100020834050F01D133
:104E50000001241D850F01D18000A41C002801DB66
:104E60004000641C002908D020252E1B0D46F5406B
:104E7000A14000D001212943084301061B1B000A61
:104E8000DB1D02D5002070BC7047DB0518188018A8
:104E90000029F8DA401C4900F5D170BC40084000F8
:104EA000704710B5002B08DA0024401C61419218AD
:104EB0005B411A4301D14008400010BDF0B51FB45A
:104EC00082B005460C0003D0084600F05BF802E013
:104ED00000F058F820300246009021462846FFF79F
:104EE0006BFF049B059A04460F4618431143084381
:104EF00014D0184610431BD0009840210A1A1846B7
:104F00000599FFF769FF05460E46009A0599049832
:104F1000FFF752FF084305D0012004E02046394640
:104F200007B0F0BD0020C11705430E432C433743A3
:104F300000990E986305401A7905E40A00220C4393
:104F4000FD0A0A3002D500200146E9E701051019E3
:104F500069410C9C0D9D00196941FFF7A2FFDFE735
:104F6000064C0125064E05E0E36807CC2B430C3CBC
:104F700098471034B442F7D3FBF7A6F8EC4F000083
:104F80000C5000002021020C01D010211046020A12
:104F900001D010460839020901D01046091F8208C5
:104FA00001D01046891E420801D0881E7047081A99
:104FB000704730B47446641E2578641CAB4204D339
:104FC000635D5B00E31830BC18471D46F8E702E05C
:104FD00008C8121F08C1002AFAD170477047002084
:104FE00001E001C1121F002AFBD170470C500000E4
:104FF0000000001078000000CE4F00008450000038
:1050000078000010F8030000DE4F000002040600E4
:10501000000064323C0002060901010000000000AB
:10502000000368010600000000000000000000000E
:105030000000000000000000000000000000000070
:105040000000000000000601006CDC02006CDC02C5
:105050000000000000000000000000000000000050
:105060000000000000000000000000000000000040
:105070000000000000000000000000000000000030
:04508000000000002C
:04000005000000C136
:00000001FF
